:060000000A128A110E280D
:10000800FE00030EF9000408FA000A08FB000A16AD
:100018008A1165290A128A111128FC01FD0183132E
:100028002030840050300A168A1103200A128A11DF
:100038008317A0308400E9300A168A1103200A12B7
:100048008A118313A0308400EF300A168A11032026
:100058000A128A1183172030840045300A168A1143
:1000680003200A128A110A128A11FF270A128A111A
:10007800EB0083010A168A11932D83160317ED01ED
:10008800A528E901E90AEA016D0A4D280310E90DDE
:10009800EA0DFF3E031D4A286908831203132A0547
:1000A800E900831603176A08831203132B05EA0075
:1000B8006A0869040319612862286E2883160317E1
:1000C800690883120313AC06831603176A088312A0
:1000D8000313AD063103031D72287328A2282D08C7
:1000E800E2002C08E1008316031769088312031342
:1000F800E105831603176A0883120313E2058316C2
:1001080003176D080A168A11AB260A128A11013ADA
:10011800031D8F289028A228831603176A088312C4
:100128000313EA0083160317690883120313E9000F
:10013800E909EA096908AC056A08AD0583160317D9
:10014800ED0A831203134608831603176D02031C76
:10015800AE28AF284528ED016A2A03106D0DEC0082
:100168006C08013EEB00DF28CA28831603176C08C9
:10017800BD3E840000081F39203880006B08BD3E52
:10018800840000081F39203880009429831603173B
:100198006B08BD3E8400000E83120313E900690C4E
:1001A8000739023A0319B928013A0319B928073A55
:1001B8000319B92894296C08BD3E84008313000EE6
:1001C80083120313E900690C0739023A0319B828A6
:1001D800013A0319CA28073A0319CA289429831629
:1001E80003176C08C93E84008018FB28FC281F29C7
:1001F8006B08C93E8400801C0229032907296B0863
:10020800C93E8400801083120313D4018316031798
:100218006D080A168A115A240A128A1183160317BE
:100228006C08C93E8400831380146C08BD3E8400AA
:100238001F3080054E2A83120313D401D40A831673
:1002480003176D080A168A115A240A128A1183168E
:1002580003176C08C93E8400831380106C08BD3EE8
:1002680084001F3080054E2AD401D40A8316031750
:100278006D080A168A115A240A128A11831603175E
:100288006C08C93E8400831380146B08C93E84003F
:1002980080104E2AD401D40A831603176D080A1653
:1002A8008A115A240A128A112B29831603176B08FC
:1002B800C93E8400801C6129622966296B08C93EF1
:1002C8008400801083120313D401831603176D086A
:1002D8000A168A115A240A128A1112298316031738
:1002E8006C08C93E8400801C7A297B294E2A02307A
:1002F80083120313D400831603176D080A168A1194
:100308005A240A128A11013A031D8B298C29AC2917
:10031800831603176C08C93E8400831380104E2A85
:10032800831603176C08BD3E8400000E8312031366
:10033800E900690C0739013A03194E29033A0319F0
:10034800F328013A03193829073A03195929722958
:100358004E2A831603176B08C93E84008018B529F6
:10036800B629D9296C08C93E8400801CBC29BD293E
:10037800C1296C08C93E8400801083120313D4017C
:10038800831603176D080A168A115A240A128A114D
:10039800831603176B08C93E8400831380146B0807
:1003A800BD3E84001F308005672A83120313D401E1
:1003B800D40A831603176D080A168A115A240A12DA
:1003C8008A11831603176B08C93E840083138010B3
:1003D8006B08BD3E84001F308005672AD401D40A0B
:1003E800831603176D080A168A115A240A128A11ED
:1003F800831603176B08C93E8400831380146C08A6
:10040800C93E84008010672AD401D40A83160317D2
:100418006D080A168A115A240A128A11E5298316C8
:1004280003176C08C93E8400801C1B2A1C2A202A3A
:100438006C08C93E8400801083120313D40183160C
:1004480003176D080A168A115A240A128A11CC2930
:10045800831603176B08C93E8400801C342A352A8A
:10046800672A023083120313D400831603176D081A
:100478000A168A115A240A128A11013A031D452ABA
:10048800462A672A831603176B08C93E840083131C
:100498008010672A831603176B08BD3E84008313F8
:1004A800000E83120313E900690C0739013A031996
:1004B800082A033A0319AD29013A0319F229073A20
:1004C8000319132A2C2A83160317ED0A8312031320
:1004D8004808831603176D02031C732A742AB1286F
:1004E800ED01A32D831603176D086D076D07D53E23
:1004F800840080016D0883120313E90001300310A2
:10050800E90DFF3E031D832A0310690DA33E8400F5
:100518000010831603176D0883120313E9000130D6
:100528000310E90DFF3E031D942A0310690DA23E36
:1005380084001F3080057C2C831603176D088312F6
:100548000313E90001300310E90DFF3E031DA72A3C
:100558000310690DA23E840000080739023A031906
:10056800B62AB72ACE2A831603176D0883120313F7
:10057800E90001300310E90DFF3E031DBE2A0310F8
:10058800690DA23E8400000807390038031DCD2AF2
:10059800CE2AD72A831603176D086D076D07D63E36
:1005A800840064308000831603176D086D076D079B
:1005B800D63E84000008803A7F3E0318E42AE52AE4
:1005C800EC2A6D086D076D07D63E84006430800004
:1005D8006D086D076D07D63E84000008831203136B
:1005E800E900831603176D086D076D07D53E840073
:1005F8008312031369088000831603176D0883129A
:100608000313E90001300310E90DFF3E031D072B1A
:100618000310690DA33E84000010831603176D08AC
:1006280083120313E90001300310E90DFF3E031D97
:10063800182B0310690DA23E84001F3080057C2C06
:10064800831603176D0883120313E90001300310A2
:10065800E90DFF3E031D2B2B0310690DA23E8400FC
:1006680000080739023A03193A2B3B2B522B831601
:1006780003176D0883120313E90001300310E90D15
:10068800FF3E031D422B0310690DA23E84000008A3
:1006980007390038031D512B522B5B2B8316031788
:1006A8006D086D076D07D63E8400643080008316A0
:1006B80003176D086D076D07D53E84000008803A62
:1006C8007F3E031C682B692B7F2B6D086D076D0718
:1006D800D53E840080016D0883120313E9000130C0
:1006E8000310E90DFF3E031D742B0310690DA33E93
:1006F80084000010B72B6D086D076D07D63E840087
:100708000008803A7F3E03188A2B8B2B922B6D08AA
:100718006D076D07D63E8400643080006D086D0754
:100728006D07D63E8400000883120313E900831680
:1007380003176D086D076D07D53E840083120313F8
:1007480069088000831603176D0883120313E900F4
:1007580001300310E90DFF3E031DAD2B0310690D99
:10076800A33E84000010831603176D088312031339
:10077800E90001300310E90DFF3E031DBE2B0310F5
:10078800690DA23E84001F3080057C2C8316031758
:100798006D086D076D07D53E8400643080006D08D4
:1007A80083120313E90001300310E90DFF3E031D16
:1007B800D82B0310690DA33E840000148316031779
:1007C8006D0883120313E90001300310E90DFF3EA1
:1007D800031DE92B0310690DA23E84001F3080051C
:1007E8007C2C831603176D0883120313E90001306C
:1007F8000310E90DFF3E031DFC2B0310690DA33EFA
:1008080084000018082C092C262C831603176D0861
:100818006D076D07D53E84000008803A1D3E031819
:10082800162C172C1E2C6D086D076D07D53E8400FD
:10083800800A412C6D086D076D07D53E8400643031
:100848008000412C831603176D086D076D07D53E90
:1008580084000008803A7E3E031C332C342C3B2C49
:100868006D086D076D07D53E84008003412C6D0827
:100878006D076D07D53E840080016D086D076D0713
:10088800D53E8400000883120313E900831603177A
:100898006D086D076D07D63E84008312031369083F
:1008A80080007C2C6D0883120313E90001300310CB
:1008B800E90DFF3E031D5B2C0310690DA23E840069
:1008C8008313000EEA006A0C0739003A03197C2CDE
:1008D800013A0319762A033A0319A02A013A03199F
:1008E800242B073A0319CA2B013A0319F52B7C2C40
:1008F800831603176D086D076D07D53E8400801FAA
:10090800862C872C8D2C6D086D076D07D53E8400CD
:1009180080016D086D076D07D53E84000008803A98
:100928001B3E031C982C992CA02C6D086D076D0795
:10093800D53E840064308000831203133A19A52C35
:10094800A62C482D831603176D086D076D07D73E33
:100958008400000883120313E900831603176D0847
:100968006D076D07D53E84000008831203136906DE
:100978000319BF2CC02CA02D831603176D086D0713
:100988006D07D53E8400000883120313E90083161F
:1009980003176D086D076D07D73E84008312031394
:1009A800690880002C2D831603176D086D076D07E5
:1009B800D53E84000008803A6C3E0318E42CE52CF0
:1009C800FA2C6B300A168A1123200A128A11831610
:1009D800031703106D0DE13E8400831203135408BE
:1009E80083138000840A55088000A02D6A300A16F7
:1009F8008A1123200A128A118316031703106D0D1A
:100A0800E13E840083120313540883138000840A90
:100A180055088000A02D831603176D086D076D0714
:100A2800D53E840000086E3E0A168A1123200A1259
:100A38008A118316031703106D0DE13E840083129B
:100A48000313540883138000840A55088000A02DDE
:100A5800831603176D0883120313E900013003108E
:100A6800E90DFF3E031D332D0310690DA23E8400DE
:100A780000080739003A03190F2D013A03190F2D01
:100A8800033A0319D72CA02D831603176D086D0799
:100A98006D07D73E8400000A0319532D542DA02D4D
:100AA8006D086D076D07D73E840080018003862D91
:100AB8006A300A168A1123200A128A11831603172C
:100AC80003106D0DE13E8400831203135408831351
:100AD8008000840A55088000A02DD2300A168A1199
:100AE80023200A128A118316031703106D0DE13EA5
:100AF800840083120313540883138000840A550862
:100B08008000A02D6D0883120313E9000130031043
:100B1800E90DFF3E031D8B2D0310690DA23E8400D5
:100B280000080739003A0319712D013A0319712D8C
:100B3800033A03195C2DA02D83160317ED0A8312BF
:100B480003134708831603176D02031CAC2DAD2D44
:100B5800562C0800DA01EE2F5A080A168A15D327F0
:100B68000A128A11D900D22F5908D33E840083175C
:100B7800000ED600D60C560C0139D7005908D33EC2
:100B88008400000ED800580C013957060319CD2DE2
:100B9800CE2DEB2F5908D33E8400801AD42DD52DA5
:100BA800DA2D5908D33E84000013EB2F5908D33EA1
:100BB800840000175A08D60001300310D60DFF3EF6
:100BC800031DE12D0310560DA23E84008313000877
:100BD8001F3960388000EB2F5908D33E84008317F3
:100BE800000ED600D60C560C0139D7005908D33E52
:100BF8008400000ED800580C013957060319052E39
:100C0800062E242E5908D33E8400801A0C2E0D2E51
:100C1800122E5908D33E84000013162E5908D33ECD
:100C2800840000175A08D60001300310D60DFF3E85
:100C3800031D192E0310560DA03E84008313800156
:100C48005908D33E84008317801A2B2E2C2E4D2F43
:100C58005A08D60001300310D60DFF3E031D2F2E73
:100C68000310560DA13E84000D30831300020318B3
:100C78003E2E3F2E6D2E5A08D60001300310D60D99
:100C8800FF3E031D422E0310560DA23E840080191C
:100C98004E2E4F2E5F2E5A08D60001300310D60D67
:100CA800FF3E031D522E0310560DA23E8400001E67
:100CB8005E2E5F2E6D2E5A08D60001300310D60D19
:100CC800FF3E031D622E0310560DA13E8400800ACC
:100CD800872E5A08D60001300310D60DFF3E031D9B
:100CE800702E0310560DA23E840000125A08D6003A
:100CF80001300310D60DFF3E031D7D2E0310560D47
:100D0800A13E840080015A08D60001300310D60D98
:100D1800FF3E031D8A2E0310560DA23E8400801D3F
:100D2800962E972E092F5A08D60001300310D60D9B
:100D3800FF3E031D9A2E0310560DA23E840080111B
:100D48005A08D60001300310D60DFF3E031DA72E0A
:100D58000310560DA23E8400001EB32EB42EEC2EB6
:100D68005A08D60001300310D60DFF3E031DB72EDA
:100D78000310560DA23E840000081F3980388000F9
:100D88005A08D60001300310D60DFF3E031DC72EAA
:100D98000310560DA13E840080015A08D600013088
:100DA8000310D60DFF3E031DD42E0310560DA23E90
:100DB800840000125A08D60001300310D60DFF3EF9
:100DC800031DE12E0310560DA13E84008001092F5A
:100DD8005A08D60001300310D60DFF3E031DEF2E32
:100DE8000310560DA23E840000081F3960388000A9
:100DF8005A08D60001300310D60DFF3E031DFF2E02
:100E08000310560DA23E840000165A08D600013081
:100E18000310D60DFF3E031D0C2F0310560DA23EE6
:100E28008400000ED700570C0739053A031D1D2F03
:100E38001E2FEB2F5A08D60001300310D60DFF3EA7
:100E4800031D212F0310560DA23E84001F3080057C
:100E58005A08D60001300310D60DFF3E031D2F2F70
:100E68000310560DA33E8400001C472F4A2F5A0832
:100E7800D70001300310D70DFF3E031D3E2F03108E
:100E8800570DA33E8400831300144C2F83130010C6
:100E9800EB2F5A08D60001300310D60DFF3E031D74
:100EA800502F0310560DA23E8400831380155A0854
:100EB800D60001300310D60DFF3E031D5E2F031030
:100EC800560DA13E84000D30000203186C2F6D2FC3
:100ED8007A2F5A08D60001300310D60DFF3E031DA5
:100EE800702F0310560DA13E8400800A5A08D600C0
:100EF80001300310D60DFF3E031D7D2F0310560D44
:100F0800A03E84000F30000203188B2F8C2F9A2FDD
:100F18005A08D60001300310D60DFF3E031D8F2F4F
:100F28000310560DA03E8400800AEB2F5A08D60005
:100F380001300310D60DFF3E031D9D2F0310560DE3
:100F4800A23E840000081F39A03880005A08D60045
:100F580001300310D60DFF3E031DAD2F0310560DB3
:100F6800A23E840080115A08D60001300310D60D25
:100F7800FF3E031DBA2F0310560DA23E8400001237
:100F88005A08D60001300310D60DFF3E031DC72FA7
:100F98000310560DA13E84008001EB2F5A08D6009D
:100FA80001300310D60DFF3E031DD52F0310560D3B
:100FB800A23E8400831300080739003A0319B82DAC
:100FC800013A0319F02D033A0319B82DEB2F8312B8
:100FD8000313DA0A41085A02031CF32FF42FB02D29
:100FE8000800F000941370089300941BFC2FFD2F49
:100FF800F62F141608000534DB014928D901D90A4F
:10100800DA015B0A0A280310D90DDA0DFF3E031D29
:1010180007285B080A168A11B2230A128A15DC000F
:101028005C08D33E84008317000ED600D60C560CFD
:101038000139D7005C08D33E8400000ED800580C54
:1010480001395706031929282A2835285C08D33E70
:101058008400801A3028312840285C08D33E840058
:1010680000135A08D7005908D600D609D7095608D8
:10107800AA055708AB0548285C08D33E840000172A
:101088005908AA045A08AB04DB0A40085B02031C8F
:101098004E284F280228080005306B0203185528EF
:1010A80056285728EB0AD901202905306B02031C62
:1010B8005E285F281F29BA1C6228632868285908F7
:1010C800C93E8400831380105908C93E84008313E5
:1010D800000C0139D8005908C93E840000080139BC
:1010E80058060319782879281F2959187C287D283B
:1010F800C0285908C93E8400801C83288428C02839
:101108005908CA3E8400001C8A288B28A828590838
:10111800CA3E840080105908CA3E84008018982866
:101128009B285908CA3E8400831300149D28831302
:10113800001083120313EB015908013E0A168A11A5
:1011480046220A128A1526295908C93E84008018A1
:10115800B128B4285908C93E840083130014B6285E
:101168008313001083120313EB0159080A168A111E
:1011780046220A128A152629591CC328C428072979
:101188005908C93E8400801CCA28CB280729590859
:10119800C83E8400001CD128D228EF285908C83E30
:1011A800840080105908C83E84008018DF28E2288F
:1011B8005908C83E840083130014E42883130010E0
:1011C80083120313EB015908FF3E0A168A114622BF
:1011D8000A128A1526295908C93E84008018F82859
:1011E800FB285908C93E840083130014FD28831383
:1011F800001083120313EB0159080A168A114622BC
:101208000A128A1526295908C93E8400801810290F
:1012180013295908C93E8400831300141529831320
:10122800001083120313EB0159080A168A1146228B
:101238000A128A152629D90A45085902031C2529A4
:10124800262959280800D400D501B029061C2D29C3
:101258002E29F42983120313D501D50AF4298316FC
:101268000317881D38293929F4292E2983160317CD
:10127800081D3F294029F4292E2983160317881CA5
:1012880046294729F4292E2983160317081C4D29B6
:101298004E29F4292E2983160317891E5429552906
:1012A800F4292E2983160317091E5B295C29F429C2
:1012B8002E2983160317891D62296329F4292E29EB
:1012C80083160317091D69296A29F4292E2983160B
:1012D8000317891C70297129F4292E2983160317ED
:1012E800091C77297829F4292E29881F7C297D292A
:1012F800F4292E29081F81298229F4292E29881EDC
:1013080086298729F4292E29081E8B298C29F42956
:101318002E29871E90299129F4292E29071E9529FF
:101328009629F4292E29081C9A299B29F4292E2963
:10133800871D9F29A029F4292E29071DA429A5293D
:10134800F4292E29871CA929AA29F4292E29071C42
:10135800AE29AF29F4292E295408003A03192A295D
:10136800013A03193329033A03193A29013A0319AF
:101378004129073A03194829013A03194F29033A21
:1013880003195629013A03195D290F3A03196429EB
:10139800013A03196B29033A03197229013A03190F
:1013A8007929073A03197E29013A03198329033A4F
:1013B80003198829013A03198D291F3A031992291B
:1013C800013A03199729033A03199C29013A031989
:1013D800A129073A0319A629013A0319AB29F429C7
:1013E80083120313D508031DFA29FB29FE29D50109
:1013F800D50AFF29D50155080800D600252B550820
:10140800031D072A092AB514362BB510362B5508A3
:10141800031D0F2A112A3515362B3511362B550881
:10142800031D172A192A3815362B3811362B55085B
:10143800031D1F2A212AB917362BB913362B550835
:10144800031D272A292A3917362B3913362B550815
:10145800031D2F2A312AB916362BB912362B5508F7
:10146800031D372A392A3916362B3912362B5508D7
:10147800031D3F2A412AB416362BB412362B5508C1
:10148800031D472A492A3416362B3412362B5508A1
:10149800031D4F2A512AB415362BB411362B550883
:1014A800031D572A592A3415362B3411362B550863
:1014B800031D5F2A612AB414362BB410362B550845
:1014C800031D672A692A3414362B3410362B540826
:1014D800003A0319032A013A03190B2A033A03199C
:1014E800132A013A03191B2A073A0319232A013A36
:1014F80003192B2A033A0319332A013A03193B2A01
:101508000F3A0319432A013A03194B2A033A0319DC
:10151800532A013A03195B2A073A0319632A362B1F
:10152800B710362BB714362B5408003A0319942AEF
:10153800013A0319962A362B5508031DA42AA62A10
:10154800B515362BB511362B5508031DAC2AAE2A16
:101558003516362B3512362B5508031DB42AB62AF4
:10156800B516362BB512362B5508031DBC2ABE2AD4
:10157800B814362BB810362B5508031DC42AC62AB2
:101588003816362B3812362B5508031DCC2ACE2A8E
:10159800B816362BB812362B5508031DD42AD62A6E
:1015A800B817362BB813362B5508031DDC2ADE2A4C
:1015B8003817362B3813362B362B5408003A0319B4
:1015C800A02A013A0319A82A033A0319B02A013AB2
:1015D8000319B82A073A0319C02A013A0319C82A75
:1015E800033A0319D02A013A0319D82A0F3A0319E2
:1015F800E02A013A0319E02A033A0319E02A013ADA
:101608000319E02A362B5508031D0B2B0D2B381414
:10161800362B3810362B5408003A0319072B013A99
:101628000319E02A033A0319E02A013A0319E02AC8
:10163800362B5508031D212B232BB715362BB71135
:10164800362B5608003A03196B2A013A0319982ACF
:10165800033A0319E12A013A03190F2B073A031930
:101668001D2B362B34088500350886003608870080
:101678003708880038088900390883160317880056
:1016880008001408FC003C308312C300FC1A4D2BE0
:101698004E2B732B7C19512B522B732B7C1C552BE7
:1016A800562B732BFC1D592B5A2B732B64001930A6
:1016B80083120313AF000A168A1101200A128A1531
:1016C8000317AC00FD01FD0A0313CC01CD01141F63
:1016D8006E2B6F2BAD2CCD15CD141413AD2CFC1E19
:1016E800762B772B342C7C197A2B7B2B342C7C1C77
:1016F8007E2B7F2B342C7D08193A031D842B852BD8
:10170800892B4D15CD141830FD00141F8C2B8D2BF3
:10171800902BCD15CD1414137D082C3E84000A1689
:101728008A1101200A128A15831780007D03031D80
:101738009E2B9F2BCF2BAC2B0B30AF00C02B133025
:10174800AF00C02B0430AF00C02B4D15CD14C02BFB
:101758007D082C3E84000008013A0319A02B033AA7
:101768000319A02B013A0319A32B073A0319A02B3D
:10177800013A0319A62BA92B7D082C3E84000008EA
:10178800CC00CD131A302F02031CCB2BCC2B322CC0
:101798004D15CD14322C7D082F020318D42BD52BD0
:1017A800D62BCC2B7D082F06031DDB2BDC2B322CF4
:1017B8002D30F3000130F4007D08FE3EF5000A16D6
:1017C8008A1107210A128A157408A9007308A8004B
:1017D8007D082B3E840083170008F8007D082C3E06
:1017E80084000008D1007808D00051082906031D9C
:1017F800FF2B500828060319022C032C0A2CA801D9
:10180800A9014D1483120313CD14322C4D108316E5
:101818000317BA08031D112C122C062C831203136C
:10182800D201D20AD3012B2C5308193A031D1D2CBF
:101838001E2C1F2CD30352082C3E84000008F800ED
:101848005308BA3E840078088000D20AD30A5208A6
:101858007D020318302C312C182CCD10FD0AAD2C2C
:10186800FC1A372C382C4C2C7C1D3B2C3C2C4C2C3B
:101878007C183F2C402C4C2CFC1D432C442C4C2C0D
:10188800B0014C080A128A11F5270A128A15AD2CE4
:10189800FC1E4F2C502C9F2C7C1D532C542C9F2C01
:1018A8007C18572C582C9F2C912C2808CD004D08BB
:1018B8000A128A11F5270A128A15B00AAD2C2908CE
:1018C800CE004E080A128A11F5270A128A15612CD1
:1018D8004C30F3000030F4000330F5000A168A118A
:1018E80007210A128A157408A9007308A800280895
:1018F8000A128A11F5270A128A15612C29080A1278
:101908008A11F5270A128A15612CCD1755300A124B
:101918008A11F5270A128A15AD2C3008003A0319E6
:10192800592C013A0319632C033A03196C2C013A18
:101938000319822C892CFC1EA22CA32CAD2C7C19FB
:10194800A62CA72CAD2C7C18AA2CAB2CAD2C640093
:10195800AD2C08003A08031DB22C332E222E3C0869
:1019680083120313AC04831603173E088312031370
:10197800AD04831603173D0883120313DB00831697
:1019880003173B0883120313DA00DA09DB095A0844
:10199800AC055B08AD05DF01DE01DE0A831603171F
:1019A8004008831203135E050319DB2CDC2CED2C95
:1019B8005F08DA0001300310DA0DFF3E031DDF2C4B
:1019C80003105A0DA23E8400831300081F394038C3
:1019D8008000831603173F08831203135E0503195B
:1019E800F62CF72C082D5F08DA0001300310DA0D09
:1019F800FF3E031DFA2C03105A0DA23E84008313E8
:101A080000081F3920388000DF0A0310DE0D04307B
:101A18005F02031C102D112DD22CDF01DE01DE0A1E
:101A280003105F0DDD005D08013EDC00831603171F
:101A38004108831203135E050319232D242D2D2D30
:101A48005D08BD3E8400831300081F39803880007C
:101A58003F2D831603174208831203135E050319EB
:101A6800362D372D3F2D5C08BD3E840083130008BA
:101A78001F3980388000DF0A0310DE0D06305F0250
:101A8800031C472D482D142D83160317BA01332E36
:101A980083120313DF015F08DA0001300310DA0D47
:101AA800FF3E031D522D03105A0DA23E84008313DE
:101AB80000080739DB005F08BB3E84008317000875
:101AC80007395B060319692D6A2D912D5F08BB3E06
:101AD800840007300005DA005F08DB0001300310DE
:101AE800DB0DFF3E031D732D03105B0DA23E84002A
:101AF800831300085A06F8395A0680005F08BB3E6F
:101B0800840083170008D4005F085F075F07143E4E
:101B18000A168A11B9200A128A1583120313DF0ADA
:101B280004305F02031C992D9A2D4F2D482D8312E6
:101B38000313DF015F08BB3E840083170008DA0047
:101B48005F08B03E8400831300085A060319AD2DC0
:101B5800AE2DC62D5F08BB3E840083170008DA004F
:101B68005F08B03E84005A08831380005F08B03EC7
:101B780084000008D4005F08323E0A168A11B92092
:101B88000A128A1583120313DF0A0D305F02031C41
:101B9800CE2DCF2D9E2D482D83120313DF015F0814
:101BA800BB3E840083170008DA005F08203E8400EB
:101BB800831300085A060319E22DE32DFB2D5F0855
:101BC800BB3E840083170008DA005F08203E8400CB
:101BD8005A08831380005F08203E84000008D40060
:101BE8005F082A3E0A168A11B9200A128A1583123A
:101BF8000313DF0A06305F02031C032E042ED32DC5
:101C0800482D831203133A180A2E0B2E1B2E831607
:101C180003173B0883120313BA003A1C142E152E1F
:101C2800482D0A168A11AE240A128A15482D8316E1
:101C380003173B0883120313BA00482D3A08013AE8
:101C48000319B32C033A03194C2D013A03199B2DA0
:101C5800073A0319D02D013A0319052E482D83128E
:101C680003133103031D392E3A2E422E4308031D58
:101C78003E2E412E4D12C303422E4D1608000E3043
:101C880083120313DB00DC010E300A168A11592077
:101C98000A128A150313D800D901DB0A0319DC0AD2
:101CA8005B080A168A1159200A128A150313D600EE
:101CB800D7015608D700D6015608D8045708D904C2
:101CC800DB0A0319DC0A5908AA3A553003195806E1
:101CD800031D6F2E702E152F5B080A168A115920C6
:101CE8000A128A150313AC00AD01DB0A0319DC0ADA
:101CF8005B080A168A1159200A128A150313D6009E
:101D0800D7015608D700D6015608AC045708AD04C9
:101D1800DB0A0319DC0ADA01D22E5A085A075A07D5
:101D2800D53E84005B080A168A1159200A128A15C2
:101D3800831380000313DB0A0319DC0A5A085A07C5
:101D48005A07D63E84005B080A168A1159200A12DF
:101D58008A15831380000313DB0A0319DC0A5B0866
:101D68000A168A1159200A128A1507390313D60050
:101D78005A08D70001300310D70DFF3E031DBF2EB0
:101D88000310570DA23E8400831300085606F83945
:101D980056068000DB0A0319DC0ADA0A47085A02E9
:101DA800031CD72ED82E912E2A30DB00DC01DA0155
:101DB8005A08203E84005B080A168A1159200A1224
:101DC8008A15831380000313DB0A0319DC0ADA0A75
:101DD80006305A02031CF12EF22EDC2E3230DB00C4
:101DE800DC01DA015A08B03E84005B080A168A1141
:101DF80059200A128A15831380000313DB0A03197A
:101E0800DC0ADA0A0D305A02031C0B2F0C2FF62EAF
:101E180042300A168A1159200A128A150313CA0079
:101E2800FF2FD4015B080A168A11B9200A128A15F5
:101E380083120313DB0A0319DC0AD4015B080A16B0
:101E48008A11B9200A128A1583120313DB0A0319AF
:101E5800DC0AAC01AD01DA01752FD4015B080A1662
:101E68008A11B9200A128A1583120313DB0A03198F
:101E7800DC0AD4015B080A168A11B9200A128A15ED
:101E880083120313DB0A0319DC0A5A085A075A0794
:101E9800D53E8400831380015A085A075A07D63E54
:101EA80084008001D401D40A5B080A168A11B9207B
:101EB8000A128A1583120313DB0A0319DC0A5A086B
:101EC800D60001300310D60DFF3E031D662F031008
:101ED800560DA23E840083130008F83901388000AB
:101EE800DA0A47085A02031C7A2F7B2F312F2A302F
:101EF800DB00DC01DA015A08033A031D842F852F21
:101F08008C2F5A08203E8400FF3083138000922FC4
:101F18005A08203E84007830831380005A08203EF7
:101F280084000008D4005B080A168A11B9200A1236
:101F38008A1583120313DB0A0319DC0ADA0A06304E
:101F48005A02031CA82FA92F7F2F3230DB00DC0197
:101F5800DA01D4015B080A168A11B9200A128A1517
:101F680083120313DB0A0319DC0A5A08B03E840003
:101F780083138001DA0A0D305A02031CC42FC52FBF
:101F8800AD2F4230DB00DC01CA01D40142300A1611
:101F98008A11B9200A128A1583120313DB0A03195E
:101FA800DC0A0D30DB00DC01D401D40A0D300A163E
:101FB8008A11B9200A128A1583120313DB0A03193E
:101FC800DC0A5530D4005B080A168A11B9200A12B7
:101FD8008A1583120313DB0A0319DC0AAA30D4001A
:101FE8005B080A168A11B9200A128A15831203138C
:081FF800DB0A0319DC0A0800F2
:102002001308080064008001840A040603190034DE
:1020120004060428D70119285708D400D501023034
:102022000A128A1501220A168A1183120313D70A89
:1020320045085702031C1E281F280D289B01CF307C
:102042009D05080083120313D7005708D800D90151
:102052000310D80DD90D1430D8070318D90AFE3051
:10206200D8050130D9050030D8040630D904590802
:10207200D5005808D40008007208F006B3010830F1
:102082003302031C4528462847285828701C4A2832
:102092004B2853280310F10CF00C0130F006A0304D
:1020A200F10656280310F10CF00CB30A4028080080
:1020B200D4006400831603178C18602863288312E7
:1020C20003135A2883120313540803178D003F3059
:1020D20083168C050C1403100C180314003003181B
:1020E200013083120C080800D801D901541C7A2847
:1020F2007B2881285608D8070318D90A5708D90718
:102102000310D60DD70D0310D50CD40C550854046A
:10211200031D8C288D2877285908D5005808D4002B
:102122000800F1009C287008031D98289A2838148A
:10213200AA283810AA287108003A03199428013AEB
:102142000319AA28033A0319AA28013A0319AA284B
:10215200AA28340885003508860036088700370823
:102162008800380889003908831603178800080098
:10217200D500831603178C18BF28C028BA288312EB
:102182000313550803178D000313540803178C001B
:102192003F3083168C0503108B1FD028D128D228FC
:1021A20003148B130C1555308D00AA308D008C143E
:1021B2000C11031CDD28DE28DF288B1708000D30E8
:1021C200D700D8010D300A168A1159200A168A1131
:1021D2000313D600D70A0319D80A56030319F228A3
:1021E200F3280629D40157080A168A11B9200A16BB
:1021F2008A1183120313D70A0319D80AD401570884
:102202000A168A11B9200A168A110800FF308312B1
:10221200A600FF30A700B2012A292708F1002608EC
:10222200F00032087307F60074080318013EF70045
:10223200760884008317771C83130008F2000A16BD
:102242008A113D200A168A117108A7007008A6009B
:10225200B20A75083202031C2F2930290E292708D9
:10226200F4002608F300080003303F0203183A295D
:102272003B294829D401D501D50A04300A128A150E
:1022820001220A168A1183120313BF0A6429193024
:102292003F0203184D294E295729D401D501043094
:1022A2000A128A1501220A168A114429D401D5017B
:1022B200D50A04300A128A1501220A168A118312DB
:1022C2000313BF01BF0A08000B1D68296929802971
:1022D2008B1E6C296D29802983120313BB0A3230AD
:1022E2002E020318752976297829AE0A7D290A1645
:1022F2008A1184220A168A11823081020B118312FA
:1023020003138C1D8529862991298C1183168C1D16
:102312008B298C2991290A128A1545230A168A11BA
:102322007B088A007A088400790E8300FE0E7E0EF6
:102332000900D400D501B5290230D500CF290330D8
:10234200D500CF290430D500CF290530D500CF29BB
:102352000830D500CF290930D500CF291230D50059
:10236200CF291330D500CF295408003A03199D29EB
:10237200013A0319A029033A0319A329013A0319BF
:10238200A629073A0319A929013A0319AC29033AE4
:102392000319AF29013A0319B229CF2955080800B8
:1023A200DC01DD01DE01DF01541CD829D929F02925
:1023B2005808DC07590803110318013E0319E229E2
:1023C200DD075A0803110318013E0319E929DE0744
:1023D2005B0803110318013E0319F029DF070310FC
:1023E200D80DD90DDA0DDB0D0310D70CD60CD50C98
:1023F200D40C5708560455045404031D012A022A1A
:10240200D5295F08D7005E08D6005D08D5005C08B4
:10241200D4000800DB013F2AD901D90ADA015B0A9C
:10242200152A0310D90DDA0DFF3E031D122A590891
:102432002C05D7005A082D05D80058085704031D4B
:10244200232A242A322A3A19272A282A322A5B08DE
:10245200D400D50100300A128A1501220A168A1107
:102462003C2A5B08D400D501D50A00300A128A152D
:1024720001220A168A1183120313DB0A46085B0241
:10248200031C442A452A0D2A0800D7005708C93ED2
:10249200840000184D2A4E2A692AD401D501013040
:1024A2000A128A1501220A168A115C30831203135A
:1024B2009B0030309D041430BD005708D400D50174
:1024C200D50A02300A128A1501220A168A11832AB3
:1024D200D401D40AD50101300A128A1501220A1642
:1024E2008A11831203139B01CF309D051430BD0066
:1024F2005708D400D501D50A02300A128A150122E2
:102502000A168A11080047084B02031C892A8A2AE4
:102512008B2ACB0103104B0DE13E8400831300088C
:10252200840A00040319962A972AC72A03104B0D1E
:10253200E13E8400001C9E2A9F2AA82AF001F00A8C
:102542004B080A168A1192200A168A11AF2AF00144
:102552004B080A168A1192200A168A118312031353
:1025620003104B0DE13E84000008F200840A0008CB
:10257200F3000310F30CF20C03104B0DE13E840048
:1025820072088000840A73088000C82ACB0A0800F7
:10259200DB01ED2A6B300A168A1123200A168A11F2
:1025A20003105B0DE13E8400540883138000840A0B
:1025B20055088000062B6E300A168A1123200A164F
:1025C2008A1103105B0DE13E8400540883138000DE
:1025D200840A55088000062B5B08DA0001300310DC
:1025E200DA0DFF3E031DF02A03105A0DA23E8400AD
:1025F200831300080739003A0319DC2A013A031948
:10260200DC2A033A0319CB2A062BDB0A04305B02CD
:10261200031C0C2B0D2BED2A0800DC01DD01DE0171
:10262200DF0157085604550454040319192B1A2BB9
:10263200562BE001E00A232B0310D40DD50DD60D45
:10264200D70DE00AD71F262B272B1D2B0310DC0DDD
:10265200DD0DDE0DDF0D57085B02031D3A2B560818
:102662005A02031D3A2B55085902031D3A2B5408EE
:102672005802031C3D2B3E2B4D2B5408D802550803
:10268200031C550FD9025608031C560FDA025708CD
:10269200031C570FDB025C140310D70CD60CD50CAD
:1026A200D40CE00B552B562B272B5F08D7005E0866
:1026B200D6005D08D5005C08D4000800D801AB2B19
:1026C20058080A128A1527210A168A11D7005808B3
:1026D200D33E840083170008013957060319722B71
:1026E200732B802B5808D33E840057080010031D1B
:1026F20000145808D33E8400E1308005A82B580806
:10270200D33E8400000C0F39D60004305602031861
:102712008B2B8C2B9A2B5808D33E8400000C0F393C
:10272200D600D60AD60D00085606E13956068000B4
:10273200A82B5808D33E84000018A32BA62B5808B8
:10274200D33E840083178016A82B8317801283122E
:102752000313D80A44085802031CB02BB12B612B77
:102762000800D400D501DB2BD501042CD501D50AF4
:10277200042C0730D500042C0A30D500042C0B3071
:10278200D500042C0C30D500042C0D30D500042CBF
:102792000E30D500042C0F30D500042C1030D5009B
:1027A200042C1130D500042C1430D500042C153023
:1027B200D500042C5408003A0319B52B013A031929
:1027C200B72B033A0319BA2B013A0319BD2B073A67
:1027D2000319C02B013A0319C32B033A0319C62B61
:1027E200013A0319C92B0F3A0319CC2B013A0319E9
:1027F200CF2B033A0319D22B013A0319D52B073AEF
:102802000319D82B042C5508080016308312031321
:10281200C4000D30C0000D30C600C101C10AC7019D
:10282200C70A0830C2000830C5000310450CC800B2
:1028320017304402031C1E2C1F2C212C1630C400FE
:102842000E304002031C262C272C292C0D30C000F0
:102852000E304602031C2E2C2F2C312C0D30C600BC
:1028620005304102031C362C372C392C0430C100B0
:1028720005304702031C3E2C3F2C412C0430C7007C
:102882000D304202031C462C472C492C0C30C2004E
:102892000D304502031C4E2C4F2C512C0C30C50020
:1028A20007304802031C562C572C592C0630C800FE
:1028B200080083120313D700D601480857020318F1
:1028C200632C642C6A2C06305702031C692C6A2C78
:1028D200A12C0130AD2C5708203E840083138008C0
:1028E200031D742C752C7A2C5708203E84007830F6
:1028F20080005708203E84000008D5005708E93EB2
:10290200840055088000AC2C5708E93E84008313EC
:102912008001AC2C5708E93E840083138008031918
:10292200932C942C9E2C3103031D982C992CAC2CA7
:102932005708E93E84008003AC2CD601D60AAC2CA1
:102942005408003A03196C2C013A0319852C033AF6
:1029520003198B2CAC2C560808001030D800D90172
:102962002C08D6005608D40010300A168A11B92055
:102972000A168A1183120313D80A0319D90A2D08D9
:10298200D6005608D40058080A168A11B9200A1629
:102992008A1183120313D80A0319D90AD701FB2C0F
:1029A200570857075707D53E840083130008D40001
:1029B20058080A168A11B9200A168A1183120313BB
:1029C200D80A0319D90A570857075707D63E840071
:1029D20083130008D40058080A168A11B9200A166F
:1029E2008A1183120313D80A0319D90AD80A0319C0
:1029F200D90AD70A47085702031C002D012DD12CF2
:102A020042300A168A1159200A168A11013E03130E
:102A1200C9004908FF3A031D0F2D102D122DC901BF
:102A2200C90A4908D40042300A168A11B9200A1686
:102A32008A1108008316910103308312031787005D
:102A4200831603138F010C3083129D005C309B00B0
:102A520030309D04F9308316920083128C10831655
:102A62008C100430831292008330831681008230EE
:102A7200831281000B118B16163003178900C030A8
:102A82008316031387042630930094018312940162
:102A9200363094008C1183168C1506140317851595
:102AA200051585140514871607168715071587144B
:102AB20007140313881708178816081687160716AF
:102AC2000814871507158714071488118610061134
:102AD20009110317851305138512051203138512B5
:102AE200051285110511851005100815881086112B
:102AF2000612861289100912891289130913091004
:102B02008312381434088500350886003608870099
:102B120037088800380889003908831603178800A7
:102B2200640008000A168A1150270A168A110A162A
:102B32008A111B250A168A110A168A15CB270A162C
:102B42008A110A168A1106240A168A110A168A118D
:102B5200E0200A168A110A128A1543260A168A11D9
:102B62000A168A11C9220A168A118B170B17BD2D54
:102B72008316081183128C108C18C02DC12DB92D0B
:102B82000A168A1106240A168A110C303B02031C0B
:102B9200CB2DCC2DEA2D0C30BB0265303B02031C41
:102BA200D32DD42DD52DBB01BE0A0A168A115F235F
:102BB2000A168A113D08031DDF2DEA2DBD03BD084B
:102BC200031DE42DE52DEA2D0A168A110B200A16A3
:102BD2008A1108303E02031CEF2DF02DC12DBE01DB
:102BE200BC0A19303C02031CF72DF82DFB2DBC0149
:102BF200B101B10A0A168A15E0270A168A110A12C9
:102C02008A1141200A168A110A128A15AE240A165E
:102C12008A110A168A15F0270A168A1183120313DB
:102C2200B101C12D0A128A110E28DA01A42E5A0806
:102C32000A168A119A210A168A11D9005908D33E16
:102C420084008317000ED600D60C560C0139D7002B
:102C52005908D33E8400000ED800580C013957069B
:102C62000319342E352E4B2E5908D33E8400801A78
:102C72003B2E3C2E412E5908D33E84000013452E94
:102C82005908D33E840000175A08BD3E8400F03034
:102C9200831380055908D33E84008317801A522E6D
:102CA200532E7A2E5A08BD3E84008313001E5A2EDC
:102CB2005B2E662E5A08BD3E840000081F3940383C
:102CC20080005A08BD3E840000125A08BD3E8400AE
:102CD200000ED600560C0739033A031D712E722ED0
:102CE200A32E5A08BD3E840000081F3920388000F8
:102CF200A32E5A08BD3E8400831300080F39D60064
:102D0200063056020318862E872E982E5A08BD3E8C
:102D1200840000080F39D600D60A00085606F0399A
:102D2200560680005A08BD3E84000016A32E5A089B
:102D3200BD3E840000081F39603880005A08BD3E3D
:102D420084000012DA0A42085A02031CA92EAA2E93
:102D5200182E080083120313E800E30146086802F4
:102D62000318B42EB52EBB2E0D306802031CBA2EEA
:102D7200BB2EBD2E00304F2F62086104031DC22EF0
:102D8200C32ECC2E0310680DA03E84008317800151
:102D9200840A80014E2F0310680DA03E8400831721
:102DA2000008840A00040319D72ED82EF22E03102D
:102DB200680DA03E840001308002840F0030031CA5
:102DC2008003800284030310680DA03E8400000883
:102DD200840A0004031DEE2EEF2E4E2FE301E30AB8
:102DE2004E2F6808B03E840083130008D400D5013A
:102DF2003C30D600D7010A168A1175200A168A11AC
:102E02005408E4005508E5000030E51BFF30E600F9
:102E1200E7000030D7000030D6000330D500E230A2
:102E2200D4006708DB006608DA006508D900640888
:102E3200D8000A168A11D1210A168A115708E7000A
:102E42005608E6005508E5005408E4000030D700B3
:102E52000030D6000330D500E830D4006708DB002C
:102E62006608DA006508D9006408D8000A168A11D3
:102E72000E230A168A115708E7005608E60055087D
:102E8200E5005408E4000310680DA03E84006408C5
:102E920083178000840A6508800063080800D50152
:102EA2005508D40001300310D40DFF3E031D542FEA
:102EB2000310540DA23E84000008F8390138800046
:102EC2005508D40001300310D40DFF3E031D642FBA
:102ED2000310540DA03E840080015508D400013037
:102EE2000310D40DFF3E031D712F0310540DA13E9C
:102EF200840080015508D40001300310D40DFF3E38
:102F0200031D7E2F0310540DA23E8400801155082C
:102F1200D40001300310D40DFF3E031D8B2F03108C
:102F2200540DA23E840000125508D4000130031053
:102F3200D40DFF3E031D982F0310540DA23E8400B2
:102F42001F3080055508D40001300310D40DFF3E18
:102F5200031DA62F0310540DA33E84000010D50AB2
:102F620004305502031CB62FB72F512FD501550837
:102F7200BD3E8400F03080055508BD3E840000123D
:102F82005508BD3E84001F308005D50A0C3055021D
:102F9200031CCC2FCD2FB82FD5015508C93E840074
:102FA200831300145508C93E840080105508203E42
:102FB200840083178001D50A0C305502031CE22FCE
:102FC200E32FCE2FD501550855075507D53E84006E
:102FD20083138001550855075507D73E84008001A9
:102FE200D50A04305502031CF72FF82FE42FBA013B
:0E2FF200B401B501B601B701B801B90108007C
:103F9600FD0183120313B00183160317BA0108004B
:103FA600D400D501D92F0630D500DE2F5408003AAB
:103FB6000319D62FDE2F550808000A128A1500208D
:103FC6000A168A150A128A11AE250A168A150A16C3
:103FD6008A1116260A168A1508000A168A1135212C
:103FE6000A168A150A168A110B220A168A150A1249
:0A3FF6008A1550200A168A150800EB
:02400E00F2FFBF
:00000001FF
