:100000000A128A1112280534FE00030EF8000408B3
:10001000F9000A08FA00831203137F08FB000A168E
:100020008A15352C0A168A155A2B83120313ED01F3
:100030006E286D0AE6000130E7000030E800232852
:100040000310E70DE80DE60B20286708E9006808B3
:10005000EA00690883160313560583120313E600AA
:100060006A0883160313570583120313E700670812
:10007000660403193C283D2843286908B4066A0829
:10008000B506432843283B08013A031D4828492860
:10009000672834086905E6006608E0006D080A165E
:1000A0008A158C270A128A11013A031D58285928EB
:1000B0006728831203136A08E7006908E600E60967
:1000C000E7096608B4056708B505672867280130A1
:1000D00083120313E6006608ED076E2852086D02CE
:1000E000031C732874281928ED013B2A6D08E600CB
:1000F0006607E7006708EC006C08013EE60066084A
:10010000EB00AD28982898289828872887286C081D
:10011000B63E8400831300081F39203880006B0826
:10012000B63E840000081F39203880006429642905
:100130006B08B63E84008313000EE600660C073998
:10014000023A03198728013A03198728073A031945
:10015000872864296429642964296C08B63E8400D0
:100160008313000EE600660C0739023A031998283B
:10017000013A03199828073A031998286429642931
:100180006C08203E84008018C628C728E8286B0821
:10019000203E8400801CCD28CE28D3286B08203E2A
:1001A00084008010D328DA016D080A168A154C26BF
:1001B0000A128A11DB28831203136C08203E840084
:1001C000831380146C08B63E84001F3080051D2AFE
:1001D000DA01DA0A6D080A168A154C260A128A1103
:1001E000F128831203136C08203E840083138010CF
:1001F0006C08B63E84001F3080051D2A1D2ADA01D6
:10020000DA0A6D080A168A154C260A128A1108297C
:10021000831203136C08203E8400831380146B0840
:10022000203E840080101D2ADA01DA0A6D080A16C1
:100230008A154C260A128A111D29831203136C0891
:10024000203E8400831380106C08B63E84001F306B
:1002500080051D2A6B08203E8400801C302931292E
:1002600036296B08203E840080103629DA016D089B
:100270000A168A154C260A128A113E298312031384
:100280006C08203E8400831380146C08B63E840002
:100290001F3080051D2A0230E6006608DA006D086E
:1002A0000A168A154C260A128A11013A031D592989
:1002B0005A291D2A831203136C08203E84008313DD
:1002C00080101D2A1D2A1D2A6C08B63E8400000ECF
:1002D000E600660C0739013A03191429033A031999
:1002E000C028013A0319FF28073A03192A294B2984
:1002F0001D2A6B08203E840080187F298029A129AF
:100300006C08203E8400801C862987298C296C0873
:10031000203E840080108C29DA016D080A168A15A7
:100320004C260A128A119429831203136B08203E6B
:100330008400831380146B08B63E84001F30800550
:10034000342ADA01DA0A6D080A168A154C260A12CE
:100350008A11AA29831203136B08203E8400831399
:1003600080106B08B63E84001F308005342A342A82
:10037000DA01DA0A6D080A168A154C260A128A1161
:10038000C129831203136B08203E84008313801459
:100390006C08203E84008010342ADA01DA0A6D08E5
:1003A0000A168A154C260A128A11D62983120313BB
:1003B0006B08203E8400831380106B08B63E8400D7
:1003C0001F308005342A6C08203E8400801CE929F7
:1003D000EA29EF296C08203E84008010EF29DA0119
:1003E0006D080A168A154C260A128A11F7298312FB
:1003F00003136B08203E8400831380146B08B63E01
:1004000084001F308005342A0230E6006608DA00D6
:100410006D080A168A154C260A128A11013A031D24
:10042000122A132A342A831203136B08203E8400F5
:1004300083138010342A342A342A831203136B085E
:10044000B63E84008313000EE600660C0739013ABD
:100450000319CD29033A03197929013A0319B82957
:10046000073A0319E329042A013083120313E60033
:100470006608ED073B2A54086D02031C402A412AF6
:100480007628ED01C12C832C9F2C6D08E6000130ED
:100490000310E60DFF3E031D482A0310660DD83EEB
:1004A00084008313800103146D0D2C3E84008012A0
:1004B00003146D0D2C3E8400E33080059F2C6D08E5
:1004C000E60066072C3E840000080739023A03194B
:1004D0006A2A6B2A782A6D08E60066072C3E84009B
:1004E000000807390038031D762A772A892A782AD6
:1004F0006430E6006D08E70001300310E70DFF3EB1
:10050000031D7D2A0310670D013ED83E8400660856
:1005100080006D08E60001300310E60DFF3E031D6C
:100520008C2A0310660D013ED83E84000008803AF4
:100530007F3E03189C2A9D2AAE2A6430E6006D088F
:10054000E70001300310E70DFF3E031DA22A031050
:10055000670D013ED83E8400660880006D08E60005
:1005600001300310E60DFF3E031DB12A0310660D96
:10057000013ED83E84000008E7006D08E800013025
:100580000310E80DFF3E031DC02A0310680DD83E7E
:1005900084006708800003146D0D2C3E84008012D7
:1005A00003146D0D2C3E8400E33080059F2C6D08F4
:1005B000E60066072C3E840000080739023A03195A
:1005C000E22AE32AF02A6D08E60066072C3E840042
:1005D000000807390038031DEE2AEF2A012BF02A04
:1005E0006430E6006D08E70001300310E70DFF3EC0
:1005F000031DF52A0310670D013ED83E84006608EE
:1006000080006D08E60001300310E60DFF3E031D7B
:10061000042B0310660DD83E84000008803A7F3E0C
:10062000031C132B142B272B6D08E600013003103D
:10063000E60DFF3E031D172B0310660DD83E840008
:10064000800103146D0D2C3E840080126E2B6D080A
:10065000E60001300310E60DFF3E031D2A2B0310B8
:10066000660D013ED83E84000008803A7F3E0318A4
:100670003A2B3B2B4C2B6430E6006D08E700013031
:100680000310E70DFF3E031D402B0310670D013ED5
:10069000D83E8400660880006D08E6000130031033
:1006A000E60DFF3E031D4F2B0310660D013ED83EA5
:1006B00084000008E7006D08E80001300310E80D31
:1006C000FF3E031D5E2B0310680DD83E84006708B3
:1006D000800003146D0D2C3E8400801203146D0DF8
:1006E0002C3E8400E33080059F2C6430E6006D08CA
:1006F000E70001300310E70DFF3E031D7A2B0310C6
:10070000670DD83E84006608800003146D0D2C3EF2
:100710008400801603146D0D2C3E8400E3308005A8
:100720009F2C0130E6006608C40704304402031C15
:100730009A2B9B2B9F2CC40103146D0D2C3E84001F
:10074000801AA32BA42BFD2B6D08E60001300310AB
:10075000E60DFF3E031DA72B0310660DD83E840057
:100760000008803A1E3E0318B62BB72BC82B023068
:10077000E6006D08E70001300310E70DFF3E031DA2
:10078000BC2B0310670DD83E840066088007D82B69
:100790006430E6006D08E70001300310E70DFF3E0E
:1007A000031DCD2B0310670DD83E84006608800022
:1007B0006D08E60001300310E60DFF3E031DDB2B44
:1007C0000310660DD83E84000008803A763E031878
:1007D000EA2BEB2B4F2C0A30E6006D08E7000130C6
:1007E0000310E70DFF3E031DF02B0310670DD83EED
:1007F0008400660880004F2C4F2C6D08E600013005
:100800000310E60DFF3E031D002C0310660DD83EBD
:1008100084000008803A7D3E031C0F2C102C212CF4
:10082000FE30E6006D08E70001300310E70DFF3EE3
:10083000031D152C0310670DD83E84006608800741
:100840002E2C6D08E60001300310E60DFF3E031D5F
:10085000242C0310660DD83E840080016D08E6004C
:1008600001300310E60DFF3E031D312C0310660D11
:10087000D83E84000008803A763E0318402C412C74
:100880004F2C6D08E60001300310E60DFF3E031DFE
:10089000442C0310660DD83E840080014F2C6D0857
:1008A000E60001300310E60DFF3E031D522C03103D
:1008B000660DD83E84000008803A753E031C612C0A
:1008C000622C9F2C6D08E60001300310E60DFF3E00
:1008D000031D652C0310660DD83E84000008E70058
:1008E0006D08E80001300310E80DFF3E031D732C76
:1008F0000310680D013ED83E8400670880009F2CDD
:100900009F2C9F2C9F2C03146D0D2C3E8400831371
:10091000000CE600660C0739003A03199F2C013AD7
:100920000319452A033A03195F2A013A0319D72A02
:10093000073A0319752B013A0319912B9F2C6D0867
:10094000E60066072C3E8400831300080739E700A1
:100950006708DA006D08E80001300310E80DFF3E7B
:10096000031DAD2C0310680DD83E0A168A15BF234F
:100970000A128A11013083120313E6006608ED079C
:10098000C12C53086D02031CC62CC72C832CC82C09
:1009900008000E3083120313E7000030E800E40182
:1009A000E50167080A168A1509230A128A118312BB
:1009B0000313E100E2016108E4006208E500013090
:1009C000E7070318E80A0030E80767080A168A15DF
:1009D00009230A128A1183120313E100E20161085C
:1009E000E200E1016108E4046208E5040130E70780
:1009F0000318E80A0030E807AA306506031D022D37
:100A000055306406031D052D062D032E67080A16B2
:100A10008A1509230A128A1183120313E100E201E5
:100A20006108B4006208B5000130E7070318E80A5E
:100A30000030E80767080A168A1509230A128A1186
:100A400083120313E100E2016108E200E1016108A1
:100A5000B4046208B5040130E7070318E80A00305F
:100A6000E807E601922D67080A168A1509230A127B
:100A70008A1183120313E1006608E20001300310BB
:100A8000E20DFF3E031D3F2D0310620DD83E840092
:100A90006108831380000130E7070318E80A00307B
:100AA000E80767080A168A1509230A128A118312B1
:100AB0000313E1006608E20001300310E20DFF3E7F
:100AC000031D5D2D0310620D013ED83E84006108B8
:100AD000831380000130E7070318E80A0030E807B5
:100AE00067080A168A1509230A128A11831203134A
:100AF000E10007306105E2006608E30063072C3E71
:100B00008400831300086206F83962068000013011
:100B1000E7070318E80A0030E8070130E100610840
:100B2000E607922D53086602031C972D982D332D4E
:100B3000992D2A30E7000030E800E6010630660211
:100B4000031CA32DA42DA62DC62DC62D67080A169D
:100B50008A1509230A128A1183120313E100660819
:100B6000CA3E84006108831380000130E707031840
:100B7000E80A0030E8070130E1006108E6070630C6
:100B80006602031CC42DC52DA62DC62D3230E700EC
:100B90000030E800E6010D306602031CD02DD12D97
:100BA000D32DF32DF32D67080A168A1509230A128F
:100BB0008A1183120313E1006608CE3E84006108A7
:100BC000831780000130E7070318E80A0030E807C0
:100BD0000130E1006108E6070D306602031CF12DCB
:100BE000F22DD32DF32D4230E7000030E8006708E6
:100BF0000A168A1509230A128A1183120313E100C7
:100C00006108D600332FDE0167080A168A15FA2319
:100C10000A128A11013083120313E7070318E80A46
:100C20000030E807DE0167080A168A15FA230A125F
:100C30008A11013083120313E7070318E80A003012
:100C4000E807B401B501E6017E2EDE0167080A1649
:100C50008A15FA230A128A11013083120313E70757
:100C60000318E80A0030E807DE0167080A168A154B
:100C7000FA230A128A11013083120313E7070318BB
:100C8000E80A0030E8076608E10001300310E10DD2
:100C9000FF3E031D462E0310610DD83E84008313D2
:100CA00080016608E10001300310E10DFF3E031DE5
:100CB000542E0310610D013ED83E84008001DE01F8
:100CC000DE0A67080A168A15FA230A128A11013009
:100CD00083120313E7070318E80A0030E8076608E1
:100CE000E10061072C3E840083130008F8390138C5
:100CF00080000130E1006108E6077E2E530866029D
:100D0000031C832E842E252E852E2A30E7000030EA
:100D1000E800E60106306602031C8F2E902E922E0C
:100D2000B72EB72E7830E1006108DE0067080A169A
:100D30008A15FA230A128A11013083120313E70776
:100D40000318E80A0030E8077830E1006608CA3E78
:100D500084006108831380000130E1006108E60728
:100D600006306602031CB52EB62E922EB72E3230F8
:100D7000E7000030E800E6010D306602031CC12EDA
:100D8000C22EC42EE32EE32EDE0167080A168A1552
:100D9000FA230A128A11013083120313E70703189A
:100DA000E80A0030E8076608CE3E84008317800119
:100DB0000130E1006108E6070D306602031CE12EF8
:100DC000E22EC42EE32E4230E7000030E800D601C8
:100DD0005608E1006108DE0067080A168A15FA2342
:100DE0000A128A11013083120313E7070318E80A75
:100DF0000030E8070D30E7000030E800DE01DE0AD1
:100E000067080A168A15FA230A128A11013083121A
:100E10000313E7070318E80A0030E8075530E1003C
:100E20006108DE0067080A168A15FA230A128A1179
:100E3000013083120313E7070318E80A0030E807BC
:100E4000AA30E1006108DE0067080A168A15FA2355
:100E50000A128A11013083120313E7070318E80A04
:100E60000030E807332F080083120313E101E82F55
:100E700061080A168A15B2240A128A118312031312
:100E8000DD005D08E0006008A03E84008313000ED2
:100E9000DD00DD0C5D0C0139DE006008A03E840041
:100EA000000EDF005F0C01395E060319582F592F21
:100EB0006E2F6008A03E8400801A5F2F602F652F80
:100EC0006008A03E84000013692F6008A03E8400E3
:100ED00000176108B63E8400F03080056008A03E2F
:100EE0008400801A742F752FB92F6108B63E8400D4
:100EF00000080F39DD0006305D020318802F812FB6
:100F00008E2F6108B63E840000080F39DD00DD0A2F
:100F100000085D06F0395D068000922F6108B63E3C
:100F2000840000126108B63E8400001E982F992F9D
:100F3000A42F6108B63E840000081F3940388000A5
:100F40006108B63E840000126108B63E8400000EBF
:100F5000DD005D0C0739033A031DAF2FB02FE32FDF
:100F60006108B63E840000081F3920388000E32F56
:100F7000E32F6108B63E840000080F39DD0006301B
:100F80005D020318C42FC52FD62F6108B63E84001A
:100F900000080F39DD00DD0A00085D06F0395D0646
:100FA00080006108B63E84000016E32F6108B63E5B
:100FB000840000081F39603880006108B63E840054
:100FC0000012E32FE32F0130DD005D08E107E82F79
:100FD0004D086102031CED2FEE2F382FEF2F080074
:100FE0000A168A1129200A128A110A128A156A2001
:100FF0000A128A110A128A1134270A128A11080069
:1010040064008001840A04060319003404060328DA
:1010140083120313DE0162285E080A168A11122461
:101024000A128A1583120313DC005C08DD005E08D3
:10103400A03E84008313000801395D0603192328A8
:10104400242831285E08A03E84005D080010031D9A
:1010540000145E08A03E8400E13080055B285E0831
:10106400A03E8400000C0F39DC0004305C0203183D
:101074003C283D284B285E08A03E8400000C0F3914
:10108400DC00DC0ADC0D00085C06E1395C0680004B
:101094005B285E08A03E84000018542857285E0888
:1010A400A03E8400831380165928831380125B2882
:1010B4005B28013083120313DC005C08DE0762281E
:1010C40050085E02031C672868280E286928080057
:1010D40083120313E101F22961080A168A15B92261
:1010E4000A128A1583120313DD005D08E000DB2970
:1010F4007B286008A03E84008313000EDD00DD0C15
:101104005D0C0139DE006008A03E8400000EDF00A3
:101114005F0C01395E06031990289128ED296008B7
:10112400A03E8400801A972898289D286008A03E35
:1011340084000013ED296008A03E84000017031406
:10114400610D2C3E84000008E3390C388000ED2941
:10115400ED29ED296008A03E8400000EDD00DD0CC1
:101164005D0C0139DE006008A03E8400000EDF0043
:101174005F0C01395E060319C028C128D82860080D
:10118400A03E8400801AC728C828CD286008A03E45
:1011940084000013D1286008A03E84000017610871
:1011A400DD005D072C3E8400873080056008A03E8A
:1011B4008400801ADE28DF2885296108DD005D07A8
:1011C4002C3E8400000CDE00DE0C5E0C0F39DF00C8
:1011D40006305F020318EF28F02814296108DD00A7
:1011E4005D072C3E8400000CDE00DE0C5E0C0F3923
:1011F400DE00DE0ADE0DDE0DDE0D00085E06873938
:101204005E0680006108DD005D072C3E8400801FBF
:101214000C290D2924290314610D2C3E840000148B
:10122400242924296108DD005D072C3E84008013F5
:101234000314610D2C3E840000100314610D2C3E38
:10124400840080106108DD005D072C3E8400801F4F
:101254002C292D293B290314610D2C3E8400000800
:10126400E3390C3880006108DD005D072C3E840002
:1012740080130314610D2C3E8400801C42294329F1
:101284005B290314610D2C3E84000008E3391038F7
:1012940080006108DD005D072C3E84008013031488
:1012A400610D2C3E840000100314610D2C3E84005B
:1012B40080100314610D2C3E8400000CDD005D0CD5
:1012C4000739053A031D67296829ED290314610DBF
:1012D4002C3E8400E33080050314610D2C3E840011
:1012E400000EDD005D0C0139013ADE000314610DCE
:1012F4002C3E8400DE0EDE0D00085E06DF395E063D
:101304008000ED29ED296108DD005D072C3E840095
:10131400000CDE00DE0C5E0C0F39DF0006305F02CD
:10132400031895299629BF296108DD005D072C3E25
:101334008400000CDE00DE0C5E0C0F39DE00DE0AD9
:10134400DE0DDE0DDE0D00085E0687395E068000C8
:101354006108DD005D072C3E840080170314610DD5
:101364002C3E8400001CB729B829ED290314610D13
:101374002C3E84008014ED29ED290314610D2C3ECC
:1013840084000008E339143880006108DD005D073B
:101394002C3E840080130314610D2C3E8400001045
:1013A4000314610D2C3E84008010ED29ED29ED29F4
:1013B400ED296108DD005D072C3E840083130008DD
:1013C4000739003A03197B28013A0319AC28033A78
:1013D40003197B28ED290130DD005D08E107F229BE
:1013E4004C086102031CF729F8296E28F929080022
:1013F40083120313DD00AE2B9C2A5B08031D032A12
:10140400052ABD14BF2BFD30DC005C08BD05BF2BD5
:10141400BF2B5B08031D0F2A112A3D15BF2BFB3080
:10142400DC005C08BD05BF2BBF2B5B08031D1B2A1A
:101434001D2A4015BF2BFB30DC005C08C005BF2B08
:10144400BF2B5B08031D272A292AC117BF2B7F3016
:10145400DC005C08C105BF2BBF2B5B08031D332ACE
:10146400352A4117BF2BBF30DC005C08C105BF2BF8
:10147400BF2B5B08031D3F2A412AC116BF2BDF3057
:10148400DC005C08C105BF2BBF2B5B08031D4B2A86
:101494004D2A4116BF2BEF30DC005C08C105BF2B81
:1014A400BF2B5B08031D572A592ABC16BF2BDF30FC
:1014B400DC005C08BC05BF2BBF2B5B08031D632A43
:1014C400652A3C16BF2BEF30DC005C08BC05BF2B43
:1014D400BF2B5B08031D6F2A712ABC15BF2BF73085
:1014E400DC005C08BC05BF2BBF2B5B08031D7B2AFB
:1014F4007D2A3C15BF2BFB30DC005C08BC05BF2BF0
:10150400BF2B5B08031D872A892ABC14BF2BFD301F
:10151400DC005C08BC05BF2BBF2B5B08031D932AB2
:10152400952A3C14BF2BFE30DC005C08BC05BF2BA5
:10153400BF2BBF2B5A08003A0319FF29013A03199C
:101544000B2A033A0319172A013A0319232A073AE3
:1015540003192F2A013A03193B2A033A0319472A8C
:10156400013A0319532A0F3A03195F2A013A03195E
:101574006B2A033A0319772A013A0319832A073A93
:1015840003198F2ABF2BBF2BCF2AFD30DC005C0848
:10159400BF05BF2BBF14BF2BBF2B5A08003A03193A
:1015A400C72A013A0319CC2ABF2BBF2B4E2B5B0849
:1015B400031DDD2ADF2ABD15BF2BF730DC005C08D4
:1015C400BD05BF2BBF2B5B08031DE92AEB2A3D1683
:1015D400BF2BEF30DC005C08BD05BF2BBF2B5B08C5
:1015E400031DF52AF72ABD16BF2BDF30DC005C088B
:1015F400BD05BF2BBF2B5B08031D012B032BC014A0
:10160400BF2BFD30DC005C08C005BF2BBF2B5B0883
:10161400031D0D2B0F2B4016BF2BEF30DC005C0895
:10162400C005BF2BBF2B5B08031D192B1B2BC0163A
:10163400BF2BDF30DC005C08C005BF2BBF2B5B0871
:10164400031D252B272BC017BF2B7F30DC005C0824
:10165400C005BF2BBF2B5B08031D312B332B401759
:10166400BF2BBF30DC005C08C005BF2BBF2BBF2BDA
:10167400BF2BBF2BBF2BBF2BBF2BBF2BBF2BBF2B16
:10168400BF2BBF2BBF2BBF2BBF2BBF2BBF2BBF2B06
:10169400BF2BBF2BBF2BBF2B5A08003A0319D92AE3
:1016A400013A0319E52A033A0319F12A013A031905
:1016B400FD2A073A0319092B013A0319152B033A9A
:1016C4000319212B013A03192D2B0F3A0319BF2BB0
:1016D400013A0319BF2B033A0319BF2B013A03192B
:1016E400BF2BBF2BBF2B922B5B08031D7A2B7C2BAC
:1016F4004014BF2BFE30DC005C08C005BF2BBF2BA1
:10170400BF2BBF2BBF2BBF2BBF2BBF2BBF2BBF2B85
:10171400BF2BBF2BBF2BBF2BBF2BBF2BBF2BBF2B75
:101724005A08003A0319762B013A0319BF2B033ADE
:101734000319BF2B013A0319BF2BBF2BBF2B5B0827
:10174400031DA52BA72BBF15BF2BF730DC005C08AE
:10175400BF05BF2BBF2BBF2B5D08003A03199C2A82
:10176400013A0319CF2A033A03194E2B013A0319FC
:10177400922B073A0319A12BBF2B3C0885003D0887
:1017840086003E0887003F08880040088900410819
:10179400831603178800080083120313E401B72D8E
:1017A4006408E10001300310E10DFF3E031DD52B59
:1017B4000310610D033ED83E84008313800803198F
:1017C400E42BE52BB22D6408E10001300310E10D98
:1017D400FF3E031DE82B0310610D033ED83E840039
:1017E4000008E2006408E30001300310E30DFF3E4B
:1017F400031DF72B0310630D023ED83E84006208DC
:1018040080076408E10001300310E10DFF3E031D71
:10181400062C0310610D033ED83E84000008803A74
:101824007F3E031C162C172C672C6408E100013042
:101834000310E10DFF3E031D1A2C0310610D023E3F
:10184400D83E84000008803AE2006408E3000130D6
:101854000310E30DFF3E031D2A2C0310630DD83E35
:1018640084000008803AE202031C392C3A2CB62C7E
:101874006408E10001300310E10DFF3E031D3D2C1F
:101884000310610DD83E84000008E2006408E30000
:1018940001300310E30DFF3E031D4B2C0310630DB9
:1018A400023ED83E8400620880006408E1000130F2
:1018B4000310E10DFF3E031D5A2C0310610D033E7E
:1018C400D83E84008001B62CB62C6408E1000130B7
:1018D4000310E10DFF3E031D6A2C0310610DD83E79
:1018E40084000008803AE2006408E3000130031039
:1018F400E30DFF3E031D792C0310630D023ED83E19
:1019040084000008803AE202031C892C8A2CB62C3D
:101914006408E10001300310E10DFF3E031D8D2C2E
:101924000310610DD83E84000008E2006408E3005F
:1019340001300310E30DFF3E031D9B2C0310630DC8
:10194400023ED83E8400620880006408E100013051
:101954000310E10DFF3E031DAA2C0310610D033E8D
:10196400D83E84008001B62C6408E10001300310E5
:10197400E10DFF3E031DB92C0310610D023ED83E5C
:1019840084000008803A1B3E031CC92CCA2CDB2CA3
:101994006430E1006408E20001300310E20DFF3E10
:1019A400031DCF2C0310620D023ED83E8400610853
:1019B40080006408E10001300310E10DFF3E031DC7
:1019C400DE2C0310610D023ED83E8400801FEB2CF8
:1019D400EC2CFB2C6408E10001300310E10DFF3E08
:1019E400031DEF2C0310610D023ED83E84008001DC
:1019F400FB2C4219FE2CFF2C9F2D622D622D6408B6
:101A0400E10001300310E10DFF3E031D042D03101E
:101A1400610D023ED83E84000008803A6C3E0318F3
:101A2400142D152D292D6B300A168A1104200A1243
:101A34008A15831203136408E1006107C23E84001F
:101A44005A0883138000840A5B088000B22D6A3030
:101A54000A168A1104200A128A15831203136408D1
:101A6400E1006107C23E84005A0883138000840A9F
:101A74005B088000B22DB22D3F2D6408E1000130D7
:101A84000310E10DFF3E031D422D0310610D023EC4
:101A9400D83E840000086E3E0A168A1104200A12F9
:101AA4008A15831203136408E2006207C23E8400AD
:101AB4005A0883138000840A5B088000B22DB22D7B
:101AC4006408E10061072C3E840000080739003AED
:101AD40003193F2D013A03193F2D033A0319012D30
:101AE400B22DB22D9F2D6A300A168A1104200A12D3
:101AF4008A15831203136408E1006107C23E84005F
:101B04005A0883138000840A5B088000B22D8A2D52
:101B1400D2300A168A1104200A128A15831203137A
:101B24006408E1006107C23E84005A088313800000
:101B3400840A5B088000B22DB22D6408E1006107BD
:101B44002C3E840000080739003A03198A2D013A13
:101B540003198A2D033A0319752DB22DB22DB22D16
:101B64000130E1006108E407B72D53086402031C47
:101B7400BC2DBD2DD22BBE2D0800831603173A08A9
:101B8400031DC52D9B2F892F892F3C088312031316
:101B9400B404831603173E0883120313B504831693
:101BA40003173D0883120313E800831603173B0849
:101BB40083120313E700E709E8096708B405680816
:101BC400B505EC01EB01EB0A04306C02031CEB2DB0
:101BD400EC2DEE2D262E262E831603174008831295
:101BE40003136B050319F72DF82D022E03146C0D46
:101BF4002C3E840083130008E33908388000022E49
:101C0400831603173F08831203136B0503190B2E66
:101C14000C2E162E03146C0D2C3E84008313000826
:101C2400E33904388000162E0130E7006708EC071A
:101C34006B08E7006707E8006808EB0004306C02F3
:101C4400031C252E262EEE2DEC01EB01EB0A0630AB
:101C54006C02031C2E2E2F2E312E732E732E6C0825
:101C6400E7006707E8006808EA006A08013EE70041
:101C74006708E900831603174108831203136B05F1
:101C84000319452E462E4F2E6A08B63E8400831350
:101C940000081F3980388000632E8316031742081A
:101CA400831203136B050319582E592E632E6908EA
:101CB400B63E8400831300081F3980388000632EE9
:101CC400632E0130E7006708EC076B08E70067073D
:101CD400E8006808EB0006306C02031C722E732EB9
:101CE400312E83160317BA019B2F83120313EC01C1
:101CF40004306C02031C7F2E802E822ECF2ECF2E1A
:101D04006C08E70067072C3E84008313000807393A
:101D1400E8006C08013EBA3E8400831700080739C6
:101D240068060319962E972EC32E6C08013EBA3E00
:101D3400840007300005E7006C08E80068072C3EC3
:101D44008400831300086706F839670680006C086E
:101D5400013EBA3E840083170008E7006708DE00EE
:101D64000330E8006808DA006C080A168A15CC22E9
:101D74000A128A15143E0A168A15FA230A128A15BB
:101D8400C32E013083120313E7006708EC07043005
:101D94006C02031CCE2ECF2E822E83160317BA019B
:101DA4009B2F83120313EC010D306C02031CDB2EFA
:101DB400DC2EDE2E142F142F6C08013EBA3E840054
:101DC40083170008E7006C08CE3E8400000867060D
:101DD4000319ED2EEE2E082F6C08013EBA3E840046
:101DE4000008E7006C08CE3E8400670880006C0899
:101DF400CE3E84000008E7006708DE006C08323E2F
:101E04000A168A15FA230A128A15082F013083123A
:101E14000313E7006708EC070D306C02031C132F53
:101E2400142FDE2E83160317BA019B2F831203137C
:101E3400EC0106306C02031C202F212F232F5C2F72
:101E44005C2F6C08013EBA3E840083170008E7004B
:101E54006C08CA3E84008313000867060319332FF5
:101E6400342F502F6C08013EBA3E840083170008BB
:101E7400E7006C08CA3E84006708831380006C087E
:101E8400CA3E84000008E7006708DE006C082A3EAA
:101E94000A168A15FA230A128A15502F0130831262
:101EA4000313E7006708EC0706306C02031C5B2F82
:101EB4005C2F232F83160317BA019B2F831203135E
:101EC4004218652F662F792F831603173B08831258
:101ED4000313E7006708C200421C712F722F822F80
:101EE4000A168A11AC200A128A15822F822F8316B1
:101EF40003173B0883120313E7006708C200822F0D
:101F040083160317BA019B2FBA019B2F9B2F3A0804
:101F1400013A0319C72D033A0319772E013A03191D
:101F2400D32E073A0319182F013A0319602F862F6D
:101F34009B2F831203133B08013A031DA22FA32FE7
:101F4400AE2F4F08031DA72FAB2F59120130CF021C
:101F5400AE2F5916AE2FAE2FD908031DB22FB32FB3
:101F6400C62F143049020318B82FB92FC22FF730E7
:101F7400E7006708BF050130E7006708C907FF2FBE
:101F8400BF15C901FF2FFF2F591EC92FCA2FE42FD8
:101F9400143049020318CF2FD02FD52FF730E70084
:101FA4006708BF05D72FBF15D72F0130E700670893
:101FB400C90728304902031CE02FE12FFF2FC90174
:101FC400FF2FFF2F0A3049020318E92FEA2FEF2FC2
:101FD400F730E7006708BF05F12FBF15F12F013077
:101FE400E7006708C90714304902031CFA2FFB2FC6
:0C1FF400FF2FC901FF2FFF2FFF2F080057
:1020080083120313DE005E08DC00DD010130FF00EF
:102018000310DC0DDD0DFF0B0C285C08143EDF00FF
:102028005D080318013E003EE000FE30DF05013088
:10203800E0050030DF040630E0046008DB01DB0760
:102048005F08DA01DA072828080083120313E2017F
:10205800A428620ADD000130DE000030DF003728E6
:102068000310DE0DDF0DDD0B34285E08E0005F088D
:10207800E10062080A168A15AB260A168A1183122D
:102088000313DD005D08E3006308A03E84008313AA
:10209800000EDD00DD0C5D0C0139DE006308A03E9A
:1020A8008400000EDF005F0C01395E0603195D280D
:1020B8005E288B286308A03E8400801A642865285F
:1020C8007A286308A03E840000136108DE006008D7
:1020D800DD00DD09DE095D0883160313D6058312CA
:1020E80003135E0883160313D7059D28831263081C
:1020F800A03E84000017600883160313D6048312D9
:102108000313610883160313D7049D289D2883129F
:102118006108DE006008DD00DD09DE095D08831660
:102128000313D605831203135E0883160313D7051A
:102138009D28013083120313DD005D08E207A428FF
:102148004B086202031CA928AA282D28AB280800DE
:10215800103083120313E5000030E6003408E10074
:102168006108E3006308E1006108DE0065080A16FB
:102178008A15FA230A168A11013083120313E50718
:102188000318E60A0030E6073508E1006108E300B5
:102198006308E1006108DE0065080A168A15FA235B
:1021A8000A168A11013083120313E5070318E60A99
:1021B8000030E607E4012A296408E1000130031031
:1021C800E10DFF3E031DE3280310610DD83E840096
:1021D80083130008E2006208DE0065080A168A1503
:1021E800FA230A168A11013083120313E50703182C
:1021F800E60A0030E6076408E10001300310E10D4B
:10220800FF3E031D02290310610D013ED83E8400E4
:1022180083130008E2006208DE0065080A168A15C2
:10222800FA230A168A11013083120313E5070318EB
:10223800E60A0030E6070130E5070318E60A003031
:10224800E6070130E1006108E4072A29530864021F
:10225800031C2F293029E02831294230E5000030BD
:10226800E60065080A168A1509230A168A11013E2E
:1022780083120313E1006108D5005508FF3A031DD6
:10228800462947294A29D501D50A4A295508E1008E
:102298006108DE0065080A168A15FA230A168A11EB
:1022A80008000A168A1107230A168A110A168A11C3
:1022B80043250A168A110A168A1597220A168A11C0
:1022C8000A168A1519270A168A110A168A158A23E0
:1022D8000A168A110A128A11C9240A168A110A16BC
:1022E8008A159B250A168A118B170B178729FB302D
:1022F80083120313EE006E088316031388058312F6
:1023080003138C108729831203138C188C298D29A9
:102318007B298F298F290A168A1519270A168A11E7
:102328000C30831203134502031C9B299C29C429E2
:102338000C30C50265304502031CA329A429A6292F
:10234800C501A6290130EE006E08C8070A128A15D1
:102358000A200A168A11831203134708031DB52998
:10236800C4290130C702C708031DBB29BC29C429D9
:102378000A168A15E6220A168A11C429C429C4290C
:102388003C30831203134A02031CCB29CC29DC29D5
:102398003C30CA0265304A02031CD329D429D62905
:1023A800CA01D6290A128A15CE230A168A11DC29EF
:1023B8000830831203134802031CE329E4298F29F8
:1023C800C8010130EE006E08C60719304602031C2A
:1023D800EE29EF29F329C601BB01BB0AF3290A122A
:1023E8008A11F0270A168A110A128A1115200A166C
:1023F8008A110A128A15BF250A168A110A168A1521
:10240800A2220A168A1183120313BB018F298F296E
:102418008F290A128A11122883120313C21C152A43
:10242800162A182A062B062B05306F0203181D2AB8
:102438001E2A232A0130E0006008EF07232AE10161
:10244800FF2A05306F02031C2A2A2B2AF82A610862
:10245800203E84008313000C0139E0006108203E0F
:10246800840000080139600603193B2A3C2AF82A2F
:1024780061183F2A402A8B2A6108203E8400801C6C
:10248800462A472A8B2A6108013E203E8400001C08
:102498004E2A4F2A6F2A6108013E203E8400801090
:1024A8006108013E203E840080185F2A622A610884
:1024B800013E203E840083130014642A8313001015
:1024C80083120313EF016108013E0A168A154B2592
:1024D8000A168A11062B831203136108203E840012
:1024E800831380187B2A7E2A6108203E8400831388
:1024F8000014802A8313001083120313EF0161086C
:102508000A168A154B250A168A11062B062B611CFA
:102518008E2A8F2ADA2A6108203E8400801C952A98
:10252800962ADA2A6108FF3E203E8400001C9D2A74
:102538009E2ABE2A6108FF3E203E84008010610862
:10254800FF3E203E84008018AE2AB12A6108FF3E73
:10255800203E840083130014B32A831300108312CF
:102568000313EF016108FF3E0A168A154B250A1668
:102578008A11062B831203136108203E84008313FB
:102588008018CA2ACD2A6108203E840083130014CB
:10259800CF2A8313001083120313EF0161080A1670
:1025A8008A154B250A168A11062B062B831203134C
:1025B8006108203E840083138018E62AE92A61080E
:1025C800203E840083130014EB2A83130010831227
:1025D8000313EF0161080A168A154B250A168A119A
:1025E800062B062B062BF82A013083120313E00072
:1025F8006008E107FF2A51086102031C042B052B20
:10260800252A062B080083120313CE01C801C50131
:10261800C901B401B50183160313D601D70183128A
:102628000313DB0116305B02031C1B2B1C2B1E2B18
:102638003A2B3A2B5B08A03E8400831300105B08FA
:10264800A03E8400E13080055B08A03E8400801233
:102658005B08A03E840000130130DA005A08DB074B
:1026680016305B02031C392B3A2B1E2BDB0104307E
:102678005B02031C402B412B432B742B742B5B08F0
:10268800DA005A072C3E840083130008F839013811
:1026980080005B08DA005A072C3E840087308005EA
:1026A8005B08DA005A072C3E8400801303145B0D84
:1026B8002C3E8400001003145B0D2C3E8400801017
:1026C80003145B0D2C3E8400E33080050130DA00F2
:1026D8005A08DB0704305B02031C732B742B432B53
:1026E800DB010C305B02031C7A2B7B2B7D2B962B9A
:1026F800962B5B08B63E8400F030831380055B0898
:10270800B63E840000125B08B63E84001F30800588
:102718000130DA005A08DB070C305B02031C952BEA
:10272800962B7D2BDB010C305B02031C9C2B9D2B15
:102738009F2BB72BB72B5B08203E84008313001414
:102748005B08203E840080105B08DB3E8400831712
:1027580080010130DA005A08DB070C305B02031CE9
:10276800B62BB72B9F2BDB0104305B02031CBD2B60
:10277800BE2BC02BF42BF42B5B08DA0001300310BE
:10278800DA0DFF3E031DC32B03105A0DD83E8400FB
:10279800831380015B08DA0001300310DA0DFF3E75
:1027A800031DD12B03105A0D023ED83E8400800130
:1027B8005B08DA0001300310DA0DFF3E031DDF2B42
:1027C80003105A0D033ED83E840080010130DA0020
:1027D8005A08DB0704305B02031CF32BF42BC02BD5
:1027E800C201BC01BD01BE01BF01C001C10102306F
:1027F800DA005A08D000CB01CB0AD201D20ACC01A8
:10280800CC0AD301D30A0230DA005A08CD000230CC
:10281800DA005A08D100D401D40A0800831203133D
:10282800DA00DB01F02C061C1A2C1B2C342DDB01E2
:10283800DB0A342D342D83160317881D242C252CF0
:10284800342D83120313DB01DB0A342D342D831658
:102858000317081D302C312C342D83120313DB0190
:10286800DB0A342D342D83160317881C3C2C3D2C91
:10287800342D83120313DB01DB0A342D342D831628
:102888000317081C482C492C342D83120313DB0131
:10289800DB0A342D342D83160317891E542C552C2E
:1028A800342D83120313DB01DB0A342D342D8316F8
:1028B8000317091E602C612C342D83120313DB01CE
:1028C800DB0A342D342D83160317891D6C2C6D2CCF
:1028D800342D83120313DB01DB0A342D342D8316C8
:1028E8000317091D782C792C342D83120313DB016F
:1028F800DB0A342D342D83160317891C842C852C70
:10290800342D83120313DB01DB0A342D342D831697
:102918000317091C902C912C342D83120313DB010F
:10292800DB0A342D342D881F9A2C9B2C342DDB0187
:10293800DB0A342D342D081FA22CA32C342DDB01E7
:10294800DB0A342D342D881EAA2CAB2C342DDB0148
:10295800DB0A342D342D081EB22CB32C342DDB01A8
:10296800DB0A342D342D871EBA2CBB2C342DDB0109
:10297800DB0A342D342D071EC22CC32C342DDB0169
:10298800DB0A342D342D081CCA2CCB2C342DDB014A
:10299800DB0A342D342D871DD22CD32C342DDB01AA
:1029A800DB0A342D342D071DDA2CDB2C342DDB010A
:1029B800DB0A342D342D871CE22CE32C342DDB016B
:1029C800DB0A342D342D071CEA2CEB2C342DDB01CB
:1029D800DB0A342D342D342D5A08003A0319172CEC
:1029E800013A03191F2C033A03192B2C013A031936
:1029F800372C073A0319432C013A03194F2C033A91
:102A080003195B2C013A0319672C0F3A0319732C2D
:102A1800013A03197F2C033A03198B2C013A031945
:102A2800972C073A03199F2C013A0319A72C033A4C
:102A38000319AF2C013A0319B72C1F3A0319BF2CFD
:102A4800013A0319C72C033A0319CF2C013A031989
:102A5800D72C073A0319DF2C013A0319E72C342D38
:102A680083120313DB08031D3A2D3B2D3E2DDB019A
:102A7800DB0A402DDB01402D5B08422D0800831640
:102A8800031391010330831203178700831603137E
:102A98008F010C30831203139D005C309B00303093
:102AA800DA005A089D04F930831603139200831242
:102AB80003138C10831603138C1004308312031332
:102AC800920083308316031381008230831203132C
:102AD80081000B118B161630831203178900C03042
:102AE80083120313DA005A08831603138704263067
:102AF80093009401831203139401363094008C11CF
:102B0800831603138C1506148316031785150515EC
:102B180085140514871607168715071587140714D3
:102B280083160313881708178816081687160716BA
:102B380008148715071587140714F7308312031331
:102B4800DA005A08831603138805FD30831203132D
:102B5800DA005A08831603138605FB308312031321
:102B6800DA005A08831603138605FB308312031311
:102B7800DA005A088316031389057F30831203137A
:102B8800DA005A08831603178505BF30831203132A
:102B9800DA005A08831603178505DF3083120313FA
:102BA800DA005A08831603178505EF3083120313DA
:102BB800DA005A08831603178505DF3083120313DA
:102BC800DA005A08831603138505EF3083120313BE
:102BD800DA005A08831603138505F73083120313A6
:102BE800DA005A08831603138505FB308312031392
:102BF800DA005A08831603138505FD308312031380
:102C0800DA005A08831603138505FE30831203136E
:102C1800DA005A088316031385050815FD30831258
:102C28000313DA005A08831603138805F730831252
:102C38000313DA005A08831603138605EF3083124C
:102C48000313DA005A08831603138605DF3083124C
:102C58000313DA005A08831603138605FD3083121E
:102C68000313DA005A08831603138905EF30831219
:102C78000313DA005A08831603138905DF30831219
:102C88000313DA005A088316031389057F30831269
:102C98000313DA005A08831603138905BF30831219
:102CA8000313DA005A08831603138905FE308312CA
:102CB8000313DA005A0883160313890583120313D2
:102CC80040143C0885003D0886003E0887003F0800
:102CD80088004008890041088316031788006400AB
:102CE8000800831603131408F1007108FC003C3037
:102CF800F100710883120313CF00FC1A842E852E6D
:102D0800B32E7C19882E892EB32E7C1C8C2E8D2EEA
:102D1800B32EFC1D902E912EB32E64008312031344
:102D280043161430F1007108B7000A168A1592226A
:102D38000A168A11F100710883120317A000831282
:102D48000313B801FD01FD0AD801D901141FAD2EE6
:102D5800AE2EFF2FD915D9141413FF2FFF2FFC1EE9
:102D6800B62EB72E8A2F7C19BA2EBB2E8A2F7C1C22
:102D7800BE2EBF2E8A2F7D08143A031DC42EC52EE1
:102D8800CC2E5915D9141330F1007108FD00CC2E42
:102D9800141FCF2ED02ED42ED915D9141413D42EF7
:102DA8000A168A1592220A168A11F1007D08203E19
:102DB80084007108831780007D08203E8400000885
:102DC800F100710883120313B8077D08013A031D47
:102DD800EE2EEF2E342F0E2F0E2F0A30F100710831
:102DE800B700222F0A30F1007108B700222F1230E5
:102DF800F1007108B700222F0A30F1007108B700FE
:102E0800222F0330F1007108B700222F5915D91469
:102E1800222F222F7D08203E84000008013A031942
:102E2800F12E033A0319F62E013A0319FB2E073A3D
:102E38000319002F013A0319052F0A2F7D08203E98
:102E480084000008F1007108D800D9131530370242
:102E5800031C2F2F302F852F5915D914852F852F17
:102E68007D0837020318392F3A2F3D2F5915D914E9
:102E7800852F7D083706031D422F432F852F3808DD
:102E8800031D472F4A2F5914D914852F591083161B
:102E98000317BA08031D512F522F7C2FF201F20A93
:102EA800F301722F7308143A031D5B2F5C2F5F2FF9
:102EB8000130F3025F2F7208203E84000008F10001
:102EC8007308BA3E8400710880000130F10071086F
:102ED800F2070130F1007108F307722F72087D02C2
:102EE8000318772F782F562F83120313D910852FA5
:102EF80083120313D914852F852F852F852F852FAE
:102F0800852F0130F1007108FD07FF2FFC1A8D2F66
:102F18008E2FA62F7C1D912F922FA62F7C18952FD0
:102F2800962FA62FFC1D992F9A2FA62FB901580866
:102F3800F1007108BA0058080A168A15AD220A1657
:102F48008A11FF2FFC1EA92FAA2FEB2F7C1DAD2F56
:102F5800AE2FEB2F7C18B12FB22FEB2FE02FE02FE5
:102F680059080A168A15AD220A168A118312031304
:102F78005908F1007108BA070130F1007108B90762
:102F8800FF2FBA090130F1007108BA073A080A168A
:102F98008A15AD220A168A110130F10071088312D0
:102FA8000313B907FF2FD91755300A168A15AD2212
:102FB8000A168A11FF2FFF2F831203133908003ACC
:102FC8000319B42F013A0319C52FD72FFF2FFC1E61
:102FD800EE2FEF2FFF2F7C19F22FF32FFF2F7C18E6
:102FE800F62FF72FFF2F43126400FF2FFF2FFF2F1D
:082FF800FF2FFF2FFF2F08003F
:10352400831203131308962A0800FD018312031360
:10353400B901B601BA01B80183160317BA0108002C
:103544000A168A15FD240A168A150A168A111022EB
:103554000A168A150800F0008312031394137008E6
:103564009300941BB62AB72AAE2A141608008312B5
:103574000313DB00DC01C42A0630DA005A08DC003D
:10358400C92AC92A5B08003A0319BE2AC92A5C0859
:10359400CB2A080083120313DD00DC015D1CD32A4F
:1035A400D42AD92A5A08DB005B08DC07D92A03107D
:1035B400DA0D0310DD0CDD08031DE12AE22AD02A0E
:1035C400E32A5C08E52A080083120313DF01FC2ABE
:1035D4005F08DE005E08DA00DB0102300A128A1599
:1035E400FA210A168A15013083120313DE005E08DD
:1035F400DF07FC2A51085F02031C012B022BEA2A75
:10360400032B9B01CF30DE005E089D05080083126A
:103614000313DB006400831603178C18122B132B7F
:103624000C2B142B831203135B08831203178D00D6
:103634003F3083120313DA005A08831603178C05EC
:103644000C1403100C1803140030031801308312F7
:1036540003170C082D2B080083120313DE01DF016E
:10366400332B5A1C362B372B3D2B5C08DE070318F3
:10367400DF0A5D08DF0701300310DC0DDD0DFF3EBE
:10368400031D3E2B01300310DB0CDA0CFF3E031D3F
:10369400452B5B085A04031D502B512B332B522B03
:1036A4005F08DB01DB075E08DA01DA07592B080043
:1036B400FC01FD018313203084005A300A128A155C
:1036C40002200A168A158317A0308400E7300A12F4
:1036D4008A1502200A168A158313A0308400E83064
:1036E4000A128A1502200A168A15831720308400CC
:1036F40034300A128A1502200A168A150A128A110F
:1037040003200A168A15EF0083010A168A11552927
:103714000D3083120313E3000030E40063080A163B
:103724008A1509230A168A1583120313E100610816
:10373400E2000130E3070318E40A0030E4076208FA
:10374400013A0319A62BA72BBE2BDE0163080A1628
:103754008A15FA230A168A15013083120313E30724
:103764000318E40A0030E407DE0163080A168A1528
:10377400FA230A168A15BE2B080083120313DD00F0
:103784005D08840083130008803A1B3E031CCB2B86
:10379400CC2BD22B6430DB005D0884005B088000F6
:1037A4005D088400801FD72BD82BDB2B5D08840099
:1037B40080015D08023E84000008DB005D0884008F
:1037C40000085B060319E72BE82BF92B5D0884003E
:1037D4000008DB005D08023E84000003FF3A5B073B
:1037E400DC005D08033E84005C088000F92B0800BF
:1037F40083120313E000FE2B831603178C18032C8B
:10380400042CFE2B052C8312031360088312031768
:103814008D00831203135E08831203178C003F305C
:1038240083120313DF005F08831603178C058312CA
:10383400031303108B1F1F2C202C212C03148B1318
:10384400831603170C1555308D00AA308D008C1487
:103854000C1183120313031C302C312C342C8B17C2
:10386400342C342C08000B1D382C392C522C8B1E74
:103874003C2C3D2C522CCE01CE0A0130F7007708A7
:10388400C5070130F7007708CA070A168A15EF251D
:103894000A168A1582308312031381020B11522CEB
:1038A4008C1D552C562C642C8C11831603138C1DE3
:1038B4005C2C5D2C642C0A168A1175260A168A154E
:1038C400642C642C7B0883120313FF007A088A009B
:1038D40079088400780E8300FE0E7E0E0900F20043
:1038E400932C7008031D772C7B2C83120313401434
:1038F400A12CFE30F100710883120313C005A12C22
:10390400A12CA12CA12CA12CA12CA12CA12CA12C4B
:10391400A12CA12CA12CA12CA12CA12CA12CA12C3B
:10392400A12C7208003A0319732C013A0319A12C33
:10393400033A0319A12C013A0319A12CA12C8312D7
:1039440003133C0885003D0886003E0887003F08B5
:10395400880040088900410883160317880008007E
:1039640083120313DB00DC01E02C0230DA005A0876
:10397400DC00FA2C0330DA005A08DC00FA2C04309C
:10398400DA005A08DC00FA2C0530DA005A08DC00A8
:10399400FA2C0830DA005A08DC00FA2C0930DA0074
:1039A4005A08DC00FA2C1230DA005A08DC00FA2C2F
:1039B4001330DA005A08DC00FA2CFA2C5B08003ABF
:1039C4000319B72C013A0319BC2C033A0319C12C6F
:1039D400013A0319C62C073A0319CB2C013A0319EF
:1039E400D02C033A0319D52C013A0319DA2CFA2CFA
:1039F4005C08FC2C080083120313E301432D630AC3
:103A0400DE000130DF000030E0000B2D0310DF0D7D
:103A1400E00DDE0B082D5F08E1006008E20061089C
:103A24003405DE0062083505DF005F085E04031D0F
:103A34001C2D1D2D2D2D4219202D212D2D2D6308DA
:103A4400DE005E08DA00DB0100300A128A15FA2172
:103A54000A168A153C2D831203136308DE005E08E0
:103A6400DA00DB01DB0A00300A128A15FA210A1691
:103A74008A153C2D013083120313DE005E08E30730
:103A8400432D52086302031C482D492D012D4A2D54
:103A9400080083120313DF005F08203E84008313B1
:103AA4000018552D562D772DDA01DB0101300A124D
:103AB4008A15FA210A168A155C30831203139B00B7
:103AC4003030DE005E089D041430DE005E08C7005E
:103AD4005F08DE005E08DA00DB01DB0A02300A124E
:103AE4008A15FA210A168A159A2D83120313DA010C
:103AF400DA0ADB0101300A128A15FA210A168A153C
:103B0400831203139B01CF30DE005E089D05143041
:103B1400DE005E08C7005F08DE005E08DA00DB0135
:103B2400DB0A02300A128A15FA210A168A159A2D1E
:103B3400080083120313E20104306202031CA32D64
:103B4400A42DD12DEE2DEE2DD12D6B300A168A1118
:103B540004200A168A15831203136208E100610720
:103B6400C23E84005A0883138000840A5B088000E4
:103B7400E32DBC2D6E300A168A1104200A168A150C
:103B8400831203136208E1006107C23E84005A08ED
:103B940083138000840A5B088000E32DE32D620810
:103BA400E10061072C3E8400831300080739003AC2
:103BB4000319BC2D013A0319BC2D033A0319A72D8F
:103BC400E32D0130E1006108E20704306202031CC6
:103BD400EC2DED2DD12DEE2D080083120313530887
:103BE4005702031CF62DF72DF92DD701F92D57088F
:103BF400F3007307C23E840083130008840A0004A0
:103C04000319052E062E462E5708F3007307C23EED
:103C140084000008F400840A0008F500741C132EC4
:103C2400142E1D2EF001F00A57080A168A15712465
:103C34000A168A15272EF0018312031357080A1651
:103C44008A1571240A168A15272E8312031357081E
:103C5400F3007307C23E840083130008F400840A4F
:103C64000008F50001300310F50CF40CFF3E031DB1
:103C7400352E5708F6007607C23E8400740880008B
:103C8400840A750880004B2E0130F3007308D707AF
:103C94004B2E080083120313DD00DC0154085D027F
:103CA4000318552E562E5D2E06305D02031C5B2E26
:103CB4005C2E9D2E5D2E0130AA2EAA2E9D2E5D080F
:103CC400CA3E840083138008031D692E6A2E712E58
:103CD4007830DB005D08CA3E84005B0880005D0824
:103CE400CA3E84000008DB005D08D03E84005B0807
:103CF4008000A82E5D08D03E840083138001A82E86
:103D04005D08D03E84008313800803198A2E8B2E0D
:103D1400982E3B08013A031D902E912EA82E5D0883
:103D2400D03E840001308002A82EA82EDC01DC0ADB
:103D3400A82EA82EA82E5A08003A0319612E013A7B
:103D440003197C2E033A0319822EA82E5C08AA2E8E
:103D5400080083120313DB00DC01ED2EDC01162FB7
:103D6400DC01DC0A162F0730DA005A08DC00162FB3
:103D74000A30DA005A08DC00162F0B30DA005A0831
:103D8400DC00162F0C30DA005A08DC00162F0D3038
:103D9400DA005A08DC00162F0E30DA005A08DC006C
:103DA400162F0F30DA005A08DC00162F1030DA0014
:103DB4005A08DC00162F1130DA005A08DC00162FDE
:103DC4001430DA005A08DC00162F1530DA005A08CD
:103DD400DC00162F162F5B08003A0319B02E013AA7
:103DE4000319B22E033A0319B52E013A0319BA2E58
:103DF400073A0319BF2E013A0319C42E033A0319D3
:103E0400C92E013A0319CE2E0F3A0319D32E013AC3
:103E14000319D82E033A0319DD2E013A0319E22EB1
:103E2400073A0319E72E162F5C08182F08001630DE
:103E340083120313DA005A08D0000D30DA005A084E
:103E4400CB000D30DA005A08D200CC01CC0AD301E1
:103E5400D30A0830DA005A08CD000830DA005A08CC
:103E6400D1005108DA0003105A0CDB005B08D400BF
:103E740017305002031C3F2F402F442F1630DA0016
:103E84005A08D0000E304B02031C492F4A2F4E2FE4
:103E94000D30DA005A08CB000E305202031C532FA7
:103EA400542F582F0D30DA005A08D20005304C0236
:103EB400031C5D2F5E2F622F0430DA005A08CC00F9
:103EC40005305302031C672F682F6C2F0430DA006F
:103ED4005A08D3000D304D02031C712F722F762F18
:103EE4000C30DA005A08CD000D305102031C7B2F30
:103EF4007C2F802F0C30DA005A08D100073054028E
:103F0400031C852F862F8B2F0630DA005A08D40025
:103F14008B2F080083120313E500E40152086502A5
:103F24000318952F962F9D2F0D306502031C9B2F90
:103F34009C2FA02F9D2F6408FF2FFF2FE008031D47
:103F4400A42FA52FB12F6508E1006107A03E8400CE
:103F5400003083178000840A00308000FD2F65083C
:103F6400E1006107A03E840083170008840A00046E
:103F74000319BD2FBE2FDB2F6508E1006107A03EAA
:103F8400840001308002840F0030031C800380020F
:103F940084036508E1006107A03E84000008840AE8
:103FA4000004031DD62FD72FFD2FE401E40AFD2FB3
:103FB400FD2F6508CE3E84000008E100E20161089F
:103FC400DA006208DB003C30DC000030DD000A1659
:103FD4008A152E230A168A15831203136508E30033
:103FE4006307A03E84005A0883178000840A5B0894
:0C3FF4008000FD2FFD2F6408FF2F080047
:02400E00F2FFBF
:00000001FF
