:060000000A128A110E280D
:10000800FE00030EF9000408FA000A08FB000A16AD
:100018008A11352B0A128A111128FC01FD0183135C
:100028002030840056300A168A11D3210A128A1108
:100038008317A0308400E6300A168A11D3210A12E9
:100048008A118313A0308400EC300A168A11D32158
:100058000A128A1183172030840045300A168A1143
:10006800D3210A128A110A128A11FD270A128A114B
:10007800EB0083010A168A11EC2EEA018128E601B9
:10008800E60AE7016A0A4B280310E60DE70DFF3E72
:10009800031D482866083005E40067083105E500B7
:1000A80065086404031959285A285E286608B206A8
:1000B8006708B3063703031D6228632880283308BE
:1000C800E1003208E0006608E0056708E1056A0813
:1000D8000A168A11A9250A128A11013A031D7528E0
:1000E800762880286708E5006608E400E409E50941
:1000F8006408B2056508B305EA0A4C086A02031CDD
:10010800862887284328EA01EC2903106A0DE900AC
:100118006908013EE800B128A0286908C63E8400A5
:1001280000081F39203880006808C63E840000088F
:100138001F392038800042296808C63E8400000E16
:10014800E400640C0739023A03199128013A0319AB
:100158009128073A0319912842296908C63E840064
:100168008313000EE400640C0739023A031990283F
:10017800013A0319A028073A0319A0284229690857
:10018800203E84008018C928CA28E7286808203E2D
:100198008400801CD028D128D5286808203E8400F7
:1001A8008010DA016A080A168A1102250A128A11D1
:1001B8006908203E8400831380146908C63E8400C1
:1001C8001F308005D629DA01DA0A6A080A168A1168
:1001D80002250A128A116908203E840083138010C0
:1001E8006908C63E84001F308005D629DA01DA0A7C
:1001F8006A080A168A1102250A128A116908203E1D
:100208008400831380146808203E84008010D62957
:10021800DA01DA0A6A080A168A1102250A128A110C
:10022800EF286808203E8400801C1B291C292029EF
:100238006808203E84008010DA016A080A168A11CC
:1002480002250A128A11DC286908203E8400801CD5
:100258002E292F29D6290230DA006A080A168A11AF
:1002680002250A128A11013A031D3B293C29562905
:100278006908203E840083138010D6296908C63E89
:100288008400000EE400640C0739013A03190C29B4
:10029800033A0319C328013A0319FA28073A03193C
:1002A80015292829D6296808203E840080185D2948
:1002B8005E297B296908203E8400801C6429652901
:1002C80069296908203E84008010DA016A080A1644
:1002D8008A1102250A128A116808203E84008313B5
:1002E80080146808C63E84001F308005EB29DA01B7
:1002F800DA0A6A080A168A1102250A128A11680897
:10030800203E8400831380106808C63E84001F3096
:100318008005EB29DA01DA0A6A080A168A11022529
:100328000A128A116808203E840083138014690821
:10033800203E84008010EB29DA01DA0A6A080A16DE
:100348008A1102250A128A1183296908203E84002D
:10035800801CAF29B029B4296908203E8400801088
:10036800DA016A080A168A1102250A128A11702906
:100378006808203E8400801CC229C329EB2902306A
:10038800DA006A080A168A1102250A128A11013A45
:10039800031DCF29D029EB296808203E8400831348
:1003A8008010EB296808C63E84008313000EE40021
:1003B800640C0739013A0319A029033A031957298C
:1003C800013A03198E29073A0319A929BC29EA0A0F
:1003D8004E086A02031CF129F2298928EA01952CA2
:1003E8006A086A076A07D23E840080016A08E40046
:1003F80001300310E40DFF3E031DFD290310640DB9
:10040800B93E840000106A08E40001300310E40DCE
:10041800FF3E031D0A2A0310640DB83E84001F30F6
:100428008005A42B6A08E40001300310E40DFF3EA8
:10043800031D192A0310640DB83E8400000807390B
:10044800023A0319282A292A3C2A6A08E4000130BA
:100458000310E40DFF3E031D2C2A0310640DB83E63
:100468008400000807390038031D3B2A3C2A432A28
:100478006A086A076A07D33E8400643080006A0805
:100488006A076A07D33E84000008803A7F3E031853
:100498004E2A4F2A562A6A086A076A07D33E8400FA
:1004A800643080006A086A076A07D33E840000083F
:1004B800E4006A086A076A07D23E8400640880007C
:1004C8006A08E40001300310E40DFF3E031D672AAB
:1004D8000310640DB93E840000106A08E40001307E
:1004E8000310E40DFF3E031D742A0310640DB83E8B
:1004F80084001F308005A42B6A08E4000130031033
:10050800E40DFF3E031D832A0310640DB83E8400EA
:1005180000080739023A0319922A932AA62A6A0878
:10052800E40001300310E40DFF3E031D962A03107A
:10053800640DB83E8400000807390038031DA52A59
:10054800A62AAD2A6A086A076A07D33E840064307F
:1005580080006A086A076A07D23E84000008803A69
:100568007F3E031CB82AB92ACD2A6A086A076A0797
:10057800D23E840080016A08E40001300310E40DD3
:10058800FF3E031DC22A0310640DB93E840000100B
:10059800FB2A6A086A076A07D33E84000008803A83
:1005A8007F3E0318D82AD92AE02A6A086A076A0708
:1005B800D33E8400643080006A086A076A07D33E25
:1005C80084000008E4006A086A076A07D23E8400CB
:1005D800640880006A08E40001300310E40DFF3E5F
:1005E800031DF12A0310640DB93E840000106A0847
:1005F800E40001300310E40DFF3E031DFE2A031042
:10060800640DB83E84001F308005A42B6A086A0771
:100618006A07D23E8400643080006A08E400013032
:100628000310E40DFF3E031D142B0310640DB93EA7
:10063800840000146A08E40001300310E40DFF3E52
:10064800031D212B0310640DB83E84001F30800564
:10065800A42B6A08E40001300310E40DFF3E031DDB
:10066800302B0310640DB93E840000183C2B3D2B41
:10067800582B6A086A076A07D23E84000008803A45
:100688001D3E0318482B492B502B6A086A076A0736
:10069800D23E8400800A712B6A086A076A07D23E34
:1006A800840064308000712B6A086A076A07D23EAA
:1006B80084000008803A7E3E031C632B642B6B2B5E
:1006C8006A086A076A07D23E84008003712B6A08A9
:1006D8006A076A07D23E840080016A086A076A07C7
:1006E800D23E84000008E4006A086A076A07D33E1D
:1006F800840064088000A42B6A08E4000130031019
:10070800E40DFF3E031D832B0310640DB83E8400E7
:100718008313000EE500650C0739003A0319A42B72
:10072800013A0319F429033A0319162A013A03195D
:10073800802A073A03190A2B013A03192D2BA42BF7
:100748006A086A076A07D23E8400801FAC2BAD2B6B
:10075800B32B6A086A076A07D23E840080016A08D8
:100768006A076A07D23E84000008803A1B3E031CD1
:10077800BE2BBF2BC62B6A086A076A07D23E8400C5
:10078800643080004019C92BCA2B482C6A086A07B4
:100798006A07D43E84000008E4006A086A076A070A
:1007A800D23E8400000864060319DB2BDC2B942C52
:1007B8006A086A076A07D23E84000008E4006A08EB
:1007C8006A076A07D43E840064088000302C6A08EF
:1007D8006A076A07D23E84000008803A6C3E031814
:1007E800F62BF72B082C6B300A168A1125220A12D1
:1007F8008A1103106A0DDE3E84005A0883138000B4
:10080800840A5B088000942C6A300A168A11252213
:100818000A128A1103106A0DDE3E84005A088313F7
:100828008000840A5B088000942C6A086A076A07BB
:10083800D23E840000086E3E0A168A1125220A124A
:100848008A1103106A0DDE3E84005A088313800063
:10085800840A5B088000942C6A08E40001300310C5
:10086800E40DFF3E031D332C0310640DB83E8400D5
:1008780000080739003A0319192C013A0319192CF1
:10088800033A0319EB2B942C6A086A076A07D43ECB
:100898008400000A0319512C522C942C6A086A0708
:1008A8006A07D43E8400800180037C2C6A300A16D3
:1008B8008A1125220A128A1103106A0DDE3E84006D
:1008C8005A0883138000840A5B088000942CD23075
:1008D8000A168A1125220A128A1103106A0DDE3EB1
:1008E80084005A0883138000840A5B088000942CD3
:1008F8006A08E40001300310E40DFF3E031D7F2C5D
:100908000310640DB83E840000080739003A031943
:100918006B2C013A03196B2C033A03195A2C942CAB
:10092800EA0A4D086A02031C9A2C9B2C802B0800AB
:10093800E001D52E60080A168A11F0210A128A11E0
:10094800DF00B92E5F08A03E8400000EDC00DC0C3E
:100958005C0C0139DD005F08A03E8400000EDE005B
:100968005E0C01395D060319BA2CBB2CD22E5F0828
:10097800A03E8400801AC12CC22CC72C5F08A03E60
:1009880084000013D22E5F08A03E84000017600880
:10099800DC0001300310DC0DFF3E031DCE2C0310DC
:1009A8005C0DB83E840000081F3960388000D22EE4
:1009B8005F08A03E8400000EDC00DC0C5C0C0139F2
:1009C800DD005F08A03E8400000EDE005E0C0139E9
:1009D8005D060319F02CF12C0E2D5F08A03E840053
:1009E800801AF72CF82CFD2C5F08A03E8400001319
:1009F800012D5F08A03E840000176008DC0001306C
:100A08000310DC0DFF3E031D042D03105C0DB63EE4
:100A1800840080015F08A03E8400801A142D152DE3
:100A2800352E6008DC0001300310DC0DFF3E031D8D
:100A3800182D03105C0DB73E84000D30000203181A
:100A4800262D272D552D6008DC0001300310DC0D04
:100A5800FF3E031D2A2D03105C0DB83E840080194B
:100A6800362D372D472D6008DC0001300310DC0DD2
:100A7800FF3E031D3A2D03105C0DB83E8400001E96
:100A8800462D472D552D6008DC0001300310DC0D84
:100A9800FF3E031D4A2D03105C0DB73E8400800AFB
:100AA8006F2D6008DC0001300310DC0DFF3E031DD4
:100AB800582D03105C0DB83E840000126008DC005D
:100AC80001300310DC0DFF3E031D652D03105C0D86
:100AD800B73E840080016008DC0001300310DC0DA3
:100AE800FF3E031D722D03105C0DB83E8400801D6F
:100AF8007E2D7F2DF12D6008DC0001300310DC0D08
:100B0800FF3E031D822D03105C0DB83E840080114A
:100B18006008DC0001300310DC0DFF3E031D8F2D43
:100B280003105C0DB83E8400001E9B2D9C2DD42D17
:100B38006008DC0001300310DC0DFF3E031D9F2D13
:100B480003105C0DB83E840000081F39803880000F
:100B58006008DC0001300310DC0DFF3E031DAF2DE3
:100B680003105C0DB73E840080016008DC00013092
:100B78000310DC0DFF3E031DBC2D03105C0DB83EB9
:100B8800840000126008DC0001300310DC0DFF3E19
:100B9800031DC92D03105C0DB73E84008001F12DA3
:100BA8006008DC0001300310DC0DFF3E031DD72D6B
:100BB80003105C0DB83E840000081F3960388000BF
:100BC8006008DC0001300310DC0DFF3E031DE72D3B
:100BD80003105C0DB83E840000166008DC0001308C
:100BE8000310DC0DFF3E031DF42D03105C0DB83E11
:100BF8008400000EDD005D0C0739053A031D052E43
:100C0800062ED22E6008DC0001300310DC0DFF3EFA
:100C1800031D092E03105C0DB83E84001F308005AB
:100C28006008DC0001300310DC0DFF3E031D172EA9
:100C380003105C0DB93E8400001C2F2E322E600874
:100C4800DD0001300310DD0DFF3E031D262E0310CD
:100C58005D0DB93E840083130014342E83130010F5
:100C6800D22E6008DC0001300310DC0DFF3E031DAE
:100C7800382E03105C0DB83E840080156008DC0037
:100C880001300310DC0DFF3E031D452E03105C0DE3
:100C9800B73E84000D3000020318532E542E612EE7
:100CA8006008DC0001300310DC0DFF3E031D572EE9
:100CB80003105C0DB73E8400800A6008DC00013038
:100CC8000310DC0DFF3E031D642E03105C0DB63EC1
:100CD80084000F3000020318722E732E812E6008D4
:100CE800DC0001300310DC0DFF3E031D762E0310DF
:100CF8005C0DB63E8400800AD22E6008DC0001300C
:100D08000310DC0DFF3E031D842E03105C0DB83E5E
:100D1800840000081F39A03880006008DC0001301A
:100D28000310DC0DFF3E031D942E03105C0DB83E2E
:100D3800840080116008DC0001300310DC0DFF3EE8
:100D4800031DA12E03105C0DB83E8400001260083C
:100D5800DC0001300310DC0DFF3E031DAE2E031036
:100D68005C0DB73E84008001D22E6008DC000130A3
:100D78000310DC0DFF3E031DBC2E03105C0DB83EB6
:100D88008400831300080739003A0319A62C013A96
:100D98000319DC2C033A0319A62CD22E8312031351
:100DA800E00A47086002031CDA2EDB2E9E2C08009E
:100DB800DA00DB01652F061CE22EE32EA92F831231
:100DC8000313DB01DB0AA92F83160317881DED2EF9
:100DD800EE2EA92FE32E83160317081DF42EF52EE9
:100DE800A92FE32E83160317881CFB2EFC2EA92F90
:100DF800E32E83160317081C022F032FA92FE32EB7
:100E080083160317891E092F0A2FA92FE32E83168D
:100E18000317091E102F112FA92FE32E831603176E
:100E2800891D172F182FA92FE32E83160317091DC5
:100E38001E2F1F2FA92FE32E83160317891C252F7A
:100E4800262FA92FE32E83160317091C2C2F2D2FCD
:100E5800A92FE32E881F312F322FA92FE32E081F29
:100E6800362F372FA92FE32E881E3B2F3C2FA92F73
:100E7800E32E081E402F412FA92FE32E871E452F52
:100E8800462FA92FE32E071E4A2F4B2FA92FE32EFB
:100E9800081C4F2F502FA92FE32E871D542F552F95
:100EA800A92FE32E071D592F5A2FA92FE32E871C90
:100EB8005E2F5F2FA92FE32E071C632F642FA92F06
:100EC800E32E5A08003A0319DF2E013A0319E82ED7
:100ED800033A0319EF2E013A0319F62E073A0319BC
:100EE800FD2E013A0319042F033A03190B2F013A77
:100EF8000319122F0F3A0319192F013A0319202F3A
:100F0800033A0319272F013A03192E2F073A031919
:100F1800332F013A0319382F033A03193D2F013AA9
:100F28000319422F1F3A0319472F013A03194C2F6F
:100F3800033A0319512F013A0319562F073A031997
:100F48005B2F013A0319602FA92F83120313DB08C3
:100F5800031DAF2FB02FB32FDB01DB0AB42FDB014A
:100F68005B080800E101DA2F6B300A168A11252286
:100F78000A128A110310610DDE3E84005A08831399
:100F88008000840A5B088000F32F6E300A168A11ED
:100F980025220A128A110310610DDE3E84005A08C8
:100FA80083138000840A5B088000F32F6108E00047
:100FB80001300310E00DFF3E031DDD2F0310600D0F
:100FC800B83E8400831300080739003A0319C92F73
:100FD800013A0319C92F033A0319B82FF32FE10A6D
:100FE80004306102031CF92FFA2FDA2F08001308C6
:040FF80008000534B4
:10100000163083120313CA000D30C6000D30CC0019
:10101000C701C70ACD01CD0A0830C8000830CB008F
:1010200003104B0CCE0017304A02031C1828192855
:101030001B281630CA000E304602031C2028212827
:1010400023280D30C6000E304C02031C2828292806
:101050002B280D30CC0005304702031C30283128E6
:1010600033280430C70005304D02031C38283928C6
:101070003B280430CD000D304802031C4028412895
:1010800043280C30C8000D304B02031C4828492867
:101090004B280C30CB0007304E02031C502851283F
:1010A00053280630CE000800DB015B08DA0001306F
:1010B0000310DA0DFF3E031D582803105A0DB83EE9
:1010C00084000008F839013880005B08DA0001303C
:1010D0000310DA0DFF3E031D682803105A0DB63EBB
:1010E000840080015B08DA0001300310DA0DFF3E56
:1010F000031D752803105A0DB73E840080015B085C
:10110000DA0001300310DA0DFF3E031D82280310C0
:101110005A0DB83E840080115B08DA0001300310DC
:10112000DA0DFF3E031D8F2803105A0DB83E8400D0
:1011300000125B08DA0001300310DA0DFF3E031DD8
:101140009C2803105A0DB83E84001F3080055B08B0
:10115000DA0001300310DA0DFF3E031DAA28031048
:101160005A0DB93E84000010DB0A04305B02031CF8
:10117000BA28BB285528DB015B08C63E8400F03046
:1011800080055B08C63E840000125B08C63E8400F2
:101190001F308005DB0A0C305B02031CD028D128ED
:1011A000BC28DB015B08203E8400831300145B082D
:1011B000203E840080105B08203E8400831780015D
:1011C000DB0A0C305B02031CE628E728D228DB018F
:1011D0005B085B075B07D23E8400831380015B08DA
:1011E0005B075B07D43E84008001DB0A04305B02AE
:1011F000031CFB28FC28E828C001BA01BB01BC0184
:10120000BD01BE01BF01080005306B0203180929AA
:101210000A290B29EB0ADF01D42905306B02031CD4
:1012200012291329D329C01C162917291C295F0844
:10123000203E8400831380105F08203E84008313C7
:10124000000C0139DE005F08203E840000080139EF
:101250005E0603192C292D29D3295F18302931293D
:1012600074295F08203E8400801C3729382974299E
:101270005F08213E8400001C3E293F295C295F084D
:10128000213E840080105F08213E840080184C2994
:101290004F295F08213E84008313001451298313D2
:1012A000001083120313EB015F08013E0A168A1136
:1012B000DC230A128A15DA295F08203E8400801890
:1012C000652968295F08203E8400831300146A2979
:1012D0008313001083120313EB015F080A168A11AF
:1012E000DC230A128A15DA295F1C77297829BB29A1
:1012F0005F08203E8400801C7E297F29BB295F086F
:101300001F3E8400001C85298629A3295F081F3EF3
:10131000840080105F081F3E84008018932996295E
:101320005F081F3E84008313001498298313001064
:1013300083120313EB015F08FF3E0A168A11DC23B8
:101340000A128A15DA295F08203E84008018AC2929
:10135000AF295F08203E840083130014B129831352
:10136000001083120313EB015F080A168A11DC23B5
:101370000A128A15DA295F08203E84008018C429E1
:10138000C7295F08203E840083130014C9298313F2
:10139000001083120313EB015F080A168A11DC2385
:1013A0000A128A15DA29DF0A4B085F02031CD929C1
:1013B000DA290D290800DC00FF2A5B08031DE1295A
:1013C000E329BB14102BBB10102B5B08031DE9296C
:1013D000EB293B15102B3B11102B5B08031DF1294A
:1013E000F3293E15102B3E11102B5B08031DF92924
:1013F000FB29BF17102BBF13102B5B08031D012AFD
:10140000032A3F17102B3F13102B5B08031D092ADB
:101410000B2ABF16102BBF12102B5B08031D112ABD
:10142000132A3F16102B3F12102B5B08031D192A9D
:101430001B2ABA16102BBA12102B5B08031D212A87
:10144000232A3A16102B3A12102B5B08031D292A67
:101450002B2ABA15102BBA11102B5B08031D312A49
:10146000332A3A15102B3A11102B5B08031D392A29
:101470003B2ABA14102BBA10102B5B08031D412A0B
:10148000432A3A14102B3A10102B5A08003A031929
:10149000DD29013A0319E529033A0319ED29013A37
:1014A0000319F529073A0319FD29013A0319052AF9
:1014B000033A03190D2A013A0319152A0F3A0319A1
:1014C0001D2A013A0319252A033A03192D2A013A44
:1014D0000319352A073A03193D2A102BBD10102B8A
:1014E000BD14102B5A08003A03196E2A013A031949
:1014F000702A102B5B08031D7E2A802ABB15102B37
:10150000BB11102B5B08031D862A882A3B16102B63
:101510003B12102B5B08031D8E2A902ABB16102B42
:10152000BB12102B5B08031D962A982ABE14102BA1
:10153000BE10102B5B08031D9E2AA02A3E16102BFE
:101540003E12102B5B08031DA62AA82ABE16102BDC
:10155000BE12102B5B08031DAE2AB02ABE17102B3B
:10156000BE13102B5B08031DB62AB82A3E17102B9A
:101570003E13102B102B5A08003A03197A2A013A0D
:101580000319822A033A03198A2A013A0319922A73
:10159000073A03199A2A013A0319A22A033A0319AE
:1015A000AA2A013A0319B22A0F3A0319BA2A013AB0
:1015B0000319BA2A033A0319BA2A013A0319BA2AB3
:1015C000102B5B08031DE52AE72A3E14102B3E1062
:1015D000102B5A08003A0319E12A013A0319BA2AD2
:1015E000033A0319BA2A013A0319BA2A102B5B08E5
:1015F000031DFB2AFD2ABD15102BBD11102B5C0805
:10160000003A0319452A013A0319722A033A0319C9
:10161000BB2A013A0319E92A073A0319F72A102BC2
:101620003A0885003B0886003C0887003D08880092
:101630003E0889003F088316031788000800140835
:10164000FC003C308312C900FC1A272B282B4D2BA1
:101650007C192B2B2C2B4D2B7C1C2F2B302B4D2B0B
:10166000FC1D332B342B4D2B6400193083120313D4
:10167000B5000A128A11FB270A128A150317AC005B
:10168000FD01FD0A0313D201D301141F482B492B7E
:10169000872CD315D3141413872CFC1E502B512BDD
:1016A0000E2C7C19542B552B0E2C7C1C582B592B93
:1016B0000E2C7D08193A031D5E2B5F2B632B5315EF
:1016C000D3141830FD00141F662B672B6A2BD3151B
:1016D000D31414137D082C3E84000A128A11FB27B0
:1016E0000A128A15831780007D03031D782B792B3E
:1016F000A92B862B0B30B5009A2B1330B5009A2BF3
:101700000430B5009A2B5315D3149A2B7D082C3E28
:1017100084000008013A03197A2B033A03197A2B43
:10172000013A03197D2B073A03197A2B013A031961
:10173000802B832B7D082C3E84000008D200D3131D
:101740001A303502031CA52BA62B0C2C5315D314D1
:101750000C2C7D0835020318AE2BAF2BB02BA62B1B
:101760007D083506031DB52BB62B0C2C2D30F30050
:101770000130F4007D08FE3EF5000A168A110723A9
:101780000A128A157408AF007308AE007D082B3E5C
:10179000840083170008F8007D082C3E84000008B0
:1017A000D7007808D60057082F06031DD92B5608F6
:1017B0002E060319DC2BDD2BE42BAE01AF015314F5
:1017C00083120313D3140C2C531083160317BA0877
:1017D000031DEB2BEC2BE02B83120313D801D80A4B
:1017E000D901052C5908193A031DF72BF82BF92BB1
:1017F000D90358082C3E84000008F8005908BA3E66
:10180000840078088000D80AD90A58087D02031895
:101810000A2C0B2CF22BD310FD0A872CFC1A112C4E
:10182000122C262C7C1D152C162C262C7C18192CE1
:101830001A2C262CFC1D1D2C1E2C262CB601520801
:101840000A168A11DB210A128A15872CFC1E292C04
:101850002A2C792C7C1D2D2C2E2C792C7C18312CAB
:10186000322C792C6B2C2E08D30053080A168A11BF
:10187000DB210A128A15B60A872C2F08D4005408D7
:101880000A168A11DB210A128A153B2C5230F3000A
:101890000030F4000330F5000A168A1107230A12FB
:1018A0008A157408AF007308AE002E080A168A1154
:1018B000DB210A128A153B2C2F080A168A11DB211C
:1018C0000A128A153B2CD31755300A168A11DB21D0
:1018D0000A128A15872C3608003A0319332C013A6C
:1018E00003193D2C033A0319462C013A03195C2CC9
:1018F000632CFC1E7C2C7D2C872C7C19802C812C4D
:10190000872C7C18842C852C872C6400872C08005D
:101910000E3083120313E100E2010E300A168A1121
:1019200059220A128A150313DE00DF01E10A0319A6
:10193000E20A61080A168A1159220A128A1503134B
:10194000DC00DD015C08DD00DC015C08DE045D0814
:10195000DF04E10A0319E20A5F08AA3A55300319C5
:101960005E06031DB42CB52C5A2D61080A168A1187
:1019700059220A128A150313B200B301E10A0319AE
:10198000E20A61080A168A1159220A128A150313FB
:10199000DC00DD015C08DD00DC015C08B2045D08F0
:1019A000B304E10A0319E20AE001172D6008600799
:1019B0006007D23E840061080A168A1159220A1271
:1019C0008A15831380000313E10A0319E20A6008F1
:1019D00060076007D33E840061080A168A11592205
:1019E0000A128A15831380000313E10A0319E20A1D
:1019F00061080A168A1159220A128A150739031337
:101A0000DC006008DD0001300310DD0DFF3E031D2A
:101A1000042D03105D0DB83E8400831300085C069E
:101A2000F8395C068000E10A0319E20AE00A4D0871
:101A30006002031C1C2D1D2DD62C2A30E100E20172
:101A4000E0016008E63E840061080A168A11592206
:101A50000A128A15831380000313E10A0319E20AAC
:101A6000E00A06306002031C362D372D212D32305E
:101A7000E100E201E0016008D33E840061080A163B
:101A80008A1159220A128A15831780000313E10A6A
:101A90000319E20AE00A0D306002031C502D512D9B
:101AA0003B2D42300A168A1159220A128A15031355
:101AB000D000342EDA0161080A168A11B9220A12FE
:101AC0008A1583120313E10A0319E20ADA01610895
:101AD0000A168A11B9220A128A1583120313E10A1F
:101AE0000319E20AB201B301E001BA2DDA0161087B
:101AF0000A168A11B9220A128A1583120313E10AFF
:101B00000319E20ADA0161080A168A11B9220A12D7
:101B10008A1583120313E10A0319E20A60086007B9
:101B20006007D23E8400831380016008600760076D
:101B3000D33E84008001DA01DA0A61080A168A11AC
:101B4000B9220A128A1583120313E10A0319E20A61
:101B50006008DC0001300310DC0DFF3E031DAB2DDF
:101B600003105C0DB83E840083130008F839013877
:101B70008000E00A4D086002031CBF2DC02D762DA9
:101B80002A30E100E201E0017830DA0061080A164B
:101B90008A11B9220A128A1583120313E10A031962
:101BA000E20A6008E63E8400783083138000E00A91
:101BB00006306002031CDD2DDE2DC42D3230E10025
:101BC000E201E001DA0161080A168A11B9220A125B
:101BD0008A1583120313E10A0319E20A6008D33E4F
:101BE000840083178001E00A0D306002031CF92D88
:101BF000FA2DE22D4230E100E201D001DA0142305B
:101C00000A168A11B9220A128A1583120313E10AED
:101C10000319E20A0D30E100E201DA01DA0A0D30BF
:101C20000A168A11B9220A128A1583120313E10ACD
:101C30000319E20A5530DA0061080A168A11B9223E
:101C40000A128A1583120313E10A0319E20AAA3061
:101C5000DA0061080A168A11B9220A128A1583125B
:101C60000313E10A0319E20A0800831603173A086E
:101C7000031D3B2EB92FA82F3C0883120313B20477
:101C8000831603173E0883120313B3048316031746
:101C90003D0883120313E100831603173B088312E8
:101CA0000313E000E009E1096008B2056108B3052B
:101CB000E501E401E40A83160317400883120313C5
:101CC00064050319642E652E762E6508E000013048
:101CD0000310E00DFF3E031D682E0310600DB83E9B
:101CE0008400831300081F394038800083160317CF
:101CF0003F0883120313640503197F2E802E912E53
:101D00006508E00001300310E00DFF3E031D832E47
:101D10000310600DB83E8400831300081F3920387B
:101D20008000E50A0310E40D04306502031C992EBF
:101D30009A2E5B2EE501E401E40A0310650DE30031
:101D40006308013EE2008316031741088312031360
:101D500064050319AC2EAD2EB62E6308C63E840072
:101D6000831300081F3980388000C82E831603179C
:101D700042088312031364050319BF2EC02EC82E18
:101D80006208C63E8400831300081F398038800033
:101D9000E50A0310E40D06306502031CD02ED12E97
:101DA0009D2E83160317BA01B92F83120313E50181
:101DB0006508E00001300310E00DFF3E031DDB2E3F
:101DC0000310600DB83E8400831300080739E1005A
:101DD0006508BB3E840083170008073961060319B4
:101DE000F22EF32E1A2F6508BB3E84000730000543
:101DF000E0006508E10001300310E10DFF3E031D26
:101E0000FC2E0310610DB83E8400831300086006A9
:101E1000F839600680006508BB3E8400831700081F
:101E2000DA00650865076507143E0A168A11B922AB
:101E30000A128A1583120313E50A04306502031C93
:101E4000222F232FD82ED12E83120313E5016508EC
:101E5000BB3E840083170008E0006508D33E840081
:101E6000000860060319352F362F4C2F6508BB3E3E
:101E700084000008E0006508D33E8400600880000C
:101E80006508D33E84000008DA006508323E0A1671
:101E90008A11B9220A128A1583120313E50A0D303A
:101EA0006502031C542F552F272FD12E83120313A5
:101EB000E5016508BB3E840083170008E000650863
:101EC000E63E84008313000860060319682F692F1B
:101ED000812F6508BB3E840083170008E000650879
:101EE000E63E84006008831380006508E63E8400B7
:101EF0000008DA0065082A3E0A168A11B9220A1279
:101F00008A1583120313E50A06306502031C892F24
:101F10008A2F592FD12E831203134018902F912FFF
:101F2000A12F831603173B0883120313C000401C24
:101F30009A2F9B2FD12E0A168A1107260A128A156C
:101F4000D12E831603173B0883120313C000D12E32
:101F50003A08013A03193C2E033A0319D52E013AE7
:101F60000319242F073A0319562F013A03198B2F0F
:101F7000D12E831203133703031DBF2FC02FC82F89
:101F80004908031DC42FC72F5312C903C82F531666
:101F9000D308031DCC2FCD2FD92F143045020318A1
:101FA000D22FD32FD62FBD11C50AFF2FBD15C501C6
:101FB000FF2F531EDC2FDD2FEE2F143045020318A8
:101FC000E22FE32FE52FBD11E62FBD15C50A2830FE
:101FD0004502031CEC2FED2FFF2FD72F0A304502AF
:101FE0000318F32FF42FF62FBD11F72FBD15C50AD7
:101FF00014304502031CFD2FFE2FFF2FD72F0800A2
:10239600FD0183120313B60183160317BA01080061
:1023A60064008001840A0406031900340406D42953
:1023B600F000941370089300941BE229E329DC29AA
:1023C600141608000A168A11A1230A168A110A127F
:1023D6008A1504210A168A110800DA00DB01F6299B
:1023E6000630DB00FB295A08003A0319F329FB29BA
:1023F6005B0808000A168A115F240A168A110A1257
:102406008A119C240A168A110A168A116F270A163F
:102416008A110800DD011B2A5D08DA00DB010230A3
:102426000A128A15DB210A168A1183120313DD0AA2
:102436004B085D02031C202A212A0F2A9B01CF305C
:102446009D050800DD005D08DE00DF010310DE0DDE
:10245600DF0D1430DE070318DF0AFE30DE0501301B
:10246600DF050030DE040630DF045F08DB005E08AF
:10247600DA0008007208F006B90108303902031CB8
:10248600452A462A472A582A701C4A2A4B2A532A82
:102496000310F10CF00C0130F006A030F106562ABC
:1024A6000310F10CF00CB90A402A0800DA006400A7
:1024B600831603178C18602A632A831203135A2A79
:1024C600831203135A0803178D003F3083168C05B9
:1024D6000C1403100C180314003003180130831277
:1024E6000C080800DE01DF015A1C7A2A7B2A812AA1
:1024F6005C08DE070318DF0A5D08DF070310DC0D42
:10250600DD0D0310DB0CDA0C5B085A04031D8C2A64
:102516008D2A772A5F08DB005E08DA000800F100E2
:102526009C2A7008031D982A9A2A3E14AA2A3E104D
:10253600AA2A7108003A0319942A013A0319AA2A09
:10254600033A0319AA2A013A0319AA2AAA2A3A0817
:1025560085003B0886003C0887003D0888003E0849
:1025660089003F088316031788000800DB008316DE
:1025760003178C18BF2AC02ABA2A831203135B08D2
:1025860003178D0003135A0803178C003F30831678
:102596008C0503108B1FD02AD12AD22A03148B1341
:1025A6000C1555308D00AA308D008C140C11031CAF
:1025B600DD2ADE2ADF2A8B1708000D30DD00DE015A
:1025C6000D300A168A1159220A168A110313DC00E5
:1025D600DD0A0319DE0A5C030319F22AF32A062B25
:1025E600DA015D080A168A11B9220A168A118312BF
:1025F6000313DD0A0319DE0ADA015D080A168A11D9
:10260600B9220A168A110800FF308312AC00FF3087
:10261600AD00B8012A2B2D08F1002C08F00038086F
:102626007307F60074080318013EF7007608840065
:102636008317771C83130008F2000A168A113D22BD
:102646000A168A117108AD007008AC00B80A750840
:102656003802031C2F2B302B0E2B2D08F4002C08D0
:10266600F30008000B1D382B392B502B8B1E3C2BEF
:102676003D2B502B83120313C10A32303402031848
:10268600452B462B482BB40A4D2B0A168A111A24C1
:102696000A168A11823081020B11831203138C1DD4
:1026A600552B562B612B8C1183168C1D5B2B5C2BAB
:1026B600612B0A128A151F230A168A117B088A00C3
:1026C6007A088400790E8300FE0E7E0E0900DA0079
:1026D600DB01852B0230DB009F2B0330DB009F2BB9
:1026E6000430DB009F2B0530DB009F2B0830DB001E
:1026F6009F2B0930DB009F2B1230DB009F2B133002
:10270600DB009F2B5A08003A03196D2B013A031977
:10271600702B033A0319732B013A0319762B073AE8
:102726000319792B013A03197C2B033A03197F2BE2
:10273600013A0319822B9F2B5B080800E101D52B78
:10274600DF01DF0AE001610AAB2B0310DF0DE00DAC
:10275600FF3E031DA82B5F083205DD006008330528
:10276600DE005E085D04031DB92BBA2BC82B401989
:10277600BD2BBE2BC82B6108DA00DB0100300A1224
:102786008A15DB210A168A11D22B6108DA00DB01D1
:10279600DB0A00300A128A15DB210A168A11831217
:1027A6000313E10A4C086102031CDA2BDB2BA32B73
:1027B6000800DD005D08203E84000018E32BE42BB2
:1027C600FF2BDA01DB0101300A128A15DB210A161A
:1027D6008A115C30831203139B0030309D04143041
:1027E600C3005D08DA00DB01DB0A02300A128A1533
:1027F600DB210A168A11192CDA01DA0ADB0101300B
:102806000A128A15DB210A168A11831203139B0109
:10281600CF309D051430C3005D08DA00DB01DB0A0A
:1028260002300A128A15DB210A168A1108004D08A1
:102836005102031C1F2C202C212CD1010310510DF9
:10284600DE3E840083130008840A000403192C2C3E
:102856002D2C5D2C0310510DDE3E8400001C342C03
:10286600352C3E2CF001F00A51080A168A119222E4
:102876000A168A11452CF00151080A168A1192226D
:102886000A168A11831203130310510DDE3E8400CB
:102896000008F200840A0008F3000310F30CF20C9F
:1028A6000310510DDE3E840072088000840A73080E
:1028B60080005E2CD10A0800E101A82CDF01DF0AA6
:1028C600E001610A692C0310DF0DE00DFF3E031DD8
:1028D600662C61080A168A1155250A168A11E20025
:1028E6006208A03E84008313000EDC00DC0C5C0C46
:1028F6000139DD006208A03E8400000EDE005E0C99
:1029060001395D060319882C892C942C6208A03E97
:102916008400801A8F2C902C9F2C6208A03E840085
:1029260000136008DD005F08DC00DC09DD095C08D7
:10293600B0055D08B105A72C6208A03E840000170B
:102946005F08B0046008B104E10A46086102031C8E
:10295600AD2CAE2C612C0800DE01FB2C5E080A12A1
:102966008A11DC260A168A11DD005E08A03E840064
:102976008313000801395D060319C22CC32CD02C21
:102986005E08A03E84005D080010031D00145E086A
:10299600A03E8400E1308005F82C5E08A03E84004D
:1029A600000C0F39DC0004305C020318DB2CDC2C35
:1029B600EA2C5E08A03E8400000C0F39DC00DC0A1D
:1029C600DC0D00085C06E1395C068000F82C5E0828
:1029D600A03E84000018F32CF62C5E08A03E84006E
:1029E60083138016F82C8313801283120313DE0AD6
:1029F6004A085E02031C002D012DB12C0800DD00E3
:102A0600DC014E085D020318092D0A2D102D063033
:102A16005D02031C0F2D102D482D0130542D5D082D
:102A2600E63E840083138008031D1A2D1B2D202DDE
:102A36005D08E63E8400783080005D08E63E84004E
:102A46000008DB005D08E03E84005B088317800019
:102A5600532D5D08E03E840083178001532D5D08E9
:102A6600E03E84008317800803193A2D3B2D452D3F
:102A76003703031D3F2D402D532D5D08E03E840096
:102A86008003532DDC01DC0A532D5A08003A031942
:102A9600122D013A03192C2D033A0319322D532D09
:102AA6005C080800DA00DB017E2DDB01A72DDB01C7
:102AB600DB0AA72D0730DB00A72D0A30DB00A72D88
:102AC6000B30DB00A72D0C30DB00A72D0D30DB0013
:102AD600A72D0E30DB00A72D0F30DB00A72D103001
:102AE600DB00A72D1130DB00A72D1430DB00A72D4E
:102AF6001530DB00A72D5A08003A0319582D013A64
:102B060003195A2D033A03195D2D013A0319602D55
:102B1600073A0319632D013A0319662D033A03197F
:102B2600692D013A03196C2D0F3A03196F2D013ADD
:102B36000319722D033A0319752D013A0319782DDD
:102B4600073A03197B2DA72D5B080800E300E20175
:102B56004C0863020318B02DB12DB72D0D3063025A
:102B6600031CB62DB72DB92D0030062E6108600462
:102B7600031DBE2DBF2DC82D0310630DA03E84007E
:102B860083178001840A8001052E0310630DA03E81
:102B9600840083170008840A00040319D32DD42D5A
:102BA600EE2D0310630DA03E840001308002840FD9
:102BB6000030031C8003800284030310630DA03ED3
:102BC60084000008840A0004031DEA2DEB2D052E5F
:102BD600E201E20A052E6308D33E84000008DA000B
:102BE600DB013C30DC00DD010A168A1175220A166B
:102BF6008A110310630DA03E84005A088000840ADF
:102C06005B088000620808001030DE00DF01320831
:102C1600DC005C08DA0010300A168A11B9220A169E
:102C26008A1183120313DE0A0319DF0A3308DC0054
:102C36005C08DA005E080A168A11B9220A168A1199
:102C460083120313DE0A0319DF0ADD01542E5D0821
:102C56005D075D07D23E840083130008DA005E0834
:102C66000A168A11B9220A168A1183120313DE0A7A
:102C76000319DF0A5D085D075D07D33E84008313F1
:102C86000008DA005E080A168A11B9220A168A11A5
:102C960083120313DE0A0319DF0ADE0A0319DF0AA9
:102CA600DD0A4D085D02031C592E5A2E2A2E42308B
:102CB6000A168A1159220A168A11013E0313CF00F9
:102CC6004F08FF3A031D682E692E6B2ECF01CF0ADF
:102CD6004F08DA0042300A168A11B9220A168A11FA
:102CE60008008316910103308312031787008316A9
:102CF60003138F010C3083129D005C309B00303033
:102D06009D04F9308316920083128C1083168C1062
:102D1600043083129200833083168100823083123E
:102D260081000B118B16163003178900C0308316ED
:102D360003138704263093009401831294013630DE
:102D460094008C1183168C1506140317851505152A
:102D56008514051487160716871507158714071493
:102D660003138817081788160816871607160814F7
:102D7600871507158714071488118610061109117F
:102D86000317851305138512051203138512051201
:102D96008511051185100510081588108611061273
:102DA60086128910091289128913091309108312D0
:102DB6003E143A0885003B0886003C0887003D081B
:102DC60088003E0889003F088316031788006400C0
:102DD60008000A128A1554200A168A110A168A1140
:102DE60074260A168A110A168A11CB210A168A1126
:102DF6000A128A1500200A168A110A168A11E0227A
:102E06000A168A110A128A1588240A168A110A12C3
:102E16008A11B6270A168A118B170B17162F8316D7
:102E2600081183128C108C18192F1A2F122F0A12C0
:102E36008A1500200A168A110C304102031C242F21
:102E4600252F432F0C30C10265304102031C2C2F65
:102E56002D2F2E2FC101C40A0A168A11AF240A1675
:102E66008A114308031D382F432FC303C308031DCC
:102E76003D2F3E2F432F0A168A110D220A168A115C
:102E860008304402031C482F492F1A2FC401C20AD6
:102E960019304202031C502F512F542FC201B70183
:102EA600B70A0A168A11FD210A168A110A128A1110
:102EB60041200A168A110A128A1535260A168A111F
:102EC6000A168A11E5210A168A1183120313B7011D
:102ED6001A2F0A128A110E28E001F92F60080A1625
:102EE6008A116A230A168A11DF005F08A03E840051
:102EF6008313000EDC00DC0C5C0C0139DD005F087E
:102F0600A03E8400000EDE005E0C01395D0603194A
:102F16008D2F8E2FA32F5F08A03E8400801A942F3A
:102F2600952F9A2F5F08A03E840000139E2F5F08FE
:102F3600A03E840000176008C63E8400F03080057D
:102F46005F08A03E8400801AA92FAA2FD02F600800
:102F5600C63E8400001EB02FB12FBC2F6008C63EAF
:102F6600840000081F39403880006008C63E84008F
:102F760000126008C63E8400000EDC005C0C0739B7
:102F8600033A031DC72FC82FF82F6008C63E8400DA
:102F960000081F3920388000F82F6008C63E8400DC
:102FA60000080F39DC0006305C020318DB2FDC2F2B
:102FB600ED2F6008C63E840000080F39DC00DC0AED
:102FC60000085C06F0395C0680006008C63E840096
:102FD6000016F82F6008C63E840000081F396038C6
:102FE60080006008C63E84000012E00A48086002BD
:0A2FF600031CFE2FFF2F712F0800AF
:02400E00F2FFBF
:00000001FF
