:100000000A128A1112280534FE00030E831203130C
:10001000D7000408D8000A08D9007F08DA000A16B9
:100020008A15C02A0A168A15912983120317C90155
:100030009B28490A83160317EB000130EC000030BF
:10004000ED0025280310EC0DED0DEB0B22286C08BC
:1000500083120317C500831603176D088312031755
:10006000C6004508831603136A0583160317EB00C1
:10007000831203174608831603136B0583160317B1
:10008000EC006C086B040319462847285528831296
:100090000317450883120313AA06831203174608A1
:1000A00083120313AB065528552883120313320815
:1000B000013A031D5C285D28922883120317450826
:1000C000831203132A05E1008312031746088312E3
:1000D00003132B05E2008312031749080A128A1141
:1000E00072270A128A11013A031D7728782892286C
:1000F00083120317460883160317EC0083120317B5
:10010000450883160317EB00EB09EC096B08831213
:100110000313AA05831603176C0883120313AB0598
:1001200092289228013083160317EB006B08831284
:100130000317C9079B288312031348088312031768
:100140004902031CA428A5281928C901CE2A490858
:1001500083160317EB006B07EC006C088312031780
:10016000C8004808013E83160317EB006B08831292
:100170000317C700EA28D228D228D228C028C028CE
:1001800083124808B63E8400831300081F392038C4
:1001900080004708B63E840000081F3920388000E0
:1001A000CA29CA2983124708B63E84008313000E69
:1001B00083160317EB006B0C0739023A0319C028AA
:1001C000013A0319C028073A0319C028CA29CA29C5
:1001D000CA29CA2983124808B63E84008313000E38
:1001E00083160317EB006B0C0739023A0319D22868
:1001F000013A0319D228073A0319D228CA29CA2971
:10020000831203174808C23E840080180829092970
:100210002E294708C23E8400801C0F291029152969
:100220004708C23E84008010152983120313DB01A6
:100230008312031749080A168A1593240A128A1191
:100240002129831203174808C23E840083138014B7
:100250004808B63E84001F308005AC2A8312031381
:10026000DB01DB0A8312031749080A168A15932457
:100270000A128A113B29831203174808C23E8400E0
:10028000831380104808B63E84001F308005AC2AD6
:10029000AC2A83120313DB01DB0A8312031749081C
:1002A0000A168A1593240A128A11562983120317F3
:1002B0004808C23E8400831380144708C23E84006D
:1002C0008010AC2A83120313DB01DB0A83120317AD
:1002D00049080A168A1593240A128A116F29831273
:1002E00003174808C23E8400831380104808B63EB6
:1002F00084001F308005AC2A83124708C23E840068
:10030000801C8329842989294708C23E84008010E3
:10031000892983120313DB018312031749080A1684
:100320008A1593240A128A11952983120317480803
:10033000C23E8400831380144808B63E84001F30F8
:100340008005AC2A83124808C23E8400801CA9297B
:10035000AA29AC2A023083160317EB006B0883121C
:100360000313DB008312031749080A168A15932426
:100370000A128A11013A031DBE29BF29AC2A831231
:1003800003174808C23E840083138010AC2AAC2AAD
:10039000AC2AAC2A83124808B63E8400000E8316AD
:1003A0000317EB006B0C0739013A03196229033A72
:1003B00003190029013A03194929073A03197C292D
:1003C000A229AC2A831203174708C23E8400801872
:1003D000EA29EB29102A4808C23E8400801CF12932
:1003E000F229F7294808C23E84008010F7298312B9
:1003F0000313DB018312031749080A168A15932495
:100400000A128A11032A831203174708C23E840086
:10041000831380144708B63E84001F308005C52A28
:1004200083120313DB01DB0A8312031749080A1640
:100430008A1593240A128A111D2A8312031747086A
:10044000C23E8400831380104708B63E84001F30EC
:100450008005C52AC52A83120313DB01DB0A831238
:10046000031749080A168A1593240A128A11382A92
:10047000831203174708C23E840083138014480880
:10048000C23E84008010C52A83120313DB01DB0AFD
:100490008312031749080A168A1593240A128A112F
:1004A000512A831203174708C23E84008313801029
:1004B0004708B63E84001F308005C52A83124808CD
:1004C000C23E8400801C652A662A6B2A4808C23E08
:1004D000840080106B2A83120313DB01831203173D
:1004E00049080A168A1593240A128A11772A831258
:1004F00003174708C23E8400831380144708B63EA2
:1005000084001F308005C52A83124708C23E84003C
:10051000801C8B2A8C2AC52A023083160317EB0015
:100520006B0883120313DB008312031749080A16B2
:100530008A1593240A128A11013A031DA02AA12ABE
:10054000C52A831203174708C23E84008313801014
:10055000C52AC52AC52AC52A831203174708B63EED
:1005600084008313000E83160317EB006B0C07390E
:10057000013A0319442A033A0319E229013A0319FB
:100580002B2A073A03195E2A842A0130831603179F
:10059000EB006B0883120317C907CE2A83120313DB
:1005A0004908831203174902031CD72AD82AA7280F
:1005B000C9016A2F782D972D033083160317EB009E
:1005C0006B0883120313DB008312031749080A1612
:1005D0008A15DE200A128A11CE3E84008313800120
:1005E000031483120317490D203E84008012031464
:1005F000490D203E8400E3308005972D8312490881
:1006000083160317EB006B07203E840000080739B0
:10061000023A03190C2B0D2B1E2B831203174908CA
:1006200083160317EB006B07203E84000008073990
:100630000038031D1C2B1D2B362B1E2B6430EB00AA
:100640000330EC006C0883120313DB0083120317E2
:1006500049080A168A15DE200A128A11013ECE3E8A
:100660008400831603176B08831380000330EB00AC
:100670006B0883120313DB008312031749080A1661
:100680008A15DE200A128A11013ECE3E84008313B1
:100690000008803A7F3E03184E2B4F2B692B6430A5
:1006A00083160317EB000330EC006C08831203136E
:1006B000DB008312031749080A168A15DE200A1286
:1006C0008A11013ECE3E8400831603176B08831304
:1006D0008000033083160317EB006B0883120313AB
:1006E000DB008312031749080A168A15DE200A1256
:1006F0008A11013ECE3E840083130008831603173F
:10070000EC000330ED006D0883120313DB0083124D
:10071000031749080A168A15DE200A128A11CE3EEE
:100720008400831603176C0883138000031483125C
:100730000317490D203E840080120314490D203E0A
:100740008400E3308005972D831249088316031730
:10075000EB006B07203E840000080739023A0319BA
:10076000B22BB32BC42B831203174908831603172C
:10077000EB006B07203E8400000807390038031D9A
:10078000C22BC32BDC2BC42B6430EB000330EC00FA
:100790006C0883120313DB008312031749080A163F
:1007A0008A15DE200A128A11013ECE3E840083168D
:1007B00003176B08831380000330EB006B08831270
:1007C0000313DB008312031749080A168A15DE207B
:1007D0000A128A11CE3E840083130008803A7F3EBD
:1007E000031CF32BF42B102C033083160317EB00A0
:1007F0006B0883120313DB008312031749080A16E0
:100800008A15DE200A128A11CE3E840083138001ED
:10081000031483120317490D203E840080127A2CA2
:10082000033083160317EB006B0883120313DB00FE
:100830008312031749080A168A15DE200A128A1144
:10084000013ECE3E840083130008803A7F3E0318A9
:100850002A2C2B2C452C643083160317EB00033015
:10086000EC006C0883120313DB00831203174908A2
:100870000A168A15DE200A128A11013ECE3E840035
:10088000831603176B088313800003308316031746
:10089000EB006B0883120313DB0083120317490874
:1008A0000A168A15DE200A128A11013ECE3E840005
:1008B0008313000883160317EC000330ED006D0866
:1008C00083120313DB008312031749080A168A15E3
:1008D000DE200A128A11CE3E8400831603176C08AC
:1008E00083138000031483120317490D203E8400F4
:1008F00080127A2C0314490D203E8400E3308005D9
:10090000972D643083160317EB000330EC006C085E
:1009100083120313DB008312031749080A168A1592
:10092000DE200A128A11CE3E8400831603176B085C
:1009300083138000031483120317490D203E8400A3
:1009400080160314490D203E8400E3308005972D66
:1009500003148312490D203E8400801AB02CB12C60
:10096000002D033083160317EB006B08831203136B
:10097000DB008312031749080A168A15DE200A12C3
:100980008A11CE3E840083130008803A1D3E03186E
:10099000CA2CCB2CE52C013083160317EB00033057
:1009A000EC006C0883120313DB0083120317490861
:1009B0000A168A15DE200A128A11CE3E840083169A
:1009C00003176B0883138007492D643083160317C0
:1009D000EB000330EC006C0883120313DB0083127E
:1009E000031749080A168A15DE200A128A11CE3E1C
:1009F0008400831603176B0883138000492D492D4B
:100A0000033083160317EB006B0883120313DB001C
:100A10008312031749080A168A15DE200A128A1162
:100A2000CE3E840083130008803A7E3E031C192DBD
:100A30001A2D342DFF3083160317EB000330EC0022
:100A40006C0883120313DB008312031749080A168C
:100A50008A15DE200A128A11CE3E840083160317FF
:100A60006B0883138007492D033083160317EB00AF
:100A70006B0883120313DB008312031749080A165D
:100A80008A15DE200A128A11CE3E8400831380016B
:100A9000492D033083160317EB006B0883120313F1
:100AA000DB008312031749080A168A15DE200A1292
:100AB0008A11CE3E84008313000883160317EC00CE
:100AC0000330ED006D0883120313DB00831203175C
:100AD00049080A168A15DE200A128A11013ECE3E06
:100AE0008400831603176C0883138000972D972DBD
:100AF00003148312490D203E84008313000C8316D7
:100B00000317EB006B0C0739003A0319972D013AD4
:100B10000319DC2A033A0319FE2A013A0319A42B0C
:100B2000073A0319812C013A0319A82C972D033099
:100B300083160317EB006B0883120313DB00831289
:100B4000031749080A168A15DE200A128A11CE3EBA
:100B500084008313801FAD2DAE2DC22D033083166C
:100B60000317EB006B0883120313DB0083120317D8
:100B700049080A168A15DE200A128A11CE3E840020
:100B800083138001033083160317EB006B08831275
:100B90000313DB008312031749080A168A15DE20A7
:100BA0000A128A11CE3E840083130008803A1B3E4D
:100BB000031CDB2DDC2DF62D643083160317EB00B0
:100BC0000330EC006C0883120313DB00831203175D
:100BD00049080A168A15DE200A128A11CE3E8400C0
:100BE000831603176B0883138000F62D83120313FB
:100BF0003B19FB2DFC2DE72E033083160317EB006A
:100C00006B0883120313DB008312031749080A16CB
:100C10008A15DE200A128A11023ECE3E840083131A
:100C2000000883160317EC000330ED006D088312F3
:100C30000313DB008312031749080A168A15DE2006
:100C40000A128A11CE3E840083130008831603170C
:100C50006C0603192C2E2D2E612F0330EB006B0830
:100C600083120313DB008312031749080A168A153F
:100C7000DE200A128A11CE3E8400831300088316F8
:100C80000317EC000330ED006D0883120313DB0043
:100C90008312031749080A168A15DE200A128A11E0
:100CA000023ECE3E8400831603176C088313800037
:100CB000D02E0330EB006B0883120313DB0083128A
:100CC000031749080A168A15DE200A128A11CE3E39
:100CD000840083130008803A6C3E0318702E712E36
:100CE000892E6B300A168A151B210A128A1183126B
:100CF0000317490883160317EB006B07DA3E8400DD
:100D0000831203135B0883138000840A5C0880004D
:100D1000612F6A300A168A151B210A128A11831262
:100D20000317490883160317EB006B07DA3E8400AC
:100D3000831203135B0883138000840A5C0880001D
:100D4000612F612FA32E033083160317EB006B086E
:100D500083120313DB008312031749080A168A154E
:100D6000DE200A128A11CE3E8400831300086E3EF4
:100D70000A168A151B210A128A11831203174908C1
:100D800083160317EC006C07DA3E8400831203130A
:100D90005B0883138000840A5C088000612F612F48
:100DA00083120317490883160317EB006B07203ED5
:100DB000840000080739003A0319A32E013A0319E9
:100DC000A32E033A0319592E612F612F612F03308F
:100DD00083160317EB006B0883120313DB008312E7
:100DE000031749080A168A15DE200A128A11023EE4
:100DF000CE3E840083130008FF3A0319002F012F11
:100E0000612F033083160317EB006B088312031363
:100E1000DB008312031749080A168A15DE200A121E
:100E20008A11023ECE3E84008313800180034A2F44
:100E30006A300A168A151B210A128A1183120317B7
:100E4000490883160317EB006B07DA3E8400831210
:100E500003135B0883138000840A5C088000612F01
:100E6000312FD2300A168A151B210A128A118312D9
:100E70000317490883160317EB006B07DA3E84005B
:100E8000831203135B0883138000840A5C088000CC
:100E9000612F612F83120317490883160317EB0094
:100EA0006B07203E840000080739003A0319312FF0
:100EB000013A0319312F033A0319182F612F612FBB
:100EC000612F013083160317EB006B0883120317A1
:100ED000C9076A2F7B084902031C6F2F702F782DDA
:100EE000712F080083160317EA00E9018312031328
:100EF0004808831603176A0203187F2F802F872F55
:100F00000D306A02031C852F862F8A2F872F6908D0
:100F1000FA2FFA2F8312031362086104031D912F25
:100F2000922FA02F831603176A08E6006607A03EDB
:100F30008400003083178000840A00308000F62F80
:100F4000831603176A08E6006607A03E840083172D
:100F50000008840A00040319AE2FAF2FCC2F6A08B3
:100F6000E6006607A03E840001308002840F003056
:100F7000031C8003800284036A08E6006607A03E23
:100F800084000008840A0004031DC72FC82FF62F11
:100F9000E901E90AF62FF62F6A08D33E840000081B
:100FA000E600E701660883120313DB0083160317CC
:100FB000670883120313DC003C30DD000030DE00E4
:100FC0000A168A1565210A128A11831603176A0800
:100FD000E8006807A03E8400831203135B088317B0
:100FE0008000840A5C088000F62FF62F8316031712
:100FF0006908FA2F0800831203131308FF2F080053
:10100800053083120313640203180B280C281128D7
:101018000130E1006108E4071128E201F6280530F3
:101028006402031C18281928EF28BB1C1C281D283B
:1010380022286208C23E8400831380106208C23EE0
:1010480084008313000C0139E1006208C23E840069
:10105800000801396106031932283328EF2862187D
:101068003628372882286208C23E8400801C3D2822
:101078003E2882286208013EC23E8400001C4528A2
:10108800462866286208013EC23E84008010620835
:10109800013EC23E84008018562859286208013E45
:1010A800C23E8400831300145B288313001083124C
:1010B8000313E4016208013E0A168A1598230A12EE
:1010C8008A15FD28831203136208C23E8400831325
:1010D8008018722875286208C23E840083130014A1
:1010E80077288313001083120313E40162080A1699
:1010F8008A1598230A128A15FD28FD28621C85285E
:101108008628D1286208C23E8400801C8C288D283D
:10111800D1286208FF3EC23E8400001C942895280E
:10112800B5286208FF3EC23E840080106208FF3E78
:10113800C23E84008018A528A8286208FF3EC23E47
:10114800840083130014AA28831300108312031346
:10115800E4016208FF3E0A168A1598230A128A15C6
:10116800FD28831203136208C23E8400831380188B
:10117800C128C4286208C23E840083130014C6280C
:101188008313001083120313E40162080A168A15F8
:1011980098230A128A15FD28FD2883120313620872
:1011A800C23E840083138018DD28E0286208C23E0E
:1011B800840083130014E22883130010831203139E
:1011C800E40162080A168A1598230A128A15FD286E
:1011D800FD28FD28EF28013083120313E100610880
:1011E800E207F62847086202031CFB28FC2813289C
:1011F800FD28080083160313140883120313D00074
:101208005008AE003C30D0005008C500AE1A0D2979
:101218000E293F292E19112912293F292E1C15297B
:1012280016293F29AE1D19291A293F29640083165A
:1012380003136C16193083120313D0005008B00042
:101248000A128A11FB270A128A1583120313D00087
:10125800500883120317AC0083120313AF01AF0ABF
:10126800CC01CD01141F39293A29EA2ACD15CD140C
:101278001413EA2AEA2AAE1E42294329432A2E19C0
:1012880046294729432A2E1C4A294B29432A2F0835
:10129800193A031D5029512958294D15CD141830D4
:1012A800D0005008AF005829141F5B295C29602919
:1012B800CD15CD14141360290A128A11FB270A12BE
:1012C8008A1583120313D0002F082C3E840050087F
:1012D800831780002F08013A031D73297429B9293F
:1012E800932993290B30D0005008B000A7290B3060
:1012F800D0005008B000A7291330D0005008B00023
:10130800A7290B30D0005008B000A7290430D0001E
:101318005008B000A7294D15CD14A729A7292F08D3
:101328002C3E84000008013A03197629033A031970
:101338007B29013A03198029073A03198529013ABB
:1013480003198A298F292F082C3E84000008D00011
:101358005008CC00CD131A303002031CB429B5292B
:101368003E2A4D15CD143E2A3E2A2F083002031876
:10137800BE29BF29C2294D15CD143E2A2F08300693
:10138800031DC729C8293E2A2D30F5000130F60073
:101398002F08FE3ED0005008F7000A168A150423CD
:1013A8000A128A15760883120313A901A90775087A
:1013B800A801A8072F082C3E840083170008D00036
:1013C800D1015008D100D0012F08FF3E2C3E8400E7
:1013D80000085007D2000030031801305107D3002D
:1013E80053082906031DFA29520828060319FD295E
:1013F800FE29032AA801A9014D14CD143E2A4D1037
:1014080083160317BA08031D0A2A0B2A352A8312E2
:101418000313D401D40AD5012D2A5508193A031DFE
:10142800162A172A1A2A0130D5021A2A54082C3EDD
:1014380084000008D0005508BA3E84005008800097
:101448000130D0005008D4070130D0005008D5072B
:101458002D2A54082F020318322A332A112ACD10B4
:101468003E2A83120313CD143E2A3E2A3E2A3E2AE0
:101478003E2A3E2A0130D0005008AF07EA2AAE1AA9
:10148800462A472A5B2A2E1D4A2A4B2A5B2A2E18EF
:101498004E2A4F2A5B2AAE1D522A532A5B2AB101D3
:1014A8004C080A168A15AF200A128A15EA2AAE1EB7
:1014B8005E2A5F2AD42A2E1D622A632AD42A2E186D
:1014C800662A672AD42AC32AC32A2808D0005008C3
:1014D800CD004D080A168A15AF200A128A15013068
:1014E80083120313D0005008B107EA2A2908D00054
:1014F8005008CE004E080A168A15AF200A128A151F
:10150800013083120313D0005008B107EA2A4C3087
:10151800F5000030F6000330D0005008F7000A1636
:101528008A1504230A128A15760883120313A9015F
:10153800A9077508A801A80728080A168A15AF2060
:101548000A128A15013083120313D0005008B1071C
:10155800EA2A29080A168A15AF200A128A150130C4
:1015680083120313D0005008B107EA2ACD1755306B
:101578000A168A15AF200A128A15EA2AEA2A83125D
:1015880003133108003A0319692A013A03197A2A20
:10159800033A03198B2A013A0319AD2ABA2AEA2A0F
:1015A800AE1ED72AD82AEA2A2E19DB2ADC2AEA2AEA
:1015B8002E18DF2AE02AEA2A831603136C12640025
:1015C800EA2AEA2AEA2AEA2AEA2AEA2A08008316FA
:1015D80003173A08031DF12ABB2CA92CA92C3C0897
:1015E80083120313AA04831603173E0883120313F6
:1015F800AB04831603173D08EB003B08EA00EA0931
:10160800EB096A0883120313AA05831603176B08EC
:1016180083120313AB0583160317EF01EE01EE0ADD
:1016280004306F02031C192B1A2B1C2B4C2B4C2B30
:1016380040086E050319212B222B2C2B03146F0D48
:10164800203E840083130008E339083880002C2BDF
:101658003F086E050319312B322B3C2B03146F0DF9
:10166800203E840083130008E339043880003C2BB3
:101678000130EA006A08EF076E08EA006A07EB0023
:101688006B08EE0004306F02031C4B2B4C2B1C2BF9
:10169800EF01EE01EE0A06306F02031C542B552BA6
:1016A800572B912B912B6F08EA006A07EB006B0808
:1016B800ED006D08013EEA006A08EC0041086E057D
:1016C8000319672B682B712B6D08B63E84008313B2
:1016D80000081F3980388000812B42086E050319E5
:1016E800762B772B812B6C08B63E84008313000879
:1016F8001F3980388000812B812B0130EA006A086D
:10170800EF076E08EA006A07EB006B08EE00063088
:101718006F02031C902B912B572BBA01BB2CEF01A6
:1017280004306F02031C992B9A2B9C2BF12BF12B65
:101738006F08EA006A07203E84008313000807390F
:10174800EB006F08013EBA3E840083170008073992
:101758006B060319B02BB12BE52B6F08013EBA3E7F
:10176800840007300005EA006F08EB006B07203E95
:101778008400831300086A06F8396A0680006F0837
:10178800013EBA3E840083170008EA006A08831203
:101798000313DF00033083160317EB006B08831273
:1017A8000313DB00831603176F080A168A15DE2059
:1017B8000A128A15143E0A168A15C1210A128A15B8
:1017C800E52B013083160317EA006A08EF07043097
:1017D8006F02031CF02BF12B9C2BBA01BB2CEF01E1
:1017E8000D306F02031CF92BFA2BFC2B362C362CF0
:1017F8006F08013EBA3E840083170008EA006F08AC
:10180800D33E840000086A0603190B2C0C2C2A2CE2
:101818006F08013EBA3E84000008EA006F08D33E14
:1018280084006A0880006F08D33E84000008EA003C
:101838006A0883120313DF00831603176F08323E0A
:101848000A168A15C1210A128A152A2C0130831614
:101858000317EA006A08EF070D306F02031C352CE6
:10186800362CFC2BBA01BB2CEF0106306F02031C8F
:101878003E2C3F2C412C7E2C7E2C6F08013EBA3E1C
:10188800840083170008EA006F08E23E840083138F
:1018980000086A060319512C522C722C6F08013E5D
:1018A800BA3E840083170008EA006F08E23E84000D
:1018B8006A08831380006F08E23E84000008EA008B
:1018C8006A0883120313DF00831603176F082A3E82
:1018D8000A168A15C1210A128A15722C013083163C
:1018E8000317EA006A08EF0706306F02031C7D2C15
:1018F8007E2C412CBA01BB2C831203133B18852C78
:10190800862C992C831603173B08EA006A08831271
:101918000313BB003B1C912C922CA22C0A168A1193
:101928006A210A128A15A22CA22C831603173B08D7
:10193800EA006A0883120313BB00A22C831603175C
:10194800BA01BB2CBA01BB2CBB2C3A08013A0319CB
:10195800F32A033A0319932B013A0319F32B073A95
:101968000319382C013A0319802CA62CBB2C83129E
:1019780003133208013A031DC22CC32CCE2C450890
:10198800031DC72CCB2C4D120130C502CE2C4D1691
:10199800CE2CCE2CCD08031DD22CD32CEE2C1430FB
:1019A80040020318D82CD92CEA2CF73083160317D9
:1019B800EA006A0883120313B80501308316031777
:1019C800EA006A0883120313C007372DB815C0014F
:1019D800372D372D4D1EF12CF22C142D14304002CA
:1019E8000318F72CF82C012DF73083160317EA009B
:1019F8006A0883120313B805032DB815032D0130A7
:101A080083160317EA006A0883120313C0072830F5
:101A18004002031C102D112D372DC001372D372DF5
:101A28000A3040020318192D1A2D232DF73083167A
:101A38000317EA006A0883120313B805252DB815A1
:101A4800252D013083160317EA006A088312031351
:101A5800C00714304002031C322D332D372DC0012E
:101A6800372D372D372D08000E3083160317EC005D
:101A78000030ED00E901EA016C080A168A154021D8
:101A88000A128A1583160317E600E7016608E900BB
:101A98006708EA000130EC070318ED0A0030ED078B
:101AA8006C080A168A1540210A128A15831603172C
:101AB800E600E7016608E700E6016608E90467084A
:101AC800EA040130EC070318ED0A0030ED07AA30EC
:101AD8006A06031D712D55306906031D742D752D79
:101AE800902E6C080A168A1540210A128A15831648
:101AF8000317E600E701660883120313AA0083169A
:101B08000317670883120313AB000130831603170A
:101B1800EC070318ED0A0030ED076C080A168A1561
:101B280040210A128A1583160317E600E7016608A2
:101B3800E700E601660883120313AA048316031755
:101B4800670883120313AB04013083160317EC07ED
:101B58000318ED0A0030ED07EB011D2E6C080A167C
:101B68008A1540210A128A1583160317E6000330E6
:101B7800E700670883120313DB00831603176B085B
:101B88000A168A15DE200A128A15CE3E84008316AC
:101B980003176608831380000130EC070318ED0A69
:101BA8000030ED076C080A168A1540210A128A15BA
:101BB80083160317E6000330E70067088312031350
:101BC800DB00831603176B080A168A15DE200A1233
:101BD8008A15013ECE3E84008316031766088313D8
:101BE80080000130EC070318ED0A0030ED076C089F
:101BF8000A168A1540210A128A1583160317E60069
:101C080007306605E7006B08E8006807203E840097
:101C1800831300086706F839670680000130EC076F
:101C28000318ED0A0030ED070130E6006608EB07FF
:101C38001D2E7B086B02031C222E232EB22D242E70
:101C48002A30EC000030ED00EB0106306B02031C7B
:101C58002E2E2F2E312E512E512E6C080A168A1533
:101C680040210A128A1583160317E6006B08E23E24
:101C780084006608831380000130EC070318ED0A1E
:101C88000030ED070130E6006608EB0706306B020E
:101C9800031C4F2E502E312E512E3230EC000030C6
:101CA800ED00EB010D306B02031C5B2E5C2E5E2EEB
:101CB8007E2E7E2E6C080A168A1540210A128A1575
:101CC80083160317E6006B08D33E84006608831763
:101CD80080000130EC070318ED0A0030ED070130F1
:101CE800E6006608EB070D306B02031C7C2E7D2E88
:101CF8005E2E7E2E4230EC000030ED006C080A1695
:101D08008A1540210A128A1583160317E600660809
:101D180083120313CB00FF2F83120313DF018316F3
:101D280003176C080A168A15C1210A128A15013090
:101D380083160317EC070318ED0A0030ED0783122A
:101D48000313DF01831603176C080A168A15C121CD
:101D58000A128A15013083160317EC070318ED0AD7
:101D68000030ED0783120313AA01AB018316031792
:101D7800EB012E2F83120313DF01831603176C0860
:101D88000A168A15C1210A128A150130831603170B
:101D9800EC070318ED0A0030ED0783120313DF0187
:101DA800831603176C080A168A15C1210A128A15A8
:101DB800013083160317EC070318ED0A0030ED070E
:101DC8000330E600660883120313DB00831603174B
:101DD8006B080A168A15DE200A128A15CE3E840080
:101DE80083138001033083160317E6006608831205
:101DF8000313DB00831603176B080A168A15DE2007
:101E08000A128A15013ECE3E840083138001831294
:101E18000313DF01DF0A831603176C080A168A15F5
:101E2800C1210A128A15013083160317EC0703181B
:101E3800ED0A0030ED076B08E6006607203E8400D7
:101E480083130008F839013880000130E60066087D
:101E5800EB072E2F7B086B02031C332F342FBE2E6B
:101E6800352F2A30EC000030ED00EB0106306B0214
:101E7800031C3F2F402F422F6B2F6B2F7830E6002B
:101E8800660883120313DF00831603176C080A160B
:101E98008A15C1210A128A15013083160317EC0727
:101EA8000318ED0A0030ED077830E6006B08E23ED3
:101EB80084006608831380000130E6006608EB079B
:101EC80006306B02031C692F6A2F422F6B2F3230AA
:101ED800EC000030ED00EB010D306B02031C752F98
:101EE800762F782F9B2F9B2F83120313DF018316E6
:101EF80003176C080A168A15C1210A128A150130BF
:101F080083160317EC070318ED0A0030ED076B087A
:101F1800D33E8400831780010130E6006608EB0792
:101F28000D306B02031C992F9A2F782F9B2F42306C
:101F3800EC000030ED0083120313CB014B0883162D
:101F48000317E600660883120313DF0083160317DE
:101F58006C080A168A15C1210A128A1501308316DF
:101F68000317EC070318ED0A0030ED070D30EC00FD
:101F78000030ED0083120313DF01DF0A8316031715
:101F88006C080A168A15C1210A128A1501308316AF
:101F98000317EC070318ED0A0030ED075530E6008B
:101FA800660883120313DF00831603176C080A16EA
:101FB8008A15C1210A128A15013083160317EC0706
:101FC8000318ED0A0030ED07AA30E6006608831210
:101FD8000313DF00831603176C080A168A15C1213C
:101FE8000A128A15013083160317EC070318ED0A45
:081FF8000030ED07FF2F080087
:10200A000A168A1545270A168A110A168A116A2398
:10201A000A168A110A168A159B200A168A110A16A6
:10202A008A1529260A168A110A168A15FC210A1601
:10203A008A110A128A1538250A168A110A168A1569
:10204A00E8230A168A118B170B173528FB308316DB
:10205A000313ED006D088805831203138C103528CD
:10206A00831203138C183A283B282B283D283D2835
:10207A000A168A1529260A168A110C3083120313A6
:10208A003C02031C49284A2876280C30BC026530D9
:10209A003C02031C512852285428BC015428013000
:1020AA0083160313ED006D0883120313BF070A1684
:1020BA008A15F3240A168A11831203133E08031D94
:1020CA00672876280130BE02BE08031D6D286E28D7
:1020DA0076280A168A15F8200A168A11762876288A
:1020EA0076280830831203133F02031C7D287E28BA
:1020FA003D28BF01013083160313ED006D088312DA
:10210A000313BD0719303D02031C8C288D28912822
:10211A00BD01B201B20A91280A168A15BB200A1615
:10212A008A110A128A1115200A168A110A128A15A8
:10213A00EB220A168A110A168A15A4200A168A118F
:10214A0083120313B2013D283D283D280A128A1141
:10215A00122883120313E201622962080A168A15F9
:10216A004D230A168A1183120313DE005E08E1006A
:10217A006108A03E84008313000EDE00DE0C5E0CB4
:10218A000139DF006108A03E8400000EE000600C07
:10219A0001395F060319D228D328E8286108A03E2E
:1021AA008400801AD928DA28DF286108A03E840032
:1021BA000013E3286108A03E840000176208B63EB7
:1021CA008400F03080056108A03E8400801AEE2861
:1021DA00EF2833296208B63E840000080F39DE0072
:1021EA0006305E020318FA28FB2808296208B63E60
:1021FA00840000080F39DE00DE0A00085E06F039A6
:10220A005E0680000C296208B63E8400001262084D
:10221A00B63E8400001E122913291E296208B63E02
:10222A00840000081F39403880006208B63E8400E6
:10223A0000126208B63E8400000EDE005E0C07390A
:10224A00033A031D29292A295D296208B63E84001A
:10225A0000081F39203880005D295D296208B63ED2
:10226A00840000080F39DE0006305E0203183E299A
:10227A003F2950296208B63E840000080F39DE0063
:10228A00DE0A00085E06F0395E0680006208B63E85
:10229A00840000165D296208B63E840000081F39D2
:1022AA00603880006208B63E840000125D295D290C
:1022BA000130DE005E08E207622943086202031C5D
:1022CA0067296829B228692908001030831603177C
:1022DA00E8000030E900831203132A08E2006208CA
:1022EA0083160317E600660883120313E2006208E6
:1022FA00DF008316031768080A168A15C1210A1611
:10230A008A11013083160317E8070318E90A003017
:10231A00E907831203132B08E200620883160317E6
:10232A00E600660883120313E2006208DF008316E0
:10233A00031768080A168A15C1210A168A1101307C
:10234A0083160317E8070318E90A0030E907E701CB
:10235A000C2A033083120313E2006208DB0083169F
:10236A00031767080A168A15DE200A168A11CE3E56
:10237A0084008313000883120313E3006308DF0059
:10238A008316031768080A168A15C1210A168A11C4
:10239A00013083160317E8070318E90A0030E90732
:1023AA00033083120313E2006208DB00831603176B
:1023BA0067080A168A15DE200A168A11013ECE3EE1
:1023CA0084008313000883120313E3006308DF0009
:1023DA008316031768080A168A15C1210A168A1174
:1023EA00013083160317E8070318E90A0030E907E2
:1023FA000130E8070318E90A0030E90701308312BF
:10240A000313E200620883160317E7070C2A7B0806
:10241A006702031C112A122AAE29132A4230E80045
:10242A000030E90068080A168A1540210A168A113E
:10243A00013E83120313E2006208CA004A08FF3A07
:10244A00031D282A292A2C2ACA01CA0A2C2A4A0820
:10245A00E2006208DF008316031768080A168A1565
:10246A00C1210A168A11080083120313DB00DC015A
:10247A00172B061C412A422A5B2BDC01DC0A5B2B48
:10248A005B2B83160317881D4B2A4C2A5B2B83125E
:10249A000313DC01DC0A5B2B5B2B83160317081D75
:1024AA00572A582A5B2B83120313DC01DC0A5B2BA5
:1024BA005B2B83160317881C632A642A5B2B8312FF
:1024CA000313DC01DC0A5B2B5B2B83160317081C46
:1024DA006F2A702A5B2B83120313DC01DC0A5B2B45
:1024EA005B2B83160317891E7B2A7C2A5B2B83129C
:1024FA000313DC01DC0A5B2B5B2B83160317091E13
:10250A00872A882A5B2B83120313DC01DC0A5B2BE4
:10251A005B2B83160317891D932A942A5B2B83123C
:10252A000313DC01DC0A5B2B5B2B83160317091DE3
:10253A009F2AA02A5B2B83120313DC01DC0A5B2B84
:10254A005B2B83160317891CAB2AAC2A5B2B8312DD
:10255A000313DC01DC0A5B2B5B2B83160317091CB4
:10256A00B72AB82A5B2B83120313DC01DC0A5B2B24
:10257A005B2B881FC12AC22A5B2BDC01DC0A5B2B7E
:10258A005B2B081FC92ACA2A5B2BDC01DC0A5B2BDE
:10259A005B2B881ED12AD22A5B2BDC01DC0A5B2B3F
:1025AA005B2B081ED92ADA2A5B2BDC01DC0A5B2B9F
:1025BA005B2B871EE12AE22A5B2BDC01DC0A5B2B00
:1025CA005B2B071EE92AEA2A5B2BDC01DC0A5B2B60
:1025DA005B2B081CF12AF22A5B2BDC01DC0A5B2B41
:1025EA005B2B871DF92AFA2A5B2BDC01DC0A5B2BA1
:1025FA005B2B071D012B022B5B2BDC01DC0A5B2BFF
:10260A005B2B871C092B0A2B5B2BDC01DC0A5B2B5F
:10261A005B2B071C112B122B5B2BDC01DC0A5B2BBF
:10262A005B2B5B2B5B08003A03193E2A013A03191C
:10263A00462A033A0319522A013A03195E2A073A2B
:10264A0003196A2A013A0319762A033A0319822AD4
:10265A00013A03198E2A0F3A03199A2A013A0319E1
:10266A00A62A033A0319B22A013A0319BE2A073ADB
:10267A000319C62A013A0319CE2A033A0319D62A9C
:10268A00013A0319DE2A1F3A0319E62A013A031905
:10269A00EE2A033A0319F62A013A0319FE2A073ADF
:1026AA000319062B013A03190E2B5B2B8312031312
:1026BA00DC08031D612B622B652BDC01DC0A672B0E
:1026CA00DC01672B5C08692B080083160313910150
:1026DA000330831203178700831603138F010C300C
:1026EA00831203139D005C309B003030DB005B08D3
:1026FA009D04F930831603139200831203138C107E
:10270A00831603138C100430831203139200833050
:10271A0083160313810082308312031381000B1185
:10272A008B161630831203178900C03083120313E5
:10273A00DB005B0883160313870426309300940199
:10274A00831203139401363094008C1183160313F9
:10275A008C1506148316031785150515851405149B
:10276A008716071687150715871407148316031388
:10277A008817081788160816871607160814871563
:10278A00071587140714F73083120313DB005B085D
:10279A00831603138805FD3083120313DB005B08DD
:1027AA00831603138605FB3083120313DB005B08D1
:1027BA00831603138605FB3083120313DB005B08C1
:1027CA008316031389057F3083120313DB005B082A
:1027DA00831603178505BF3083120313DB005B08DA
:1027EA00831603178505DF3083120313DB005B08AA
:1027FA00831603178505EF3083120313DB005B088A
:10280A00831603178505DF3083120313DB005B0889
:10281A00831603138505EF3083120313DB005B086D
:10282A00831603138505F73083120313DB005B0855
:10283A00831603138505FB3083120313DB005B0841
:10284A00831603138505FD3083120313DB005B082F
:10285A00831603138505FE3083120313DB005B081E
:10286A008316031385050815FD3083120313DB0055
:10287A005B08831603138805F73083120313DB0002
:10288A005B08831603138605EF3083120313DB00FC
:10289A005B08831603138605DF3083120313DB00FC
:1028AA005B08831603138605FD3083120313DB00CE
:1028BA005B08831603138905EF3083120313DB00C9
:1028CA005B08831603138905DF3083120313DB00C9
:1028DA005B088316031389057F3083120313DB0019
:1028EA005B08831603138905BF3083120313DB00C9
:1028FA005B08831603138905FE3083120313DB007A
:10290A005B088316031389058312031339143508E8
:10291A008500360886003708870038088800390895
:10292A0089003A0883160317880064000800831296
:10293A000313E201242E62080A168A15CB200A160E
:10294A008A1183120313DE005E08E1000D2EAD2CFE
:10295A006108A03E84008313000EDE00DE0C5E0CCC
:10296A000139DF006108A03E8400000EE000600C1F
:10297A0001395F060319C22CC32C1F2E6108A03E21
:10298A008400801AC92CCA2CCF2C6108A03E84006E
:10299A0000131F2E6108A03E840000170314620D65
:1029AA00203E84000008E3390C3880001F2E1F2EB9
:1029BA001F2E6108A03E8400000EDE00DE0C5E0CB5
:1029CA000139DF006108A03E8400000EE000600CBF
:1029DA0001395F060319F22CF32C0A2D6108A03E77
:1029EA008400801AF92CFA2CFF2C6108A03E84007E
:1029FA000013032D6108A03E840000176208DE0060
:102A0A005E07203E8400873080056108A03E84006E
:102A1A00801A102D112DB72D6208DE005E07203EA8
:102A2A008400000CDF00DF0C5F0C0F39E000063079
:102A3A0060020318212D222D462D6208DE005E0752
:102A4A00203E8400000CDF00DF0C5F0C0F39DF0032
:102A5A00DF0ADF0DDF0DDF0D00085F0687395F062D
:102A6A0080006208DE005E07203E8400801F3E2D43
:102A7A003F2D562D0314620D203E84000014562D5E
:102A8A00562D6208DE005E07203E84008013031480
:102A9A00620D203E840000100314620D203E840063
:102AAA0080106208DE005E07203E8400801F5E2DD3
:102ABA005F2D6D2D0314620D203E84000008E3395A
:102ACA000C3880006208DE005E07203E8400801316
:102ADA000314620D203E8400801C742D752D8D2DEB
:102AEA000314620D203E84000008E3391038800088
:102AFA006208DE005E07203E840080130314620D24
:102B0A00203E840000100314620D203E84008010D1
:102B1A000314620D203E8400000CDE005E0C0739AF
:102B2A00053A031D992D9A2D1F2E0314620D203E7E
:102B3A008400E33080050314620D203E8400000EF9
:102B4A00DE005E0C0139013ADF000314620D203EFB
:102B5A008400DF0EDF0D00085F06DF395F068000A4
:102B6A001F2E1F2E6208DE005E07203E8400000C26
:102B7A00DF00DF0C5F0C0F39E0000630600203183B
:102B8A00C72DC82DF12D6208DE005E07203E8400A5
:102B9A00000CDF00DF0C5F0C0F39DF00DF0ADF0DEE
:102BAA00DF0DDF0D00085F0687395F0680006208C7
:102BBA00DE005E07203E840080170314620D203E6B
:102BCA008400001CE92DEA2D1F2E0314620D203EFD
:102BDA00840080141F2E1F2E0314620D203E8400D1
:102BEA000008E339143880006208DE005E07203EE0
:102BFA00840080130314620D203E84000010031425
:102C0A00620D203E840080101F2E1F2E1F2E1F2EA5
:102C1A006208DE005E07203E84008313000807393D
:102C2A00003A0319AD2C013A0319DE2C033A0319B1
:102C3A00AD2C1F2E0130DE005E08E207242E42086A
:102C4A006202031C292E2A2EA02C2B2E0800831286
:102C5A000313DE00E02FCE2E5C08031D352E372E1F
:102C6A00B614F12FFD30DD005D08B605F12FF12F06
:102C7A005C08031D412E432E3615F12FFB30DD0073
:102C8A005D08B605F12FF12F5C08031D4D2E4F2E5E
:102C9A003915F12FFB30DD005D08B905F12FF12F51
:102CAA005C08031D592E5B2EBA17F12F7F30DD0009
:102CBA005D08BA05F12FF12F5C08031D652E672EFA
:102CCA003A17F12FBF30DD005D08BA05F12FF12F59
:102CDA005C08031D712E732EBA16F12FDF30DD004A
:102CEA005D08BA05F12FF12F5C08031D7D2E7F2E9A
:102CFA003A16F12FEF30DD005D08BA05F12FF12FFA
:102D0A005C08031D892E8B2EB516F12FDF30DD00EE
:102D1A005D08B505F12FF12F5C08031D952E972E3E
:102D2A003516F12FEF30DD005D08B505F12FF12FD3
:102D3A005C08031DA12EA32EB515F12FF730DD0077
:102D4A005D08B505F12FF12F5C08031DAD2EAF2EDE
:102D5A003515F12FFB30DD005D08B505F12FF12F98
:102D6A005C08031DB92EBB2EB514F12FFD30DD0012
:102D7A005D08B505F12FF12F5C08031DC52EC72E7E
:102D8A003514F12FFE30DD005D08B505F12FF12F66
:102D9A00F12F5B08003A0319312E013A03193D2E2F
:102DAA00033A0319492E013A0319552E073A031912
:102DBA00612E013A03196D2E033A0319792E013A4D
:102DCA000319852E0F3A0319912E013A03199D2EE4
:102DDA00033A0319A92E013A0319B52E073A031922
:102DEA00C12EF12FF12F012FFD30DD005D08B8054E
:102DFA00F12FB814F12FF12F5B08003A0319F92EBD
:102E0A00013A0319FE2EF12FF12F802F5C08031DC2
:102E1A000F2F112FB615F12FF730DD005D08B6051B
:102E2A00F12FF12F5C08031D1B2F1D2F3616F12FD2
:102E3A00EF30DD005D08B605F12FF12F5C08031DA8
:102E4A00272F292FB616F12FDF30DD005D08B605D2
:102E5A00F12FF12F5C08031D332F352FB914F12FF1
:102E6A00FD30DD005D08B905F12FF12F5C08031D67
:102E7A003F2F412F3916F12FEF30DD005D08B905DC
:102E8A00F12FF12F5C08031D4B2F4D2FB916F12F8F
:102E9A00DF30DD005D08B905F12FF12F5C08031D55
:102EAA00572F592FB917F12F7F30DD005D08B9056B
:102EBA00F12FF12F5C08031D632F652F3917F12FAE
:102ECA00BF30DD005D08B905F12FF12FF12FF12F89
:102EDA00F12FF12FF12FF12FF12FF12FF12FF12FE8
:102EEA00F12FF12FF12FF12FF12FF12FF12FF12FD8
:102EFA00F12FF12FF12F5B08003A03190B2F013A3A
:102F0A000319172F033A0319232F013A03192F2FF5
:102F1A00073A03193B2F013A0319472F033A0319BA
:102F2A00532F013A03195F2F0F3A0319F12F013A70
:102F3A000319F12F033A0319F12F013A0319F12F5B
:102F4A00F12FF12FC42F5C08031DAC2FAE2F3914BB
:102F5A00F12FFE30DD005D08B905F12FF12FF12FB9
:102F6A00F12FF12FF12FF12FF12FF12FF12FF12F57
:102F7A00F12FF12FF12FF12FF12FF12FF12F5B0804
:102F8A00003A0319A82F013A0319F12F033A03193A
:102F9A00F12F013A0319F12FF12FF12F5C08031DCC
:102FAA00D72FD92FB815F12FF730DD005D08B805F6
:102FBA00F12FF12FF12F5E08003A0319CE2E013AB4
:102FCA000319012F033A0319802F013A0319C42F59
:102FDA00073A0319D32FF12F3508850036088600E2
:102FEA003708870038088800390889003A088316A4
:062FFA0003178800080027
:1031260064008001840A0406031900340406942806
:1031360083120313AF01B101AD0183160317BA0160
:1031460008000A168A1553250A168A150A128A15C0
:1031560004200A168A150800F0008312031394133C
:1031660070089300941BB828B928B02814160800D4
:103176000A168A159C260A168A150A168A119C248E
:103186000A168A150A168A11AE200A168A1508002A
:1031960083120313DC00DD01D6280630DB005B0852
:1031A600DD00DB28DB285C08003A0319D028DB2881
:1031B6005D08DD28080083120313DE00DD015E1CB6
:1031C600E528E628EB285B08DC005C08DD07EB2831
:1031D6000310DB0D0310DE0CDE08031DF328F428B4
:1031E600E228F5285D08F728080083120313E0019A
:1031F6000E296008DF005F08DB00DC0102300A16DA
:103206008A112C260A168A15013083120313DF0051
:103216005F08E0070E2947086002031C13291429DA
:10322600FC2815299B01CF30DF005F089D050800AB
:1032360083120313DF005F08DD00DE010130FF00AB
:103246000310DD0DDE0DFF0B23295D08143EE000A3
:103256005E080318013E003EE100FE30E005013045
:10326600E1050030E0040630E1046108DC01DC071A
:103276006008DB01DB073F29080083120313DC002B
:103286006400831603178C1849294A2943294B29B8
:10329600831203135C08831203178D003F308312D9
:1032A6000313DB005B08831603178C050C1403104D
:1032B6000C180314003003180130831203170C088E
:1032C6006429080083120313DF01E0016A295B1CED
:1032D6006D296E2974295D08DF070318E00A5E0868
:1032E600E00701300310DD0DDE0DFF3E031D7529DD
:1032F60001300310DC0CDB0CFF3E031D7C295C084F
:103306005B04031D872988296A2989296008DC014D
:10331600DC075F08DB01DB0790290800FB01FC01E5
:1033260083132030840050300A168A1593200A161B
:103336008A158317A0308400E6300A168A15932072
:103346000A168A158313A0308400ED300A168A15F2
:1033560093200A168A1583172030840045300A16F2
:103366008A1593200A168A150A128A1103200A164C
:103376008A15E40083010A168A11052883120313AD
:10338600E100C529831603178C18CA29CB29C5293C
:10339600CC29831203136108831203178D0083124D
:1033A60003135F08831203178C003F308312031345
:1033B600E0006008831603178C05831203130310BD
:1033C6008B1FE629E729E82903148B1383160317B5
:1033D6000C1555308D00AA308D008C140C118312FB
:1033E6000313031CF729F829FB298B17FB29FB2953
:1033F60008000D3083160317E7000030E800670861
:103406000A168A1540210A168A1583120313E2004A
:10341600620883160317E6000130E7070318E80A77
:103426000030E8076608013A03191A2A1B2A3A2AC5
:1034360083120313DF018316031767080A168A151A
:10344600C1210A168A15013083160317E7070318E8
:10345600E80A0030E80783120313DF018316031717
:1034660067080A168A15C1210A168A153A2A08001B
:10347600F2005D2A7008031D412A452A83120313B0
:1034860039146B2AFE30F100710883120313B90553
:103496006B2A6B2A6B2A6B2A6B2A6B2A6B2A6B2A7E
:1034A6006B2A6B2A6B2A6B2A6B2A6B2A6B2A6B2A6E
:1034B6006B2A6B2A7208003A03193D2A013A03194E
:1034C6006B2A033A03196B2A013A03196B2A6B2AF2
:1034D60083120313350885003608860037088700EF
:1034E60038088800390889003A08831603178800C7
:1034F600080070087206F0007108F10083120313C9
:10350600B40108303402031C892A8A2A8C2ABF2A6D
:10351600BF2A701C8F2A902AA62A7108F400700808
:10352600F30001300310F40CF30CFF3E031D952A43
:103536007308F0007408F10001307006F000A03046
:103546007106F100B52A7108F4007008F300013025
:103556000310F40CF30CFF3E031DAB2A7308F000B6
:103566007408F1000130F3007308B4070830340220
:10357600031CBE2ABF2A8C2A08000B1DC32AC42A94
:10358600E52A8B1EC72AC82AE52AC401C40A0130C7
:10359600D6005608BC0732302C020318D32AD42A88
:1035A600D92A0130D6005608AC07DF2A0A168A1532
:1035B6003C240A168A15DF2A8230831203138102FD
:1035C6000B11E52A8C1DE82AE92AF72A8C118316A5
:1035D60003138C1DEF2AF02AF72A0A128A15FE20F9
:1035E6000A168A15F72AF72A831203135A08FF00C8
:1035F60059088A0058088400570E8300FE0E7E0E76
:103606000900FF3083160313E800FF30E900831238
:103616000313B3013C2B831603136908F101F10769
:103626006808F001F0078312031333087507F800E2
:1036360076080318013EF900780884008317791C80
:1036460083130008FA007A08F2000A168A157C220B
:103656000A168A15710883160313E901E90770082B
:10366600E801E8070130F800780883120313B3076E
:103676003C2B77083302031C412B422B0E2B432B8A
:10368600831603136908F601F6076808F501F507BE
:103696004C2B080083120313DC00DD017B2B023068
:1036A600DB005B08DD00952B0330DB005B08DD00EB
:1036B600952B0430DB005B08DD00952B0530DB0025
:1036C6005B08DD00952B0830DB005B08DD00952BE1
:1036D6000930DB005B08DD00952B1230DB005B0850
:1036E600DD00952B1330DB005B08DD00952B952B59
:1036F6005C08003A0319522B013A0319572B033A77
:1037060003195C2B013A0319612B073A0319662B3F
:10371600013A03196B2B033A0319702B013A03196B
:10372600752B952B5D08972B080083120313E00079
:103736006008C23E840083130018A22BA32BC42B5F
:10374600DB01DC0101300A168A112C260A168A15BD
:103756005C30831203139B003030DF005F089D044A
:103766001430DF005F08BE006008DF005F08DB0082
:10377600DC01DC0A02300A168A112C260A168A1582
:10378600E72B83120313DB01DB0ADC0101300A1687
:103796008A112C260A168A15831203139B01CF3031
:1037A600DF005F089D051430DF005F08BE0060087B
:1037B600DF005F08DB00DC01DC0A02300A168A1132
:1037C6002C260A168A15E72B080083120313E30139
:1037D60004306302031CF02BF12B1E2C3B2C3B2CDC
:1037E6001E2C6B300A168A151B210A168A1583129F
:1037F60003136308E2006207DA3E84005B08831362
:103806008000840A5C088000302C092C6E300A1671
:103816008A151B210A168A15831203136308E20010
:103826006207DA3E84005B0883138000840A5C0822
:103836008000302C302C6308E2006207203E8400B2
:10384600831300080739003A0319092C013A0319B2
:10385600092C033A0319F42B302C0130E2006208DC
:10386600E30704306302031C392C3A2C1E2C3B2C34
:1038760008007B087C02031C412C422C442CFC01D2
:10388600442C7C08F3007307DA3E84008313000897
:10389600840A00040319502C512C8D2C7C08F3004B
:1038A6007307DA3E84000008F400840A0008F50075
:1038B600741C5E2C5F2C682CF001F00A7C080A163A
:1038C6008A153B220A168A15702CF0017C080A1606
:1038D6008A153B220A168A15702C7C08F30073079A
:1038E600DA3E840083130008F400840A0008F50019
:1038F60001300310F50CF40CFF3E031D7C2C7C08F4
:10390600F6007607DA3E840074088000840A75089B
:103916008000922C0130F3007308FC07922C0800FB
:1039260083120313DE00DD0149085E0203189C2C96
:103936009D2CA42C06305E02031CA22CA32CE52C85
:10394600A42C0130F22CF22CE52C5E08E23E840019
:1039560083138008031DB02CB12CB82C7830DC0002
:103966005E08E23E84005C0880005E08E23E840059
:103976000008DC005E08E03E84005C0883178000D7
:10398600F02C5E08E03E840083178001F02C5E0870
:10399600E03E8400831780080319D22CD32CE02C38
:1039A6003208013A031DD82CD92CF02C5E08E03ED3
:1039B600840001308002F02CF02CDD01DD0AF02CB1
:1039C600F02CF02C5B08003A0319A82C013A0319D5
:1039D600C42C033A0319CA2CF02C5D08F22C0800FB
:1039E60083120313DF014B2D5F080A168A11392251
:1039F6000A168A1583120313DD005D08DE005F08D0
:103A0600A03E84008313000801395E0603190C2DBD
:103A16000D2D1A2D5F08A03E84005E080010031DC0
:103A260000145F08A03E8400E1308005442D5F0845
:103A3600A03E8400000C0F39DD0004305D0203183F
:103A4600252D262D342D5F08A03E8400000C0F394D
:103A5600DD00DD0ADD0D00085D06E1395D0680004A
:103A6600442D5F08A03E840000183D2D402D5F08C0
:103A7600A03E840083138016422D83138012442DAA
:103A8600442D013083120313DD005D08DF074B2D43
:103A960046085F02031C502D512DF72C522D0800AD
:103AA60083160317E801AF2D680A83120313DF009C
:103AB6000130E0000030E100632D0310E00DE10D60
:103AC600DF0B602D600883160317E60083120313CD
:103AD600610883160317E7006608831203132A0595
:103AE600DF00831603176708831203132B05E00014
:103AF60060085F04031D802D812D952D3B19842DB3
:103B0600852D952D83160317680883120313DF008E
:103B16005F08DB00DC0100300A168A112C260A1623
:103B26008A15A62D83160317680883120313DF0070
:103B36005F08DB00DC01DC0A00300A168A112C263D
:103B46000A168A15A62D013083120313DF005F08BB
:103B560083160317E807AF2D83120313480883164D
:103B660003176802031CB82DB92D572DBA2D08006E
:103B760083120313DC00DD01FD2DDD01262EDD01A0
:103B8600DD0A262E0730DB005B08DD00262E0A3014
:103B9600DB005B08DD00262E0B30DB005B08DD005A
:103BA600262E0C30DB005B08DD00262E0D30DB00F8
:103BB6005B08DD00262E0E30DB005B08DD00262EBE
:103BC6000F30DB005B08DD00262E1030DB005B08C3
:103BD600DD00262E1130DB005B08DD00262E1430BA
:103BE600DB005B08DD00262E1530DB005B08DD0000
:103BF600262E262E5C08003A0319C02D013A031919
:103C0600C22D033A0319C52D013A0319CA2D073AE5
:103C16000319CF2D013A0319D42D033A0319D92DCF
:103C2600013A0319DE2D0F3A0319E32D013A031960
:103C3600E82D033A0319ED2D013A0319F22D073A3F
:103C46000319F72D262E5D08282E0800163083123C
:103C56000313DB005B08C6000D30DB005B08C10008
:103C66000D30DB005B08C800C201C20AFB01FB0A7B
:103C76000830DB005B08C3000830DB005B08C700C8
:103C86004708DB0003105B0CDC005C08C90017303A
:103C96004602031C4F2E502E542E1630DB005B08B6
:103CA600C6000E304102031C592E5A2E5E2E0D30D0
:103CB600DB005B08C1000E304802031C632E642E35
:103CC600682E0D30DB005B08C80005304202031C7D
:103CD6006D2E6E2E722E0430DB005B08C20005309E
:103CE6007B02031C772E782E7C2E0430DB005B08CB
:103CF600FB000D304302031C812E822E862E0C30D3
:103D0600DB005B08C3000D304702031C8B2E8C2E94
:103D1600902E0C30DB005B08C70007304902031CFD
:103D2600952E962E9B2E0630DB005B08C9009B2E37
:103D3600080083160317E801392F680A8312031354
:103D4600DE000130DF000030E000AC2E0310DF0D96
:103D5600E00DDE0BA92E5F0883160317E60083121B
:103D66000313600883160317E70068080A168A1506
:103D7600BB250A168A1583120313DE005E08831616
:103D86000317E9006908A03E84008313000E83121E
:103D96000313DE00DE0C5E0C0139DF008316031709
:103DA6006908A03E8400000E83120313E000600C35
:103DB60001395F060319E02EE12E172F831603172C
:103DC6006908A03E8400801AE92EEA2E052F6908AC
:103DD600A03E84000013670883120313DF008316D6
:103DE6000317660883120313DE00DE09DF095E0887
:103DF60083160313EA05831203135F08831603135E
:103E0600EB05302F831603176908A03E84000017C0
:103E1600660883160313EA048316031767088316D6
:103E26000313EB04302F302F831603176708831212
:103E36000313DF0083160317660883120313DE00DD
:103E4600DE09DF095E0883160313EA0583120313EE
:103E56005F0883160313EB05302F0130831203131B
:103E6600DE005E0883160317E807392F8312031353
:103E76004108831603176802031C422F432FA02E06
:103E8600442F080083120313E00104306002031C70
:103E96004D2F4E2F502F812F812F6008DF005F0797
:103EA600203E840083130008F8390138800060083A
:103EB600DF005F07203E8400873080056008DF0052
:103EC6005F07203E840080130314600D203E8400AB
:103ED60000100314600D203E840080100314600D52
:103EE600203E8400E33080050130DF005F08E007F4
:103EF60004306002031C802F812F502FE0010C300C
:103F06006002031C872F882F8A2FA32FA32F6008F8
:103F1600B63E8400F030831380056008B63E840008
:103F260000126008B63E84001F3080050130DF00B5
:103F36005F08E0070C306002031CA22FA32F8A2F14
:103F4600E0010C306002031CA92FAA2FAC2FC42F4E
:103F5600C42F6008C23E8400831300146008C23E6A
:103F6600840080106008203E8400831780010130A1
:103F7600DF005F08E0070C306002031CC32FC42F6C
:103F8600AC2FE00104306002031CCA2FCB2FCD2FCB
:103F9600F82FF82F0330DF005F08DB0060080A16F1
:103FA6008A15DE200A168A15CE3E84008313800108
:103FB600033083120313DF005F08DB0060080A1674
:103FC6008A15DE200A168A15023ECE3E8400831329
:103FD6008001013083120313DF005F08E00704301D
:103FE6006002031CF72FF82FCD2FBB01B501B601D8
:0A3FF600B701B801B901BA010800D3
:02400E00F2FFBF
:00000001FF
