:020000040000FA
:100000000A128A1112280534FE00030EF8000408B3
:10001000F9000A08FA00831203137F08FB000A168E
:100020008A15612C0A168A15892B83120313ED0198
:100030006E286D0AE6000130E7000030E800232852
:100040000310E70DE80DE60B20286708E9006808B3
:10005000EA00690883160313560583120313E600AA
:100060006A0883160313570583120313E700670812
:10007000660403193C283D2843286908B4066A0829
:10008000B506432843283B08013A031D4828492860
:10009000672834086905E6006608E0006D080A165E
:1000A0008A151B270A128A11013A031D582859285C
:1000B0006728831203136A08E7006908E600E60967
:1000C000E7096608B4056708B505672867280130A1
:1000D00083120313E6006608ED076E2852086D02CE
:1000E000031C7328742819287528ED013B2A6D0814
:1000F000E6006607E7006708EC006C0AE6006608A1
:10010000EB00AD28982898289828872887286C081D
:10011000B63E8400831300081F39203880006B0826
:10012000B63E840000081F39203880006429642905
:100130006B08B63E84008313000EE600660C073998
:10014000023A03198728013A03198728073A031945
:10015000872864296429642964296C08B63E8400D0
:100160008313000EE600660C0739023A031998283B
:10017000013A03199828073A031998286429642931
:100180006C08203E84008018C628C728E8286B0821
:10019000203E8400801CCD28CE28D3286B08203E2A
:1001A00084008010D328DA016D080A168A155C26AF
:1001B0000A128A11DB28831203136C08203E840084
:1001C000831380146C08B63E84001F3080051D2AFE
:1001D000DA01DA0A6D080A168A155C260A128A11F3
:1001E000F128831203136C08203E840083138010CF
:1001F0006C08B63E84001F3080051D2A1D2ADA01D6
:10020000DA0A6D080A168A155C260A128A1108296C
:10021000831203136C08203E8400831380146B0840
:10022000203E840080101D2ADA01DA0A6D080A16C1
:100230008A155C260A128A111D29831203136C0881
:10024000203E8400831380106C08B63E84001F306B
:1002500080051D2A6B08203E8400801C302931292E
:1002600036296B08203E840080103629DA016D089B
:100270000A168A155C260A128A113E298312031374
:100280006C08203E8400831380146C08B63E840002
:100290001F3080051D2A0230E6006608DA006D086E
:1002A0000A168A155C260A128A11013A031D592979
:1002B0005A291D2A831203136C08203E84008313DD
:1002C00080101D2A1D2A1D2A6C08B63E8400000ECF
:1002D000E600660C0739013A03191429033A031999
:1002E000C028013A0319FF28073A03192A294B2984
:1002F0001D2A6B08203E840080187F298029A129AF
:100300006C08203E8400801C862987298C296C0873
:10031000203E840080108C29DA016D080A168A15A7
:100320005C260A128A119429831203136B08203E5B
:100330008400831380146B08B63E84001F30800550
:10034000342ADA01DA0A6D080A168A155C260A12BE
:100350008A11AA29831203136B08203E8400831399
:1003600080106B08B63E84001F308005342A342A82
:10037000DA01DA0A6D080A168A155C260A128A1151
:10038000C129831203136B08203E84008313801459
:100390006C08203E84008010342ADA01DA0A6D08E5
:1003A0000A168A155C260A128A11D62983120313AB
:1003B0006B08203E8400831380106B08B63E8400D7
:1003C0001F308005342A6C08203E8400801CE929F7
:1003D000EA29EF296C08203E84008010EF29DA0119
:1003E0006D080A168A155C260A128A11F7298312EB
:1003F00003136B08203E8400831380146B08B63E01
:1004000084001F308005342A0230E6006608DA00D6
:100410006D080A168A155C260A128A11013A031D14
:10042000122A132A342A831203136B08203E8400F5
:1004300083138010342A342A342A831203136B085E
:10044000B63E84008313000EE600660C0739013ABD
:100450000319CD29033A03197929013A0319B82957
:10046000073A0319E329042A013083120313E60033
:100470006608ED073B2A54086D02031C402A412AF6
:100480007728422AED01B02C722C8E2C6D08E600E4
:1004900001300310E60DFF3E031D492A0310660DCF
:1004A000D83E84008313800103146D0D2C3E84001C
:1004B000801203146D0D2C3E8400E33080058E2CD9
:1004C0006D08E60066072C3E840000080739023AF2
:1004D00003196B2A6C2A792A6D08E60066072C3E00
:1004E0008400000807390038031D772A782A882AF3
:1004F000792A6430E6006D08E70002300310E70D4A
:10050000FF3E031D7E2A670AD83E840066088000ED
:100510006D08E60002300310E60DFF3E031D8B2A36
:10052000660AD83E84000008803A7F3E0318992A64
:100530009A2AA92A6430E6006D08E7000230031009
:10054000E70DFF3E031D9F2A670AD83E8400660818
:1005500080006D08E60002300310E60DFF3E031D2B
:10056000AC2A660AD83E84000008E7006D08E8005F
:1005700001300310E80DFF3E031DB92A0310680D7A
:10058000D83E84006708800003146D0D2C3E840063
:10059000801203146D0D2C3E8400E33080058E2CF8
:1005A0006D08E60066072C3E840000080739023A11
:1005B0000319DB2ADC2AE92A6D08E60066072C3ECF
:1005C0008400000807390038031DE72AE82AF82AC2
:1005D000E92A6430E6006D08E70002300310E70DF9
:1005E000FF3E031DEE2A670AD83E8400660880009D
:1005F0006D08E60001300310E60DFF3E031DFB2AE7
:100600000310660DD83E84000008803A7F3E031C2C
:100610000A2B0B2B1E2B6D08E60001300310E60D94
:10062000FF3E031D0E2B0310660DD83E8400800193
:1006300003146D0D2C3E840080125F2B6D08E600C4
:1006400002300310E60DFF3E031D212B660AD83E43
:1006500084000008803A7F3E03182F2B302B3F2B5D
:100660006430E6006D08E70002300310E70DFF3E3E
:10067000031D352B670AD83E8400660880006D088C
:10068000E60002300310E60DFF3E031D422B660A12
:10069000D83E84000008E7006D08E8000130031030
:1006A000E80DFF3E031D4F2B0310680DD83E84005C
:1006B0006708800003146D0D2C3E84008012031423
:1006C0006D0D2C3E8400E33080058E2C6430E600F6
:1006D0006D08E70001300310E70DFF3E031D6B2B93
:1006E0000310670DD83E84006608800003146D0D6A
:1006F0002C3E8400801603146D0D2C3E8400E330E4
:1007000080058E2C0130E6006608C40704304402E0
:10071000031C8B2B8C2B8E2CC40103146D0D2C3ED3
:100720008400801A942B952BEE2B6D08E600013087
:100730000310E60DFF3E031D982B0310660DD83EF7
:1007400084000008803A1D3E0318A72BA82BB92B64
:100750000130E6006D08E70001300310E70DFF3EB1
:10076000031DAD2B0310670DD83E8400660880077B
:10077000C92B6430E6006D08E70001300310E70D77
:10078000FF3E031DBE2B0310670DD83E8400660894
:1007900080006D08E60001300310E60DFF3E031DEA
:1007A000CC2B0310660DD83E84000008803A763EBC
:1007B0000318DB2BDC2B402C0A30E6006D08E70029
:1007C00001300310E70DFF3E031DE12B0310670D01
:1007D000D83E840066088000402C402C6D08E6005E
:1007E00001300310E60DFF3E031DF12B0310660DD3
:1007F000D83E84000008803A7E3E031C002C012C69
:10080000122CFF30E6006D08E70001300310E70D01
:10081000FF3E031D062C0310670DD83E84006608BA
:1008200080071F2C6D08E60001300310E60DFF3E27
:10083000031D152C0310660DD83E840080016D0841
:10084000E60001300310E60DFF3E031D222C0310CD
:10085000660DD83E84000008803A763E0318312C9D
:10086000322C402C6D08E60001300310E60DFF3EEF
:10087000031D352C0310660DD83E84008001402CEA
:100880006D08E60001300310E60DFF3E031D432C0A
:100890000310660DD83E84000008803A753E031CA4
:1008A000522C532C8E2C6D08E60001300310E60DFF
:1008B000FF3E031D562C0310660DD83E8400000831
:1008C000E7006D08E80002300310E80DFF3E031D4D
:1008D000642C680AD83E8400670880008E2C8E2C19
:1008E0008E2C8E2C03146D0D2C3E84008313000C73
:1008F000E600660C0739003A03198E2C013A0319F9
:10090000462A033A0319602A013A0319D02A073A02
:100910000319662B013A0319822B8E2C6D08E60011
:1009200066072C3E8400831300080739E700670838
:10093000DA006D08E80001300310E80DFF3E031DEA
:100940009C2C0310680DD83E0A168A159D240A12A5
:100950008A11013083120313E6006608ED07B02CFC
:1009600053086D02031CB52CB62C722CB72C080052
:100970000E3083120313E7000030E800E401E501C4
:1009800067080A128A11DB270A128A1183120313DD
:10099000E100E2016108E4006208E5000130E707D8
:1009A0000318E80A0030E80767080A128A11DB27F3
:1009B0000A128A1183120313E100E2016108E200C6
:1009C000E1016108E4046208E5040130E707031867
:1009D000E80A0030E807AA306506031DF12C5530FF
:1009E0006406031DF42CF52CF02D67080A128A11F9
:1009F000DB270A128A1183120313E100E201610866
:100A0000B4006208B5000130E7070318E80A0030B7
:100A1000E80767080A128A11DB270A128A11831273
:100A20000313E100E2016108E200E1016108B4049E
:100A30006208B5040130E7070318E80A0030E80748
:100A4000E6017F2D67080A128A11DB270A128A1134
:100A500083120313E1006608E20001300310E20D87
:100A6000FF3E031D2E2D0310620DD83E8400610849
:100A7000831380000130E7070318E80A0030E80715
:100A800067080A128A11DB270A128A1183120313DC
:100A9000E1006608E20002300310E20DFF3E031D94
:100AA0004C2D620AD83E8400610883138000013017
:100AB000E7070318E80A0030E80767080A128A11F6
:100AC000DB270A128A1183120313E1000730610544
:100AD000E2006608E30063072C3E840083130008ED
:100AE0006206F839620680000130E7070318E80A59
:100AF0000030E8070130E1006108E6077F2D530868
:100B00006602031C842D852D222D862D2A30E700B8
:100B10000030E800E60106306602031C902D912D9E
:100B2000932DB32DB32D67080A128A11DB270A1201
:100B30008A1183120313E1006608CA3E840061082B
:100B4000831380000130E7070318E80A0030E80744
:100B50000130E1006108E60706306602031CB12D92
:100B6000B22D932DB32D3230E7000030E800E601BE
:100B70000D306602031CBD2DBE2DC02DE02DE02DD5
:100B800067080A128A11DB270A128A1183120313DB
:100B9000E1006608CE3E84006108831780000130C2
:100BA000E7070318E80A0030E8070130E1006108B0
:100BB000E6070D306602031CDE2DDF2DC02DE02D73
:100BC0004230E7000030E80067080A128A11DB278C
:100BD0000A128A1183120313E1006108D6001E2F46
:100BE000DE0167080A168A1526240A128A110130C6
:100BF00083120313E7070318E80A0030E807DE0151
:100C000067080A168A1526240A128A1101308312EF
:100C10000313E7070318E80A0030E807B401B50139
:100C2000E601692EDE0167080A168A1526240A12D3
:100C30008A11013083120313E7070318E80A003012
:100C4000E807DE0167080A168A1526240A128A11A7
:100C5000013083120313E7070318E80A0030E8079E
:100C60006608E10001300310E10DFF3E031D332E45
:100C70000310610DD83E8400831380016608E100F3
:100C800002300310E10DFF3E031D412E610AD83EE4
:100C900084008001DE01DE0A67080A168A15262410
:100CA0000A128A11013083120313E7070318E80AB6
:100CB0000030E8076608E10061072C3E84008313DA
:100CC0000008F839013880000130E1006108E607CA
:100CD000692E53086602031C6E2E6F2E122E702E84
:100CE0002A30E7000030E800E60106306602031C07
:100CF0007A2E7B2E7D2EA22EA22E7830E100610866
:100D0000DE0067080A168A1526240A128A110130A5
:100D100083120313E7070318E80A0030E807783066
:100D2000E1006608CA3E8400610883138000013038
:100D3000E1006108E60706306602031CA02EA12E22
:100D40007D2EA22E3230E7000030E800E6010D30A3
:100D50006602031CAC2EAD2EAF2ECE2ECE2EDE01A3
:100D600067080A168A1526240A128A11013083128E
:100D70000313E7070318E80A0030E8076608CE3EC9
:100D80008400831780010130E1006108E6070D301F
:100D90006602031CCC2ECD2EAF2ECE2E4230E700A5
:100DA0000030E800D6015608E1006108DE0067085F
:100DB0000A168A1526240A128A1101308312031397
:100DC000E7070318E80A0030E8070D30E7000030B5
:100DD000E800DE01DE0A67080A168A1526240A12D0
:100DE0008A11013083120313E7070318E80A003061
:100DF000E8075530E1006108DE0067080A168A1529
:100E000026240A128A11013083120313E7070318FC
:100E1000E80A0030E807AA30E1006108DE00670850
:100E20000A168A1526240A128A1101308312031326
:100E3000E7070318E80A0030E8071E2F08008312AE
:100E40000313E101D32F61080A168A151A250A1225
:100E50008A1183120313DD005D08E0006008A03EE4
:100E600084008313000EDD00DD0C5D0C0139DE0013
:100E70006008A03E8400000EDF005F0C01395E06B2
:100E80000319432F442F592F6008A03E8400801A75
:100E90004A2F4B2F502F6008A03E84000013542F80
:100EA0006008A03E840000176108B63E8400F03060
:100EB00080056008A03E8400801A5F2F602FA42F59
:100EC0006108B63E840000080F39DD0006305D027F
:100ED00003186B2F6C2F792F6108B63E8400000831
:100EE0000F39DD00DD0A00085D06F0395D0680007F
:100EF0007D2F6108B63E840000126108B63E840072
:100F0000001E832F842F8F2F6108B63E84000008B7
:100F10001F39403880006108B63E84000012610825
:100F2000B63E8400000EDD005D0C0739033A031D58
:100F30009A2F9B2FCE2F6108B63E840000081F39E0
:100F400020388000CE2FCE2F6108B63E84000008E6
:100F50000F39DD0006305D020318AF2FB02FC12F0F
:100F60006108B63E840000080F39DD00DD0A000884
:100F70005D06F0395D0680006108B63E840000160B
:100F8000CE2F6108B63E840000081F39603880000B
:100F90006108B63E84000012CE2FCE2F0130DD0056
:100FA0005D08E107D32F4D086102031CD82FD92F0C
:100FB000232FDA2F080083120313DB00640083164B
:100FC00003178C18E42FE52FDE2FE62F831203136F
:100FD0005B08831203178D003F3083120313DA007E
:100FE0005A08831603178C050C1403100C180314ED
:100FF000003003180130831203170C08FF2F08007C
:10100000FF3FFF3F83120313DB00DC014428DC01B8
:101010006D28DC01DC0A6D280730DA005A08DC0094
:101020006D280A30DA005A08DC006D280B30DA002F
:101030005A08DC006D280C30DA005A08DC006D28F4
:101040000D30DA005A08DC006D280E30DA005A083C
:10105000DC006D280F30DA005A08DC006D281030F3
:10106000DA005A08DC006D281130DA005A08DC007A
:101070006D281430DA005A08DC006D281530DA00CB
:101080005A08DC006D286D285B08003A0319072810
:10109000013A03190928033A03190C28013A0319E4
:1010A0001128073A03191628013A03191B28033A95
:1010B00003192028013A031925280F3A03192A2871
:1010C000013A03192F28033A03193428013A031966
:1010D0003928073A03193E286D285C086F28080054
:1010E00083120313E101F52961080A168A150E23FC
:1010F0000A128A1583120313DD005D08E000DE2961
:1011000081286008A03E84008313000EDD00DD0C02
:101110005D0C0139DE006008A03E8400000EDF0097
:101120005F0C01395E06031996289728F02960089C
:10113000A03E8400801A9D289E28A3286008A03E17
:1011400084000013F0296008A03E840000170314F7
:10115000610D2C3E84000008E3390C388000F02932
:10116000F029F0296008A03E8400000EDD00DD0CAF
:101170005D0C0139DE006008A03E8400000EDF0037
:101180005F0C01395E060319C628C728DE286008EF
:10119000A03E8400801ACD28CE28D3286008A03E27
:1011A00084000013D7286008A03E8400001761085F
:1011B000DD005D072C3E8400873080056008A03E7E
:1011C0008400801AE428E52888296108DD005D078D
:1011D0002C3E8400000CDE00DE0C5E0C0F39DF00BC
:1011E00006305F020318F528F6281A296108DD0089
:1011F0005D072C3E8400000CDE00DE0C5E0C0F3917
:10120000DE00DE0ADE0DDE0DDE0D00085E0687392B
:101210005E0680006108DD005D072C3E8400801FB3
:10122000122913292A290314610D2C3E840000146D
:101230002A292A296108DD005D072C3E84008013DD
:101240000314610D2C3E840000100314610D2C3E2C
:10125000840080106108DD005D072C3E8400801F43
:101260003229332941290314610D2C3E84000008E2
:10127000E3390C3880006108DD005D072C3E8400F6
:1012800080130314610D2C3E8400801C48294929D9
:1012900061290314610D2C3E84000008E3391038E5
:1012A00080006108DD005D072C3E8400801303147C
:1012B000610D2C3E840000100314610D2C3E84004F
:1012C00080100314610D2C3E8400000CDD005D0CC9
:1012D0000739053A031D6D296E29F0290314610DA4
:1012E0002C3E8400E33080050314610D2C3E840005
:1012F000000EDD005D0C0139DD000130DD06DD0E84
:10130000DD0D00085D06DF395D068000F029F0295B
:101310006108DD005D072C3E8400000CDE00DE0C61
:101320005E0C0F39DF0006305F02031898299929F7
:10133000C2296108DD005D072C3E8400000CDE0040
:10134000DE0C5E0C0F39DE00DE0ADE0DDE0DDE0D7A
:1013500000085E0687395E0680006108DD005D07D3
:101360002C3E840080170314610D2C3E8400001C69
:10137000BA29BB29F0290314610D2C3E8400801486
:10138000F029F0290314610D2C3E84000008E33994
:10139000143880006108DD005D072C3E8400801356
:1013A0000314610D2C3E840000100314610D2C3ECB
:1013B00084008010F029F029F029F0296108DD006F
:1013C0005D072C3E8400831300080739003A031997
:1013D0008128013A0319B228033A03198128F02918
:1013E0000130DD005D08E107F5294C086102031CAE
:1013F000FA29FB297428FC29080083120313DD0055
:10140000B12B9F2A5B08031D062A082ABD14C22B94
:10141000FD30DC005C08BD05C22BC22B5B08031D40
:10142000122A142A3D15C22BFB30DC005C08BD05D6
:10143000C22BC22B5B08031D1E2A202A4015C22B7B
:10144000FB30DC005C08C005C22BC22B5B08031D0F
:101450002A2A2C2AC117C22B7F30DC005C08C10568
:10146000C22BC22B5B08031D362A382A4117C22B18
:10147000BF30DC005C08C105C22BC22B5B08031D1A
:10148000422A442AC116C22BDF30DC005C08C105A9
:10149000C22BC22B5B08031D4E2A502A4116C22BB9
:1014A000EF30DC005C08C105C22BC22B5B08031DBA
:1014B0005A2A5C2ABC16C22BDF30DC005C08BC0553
:1014C000C22BC22B5B08031D662A682A3C16C22B5E
:1014D000EF30DC005C08BC05C22BC22B5B08031D8F
:1014E000722A742ABC15C22BF730DC005C08BC05DC
:1014F000C22BC22B5B08031D7E2A802A3C15C22BFF
:10150000FB30DC005C08BC05C22BC22B5B08031D52
:101510008A2A8C2ABC14C22BFD30DC005C08BC0576
:10152000C22BC22B5B08031D962A982A3C14C22B9F
:10153000FE30DC005C08BC05C22BC22BC22B5A0853
:10154000003A0319022A013A03190E2A033A031931
:101550001A2A013A0319262A073A0319322A013AAC
:1015600003193E2A033A03194A2A013A0319562A53
:101570000F3A0319622A013A03196E2A033A031932
:101580007A2A013A0319862A073A0319922AC22BAA
:10159000C22BD22AFD30DC005C08BF05C22BBF1471
:1015A000C22BC22B5A08003A0319CA2A013A03195E
:1015B000CF2AC22BC22B512B5B08031DE02AE22A43
:1015C000BD15C22BF730DC005C08BD05C22BC22B59
:1015D0005B08031DEC2AEE2A3D16C22BEF30DC001F
:1015E0005C08BD05C22BC22B5B08031DF82AFA2A32
:1015F000BD16C22BDF30DC005C08BD05C22BC22B40
:101600005B08031D042B062BC014C22BFD30DC002D
:101610005C08C005C22BC22B5B08031D102B122BCC
:101620004016C22BEF30DC005C08C005C22BC22B79
:101630005B08031D1C2B1E2BC016C22BDF30DC00E9
:101640005C08C005C22BC22B5B08031D282B2A2B6C
:10165000C017C22B7F30DC005C08C005C22BC22B38
:101660005B08031D342B362B4017C22BBF30DC0028
:101670005C08C005C22BC22BC22BC22BC22BC22BB3
:10168000C22BC22BC22BC22BC22BC22BC22BC22BF2
:10169000C22BC22BC22BC22BC22BC22BC22BC22BE2
:1016A000C22B5A08003A0319DC2A013A0319E82A26
:1016B000033A0319F42A013A0319002B073A0319D4
:1016C0000C2B013A0319182B033A0319242B013A66
:1016D0000319302B0F3A0319C22B013A0319C22BFD
:1016E000033A0319C22B013A0319C22BC22BC22B96
:1016F000952B5B08031D7D2B7F2B4014C22BFE30E6
:10170000DC005C08C005C22BC22BC22BC22BC22B33
:10171000C22BC22BC22BC22BC22BC22BC22BC22B61
:10172000C22BC22BC22BC22BC22B5A08003A031960
:10173000792B013A0319C22B033A0319C22B013A40
:101740000319C22BC22BC22B5B08031DA82BAA2B8B
:10175000BF15C22BF730DC005C08BF05C22BC22BC3
:10176000C22B5D08003A03199F2A013A0319D22AB5
:10177000033A0319512B013A0319952B073A031920
:10178000A42BC22B3C0885003D0886003E0887003C
:101790003F08880040088900410883160317880025
:1017A000080083120313E401BA2D6408E10001303C
:1017B0000310E10DFF3E031DD82B0310610D033E06
:1017C000D83E8400831380080319E72BE82BB52D3E
:1017D0006408E10001300310E10DFF3E031DEB2B17
:1017E0000310610D033ED83E84000008E200640847
:1017F000E30001300310E30DFF3E031DFA2B03103D
:10180000630D023ED83E8400620880076408E10050
:1018100001300310E10DFF3E031D092C0310610D83
:10182000033ED83E84000008803A7F3E031C192CFA
:101830001A2C6A2C6408E10001300310E10DFF3E10
:10184000031D1D2C0310610D023ED83E84000008CC
:10185000803AE2006408E30001300310E30DFF3E2C
:10186000031D2D2C0310630DD83E84000008803A20
:10187000E202031C3C2C3D2CB92C6408E100013031
:101880000310E10DFF3E031D402C0310610DD83EF7
:1018900084000008E2006408E30001300310E30D57
:1018A000FF3E031D4E2C0310630D023ED83E840004
:1018B000620880006408E10001300310E10DFF3E82
:1018C000031D5D2C0310610D033ED83E8400800192
:1018D000B92CB92C6408E10001300310E10DFF3E82
:1018E000031D6D2C0310610DD83E84000008803A62
:1018F000E2006408E30001300310E30DFF3E031D26
:101900007C2C0310630D023ED83E84000008803A10
:10191000E202031C8C2C8D2CB92C6408E1000130F0
:101920000310E10DFF3E031D902C0310610DD83E06
:1019300084000008E2006408E30001300310E30DB6
:10194000FF3E031D9E2C0310630D023ED83E840013
:10195000620880006408E10001300310E10DFF3EE1
:10196000031DAD2C0310610D033ED83E84008001A1
:10197000B92C6408E10001300310E10DFF3E031DA6
:10198000BC2C0310610D023ED83E84000008803A52
:101990001B3E031CCC2CCD2CDE2C6430E1006408F3
:1019A000E20001300310E20DFF3E031DD22C0310B4
:1019B000620D023ED83E8400610880006408E100A8
:1019C00001300310E10DFF3E031DE12C0310610DFA
:1019D000023ED83E8400801FEE2CEF2CFE2C6408C3
:1019E000E10001300310E10DFF3E031DF22C031056
:1019F000610D023ED83E84008001FE2C4219012D6B
:101A0000022DA22D652D652D6408E1000130031023
:101A1000E10DFF3E031D072D0310610D023ED83E70
:101A200084000008803A6C3E0318172D182D2C2DC9
:101A30006A300A168A153C230A128A158312031388
:101A40006408E1006107C23E84005A0883138000E5
:101A5000840A5B088000B52D6B300A168A153C237A
:101A60000A128A15831203136408E1006107C23E5B
:101A700084005A0883138000840A5B088000B52D17
:101A8000B52D422D6408E10001300310E10DFF3E49
:101A9000031D452D0310610D023ED83E8400000851
:101AA0006E3E0A168A153C230A128A158312031306
:101AB0006408E2006207C23E84005A088313800073
:101AC000840A5B088000B52DB52D6408E10061072C
:101AD0002C3E840000080739003A0319422D013AD0
:101AE0000319422D033A0319042DB52DB52DA22D4E
:101AF0006B300A168A153C230A128A1583120313C7
:101B00006408E1006107C23E84005A088313800024
:101B1000840A5B088000B52D8D2DD2300A168A15F7
:101B20003C230A128A15831203136408E10061073B
:101B3000C23E84005A0883138000840A5B08800038
:101B4000B52DB52D6408E10061072C3E8400000826
:101B50000739003A03198D2D013A03198D2D033AE7
:101B60000319782DB52DB52DB52D0130E100610893
:101B7000E407BA2D53086402031CBF2DC02DD52BDA
:101B8000C12D0800831603173A08031DC82D9B2F8B
:101B9000892F892F3C0883120313B404831603177B
:101BA0003E0883120313B504831603173D088312FE
:101BB0000313E800831603173B0883120313E7009F
:101BC000E709E8096708B4056808B505EC01EB0109
:101BD000EB0A04306C02031CEE2DEF2DF12D2A2EA2
:101BE0002A2E831603174008831203136B0503196B
:101BF000FA2DFB2D052E03146C0D2C3E840083134F
:101C00000008E33908388000052E831603173F08C3
:101C1000831203136B0503190E2E0F2E192E0314B6
:101C20006C0D2C3E840083130008E33904388000D7
:101C3000192E0130E7006708EC076B08E70067071B
:101C4000E8006808EB0004306C02031C282E292EE3
:101C5000F12D2A2EEC01EB01EB0A06306C02031C7D
:101C6000322E332E352E772E772E6C08E70067073D
:101C7000E8006808EA006A0AE7006708E9008316D6
:101C800003174108831203136B050319482E492ECD
:101C9000522E6A08B63E8400831300081F3980382C
:101CA0008000662E831603174208831203136B0508
:101CB00003195B2E5C2E662E6908B63E84008313E2
:101CC00000081F3980388000662E662E0130E7003C
:101CD0006708EC076B08E7006707E8006808EB0097
:101CE00006306C02031C752E762E352E772E831649
:101CF0000317BA019B2F83120313EC0104306C020B
:101D0000031C832E842E862ED12ED12E6C08E70044
:101D100067072C3E8400831300080739E8006C0A2B
:101D2000BA3E840083170008073968060319992E04
:101D30009A2EC42E6C0ABA3E840007300005E700D4
:101D40006C08E80068072C3E8400831300086706CF
:101D5000F839670680006C0ABA3E840083170008D1
:101D6000E7006708DE000330E8006808DA006C0866
:101D70000A168A1521230A128A15143E0A168A1594
:101D800026240A128A15C42E013083120313E70099
:101D90006708EC0704306C02031CCF2ED02E862E71
:101DA000D12E83160317BA019B2F83120313EC0164
:101DB0000D306C02031CDD2EDE2EE02E152F152FAC
:101DC0006C0ABA3E840083170008E7006C08CE3E18
:101DD0008400000867060319EE2EEF2E082F6C0A08
:101DE000BA3E84000008E7006C08CE3E8400670815
:101DF00080006C08CE3E84000008E7006708DE0023
:101E00006C08323E0A168A1526240A128A15082FF3
:101E1000013083120313E7006708EC070D306C02F2
:101E2000031C132F142FE02E152F83160317BA014E
:101E30009B2F83120313EC0106306C02031C212F2D
:101E4000222F242F5C2F5C2F6C0ABA3E840083174C
:101E50000008E7006C08CA3E840083130008670688
:101E60000319332F342F4F2F6C0ABA3E8400831787
:101E70000008E7006C08CA3E8400670883138000EE
:101E80006C08CA3E84000008E7006708DE006C08A2
:101E90002A3E0A168A1526240A128A154F2F013067
:101EA00083120313E7006708EC0706306C02031C7B
:101EB0005A2F5B2F242F5C2F83160317BA019B2FF9
:101EC000831203134218652F662F792F8316031789
:101ED0003B0883120313E7006708C200421C712FFE
:101EE000722F822F0A168A11AA200A128A15822FAF
:101EF000822F831603173B0883120313E70067083A
:101F0000C200822F83160317BA019B2FBA019B2FA1
:101F10009B2F3A08013A0319CA2D033A03197B2E65
:101F2000013A0319D52E073A0319192F013A03195B
:101F3000602F862F9B2F831203133B08013A031D4A
:101F4000A22FA32FAE2F4F08031DA72FAB2F59127F
:101F50000130CF02AE2F5916AE2FAE2FD908031D78
:101F6000B22FB32FC62F143049020318B82FB92F40
:101F7000C22FF730E7006708BF050130E7006708A8
:101F8000C907FF2FBF15C901FF2FFF2F591EC92FEA
:101F9000CA2FE42F143049020318CF2FD02FD52F8A
:101FA000F730E7006708BF05D72FBF15D72F0130DF
:101FB000E7006708C90728304902031CE02FE12F1A
:101FC000FF2FC901FF2FFF2F0A3049020318E92F05
:101FD000EA2FEF2FF730E7006708BF05F12FBF1595
:101FE000F12F0130E7006708C90714304902031CCC
:101FF000FA2FFB2FFF2FC901FF2FFF2FFF2F080004
:10200000FF3FFF3FFF3FFF3F83120313DF011A280B
:102010005F08DE005E08DA00DB0102300A128A1572
:10202000FD210A168A11013083120313DE005E08B7
:10203000DF071A2851085F02031C1F2820280828E0
:1020400021289B01CF30DE005E089D050800831229
:102050000313E201A228620ADD000130DE00003035
:10206000DF0035280310DE0DDF0DDD0B32285E08A2
:10207000E0005F08E10062080A128A1502200A16D1
:102080008A1183120313DD005D08E3006308A03E9C
:1020900084008313000EDD00DD0C5D0C0139DE00D1
:1020A0006308A03E8400000EDF005F0C01395E066D
:1020B00003195B285C2889286308A03E8400801AE5
:1020C0006228632878286308A03E84000013610812
:1020D000DE006008DD00DD09DE095D0883160313FC
:1020E000D605831203135E0883160313D7059B28B6
:1020F00083126308A03E8400001760088316031350
:10210000D60483120313610883160313D7049B2894
:102110009B2883126108DE006008DD00DD09DE090E
:102120005D0883160313D605831203135E08831616
:102130000313D7059B28013083120313DD005D08CC
:10214000E207A2284B086202031CA728A8282B2814
:10215000A9280800103083120313E5000030E600C0
:102160003408E1006108E3006308E1006108DE0073
:1021700065080A168A1526240A168A110130831268
:102180000313E5070318E60A0030E6073508E10007
:102190006108E3006308E1006108DE0065080A16D3
:1021A0008A1526240A168A11013083120313E507C3
:1021B0000318E60A0030E607E40126296408E10076
:1021C00001300310E10DFF3E031DE1280310610DF6
:1021D000D83E840083130008E2006208DE00650830
:1021E0000A168A1526240A168A110130831203134F
:1021F000E5070318E60A0030E6076408E10002304C
:102200000310E10DFF3E031D0029610AD83E840042
:1022100083130008E2006208DE0065080A168A15CA
:1022200026240A168A11013083120313E5070318C6
:10223000E60A0030E6070130E5070318E60A003039
:10224000E6070130E1006108E4072629530864022B
:10225000031C2B292C29DE282D294230E5000030D3
:10226000E60065080A128A11DB270A168A11831212
:102270000313E100610AE2006208D5005508FF3A45
:10228000031D432944294729D501D50A4729550863
:10229000E1006108DE0065080A168A1526240A1680
:1022A0008A1108000A168A11FF220A168A110A16D4
:1022B0008A1140250A168A110A168A15E7220A167B
:1022C0008A110A168A158D270A168A110A168A1586
:1022D000B9230A168A110A128A11B8240A168A1119
:1022E0000A168A15EE230A168A118B170B178429F2
:1022F000FB3083120313EE006E0883160313880568
:10230000831203138C108429831203138C188929D8
:102310008A2978298C298C290A168A158D270A166C
:102320008A110C30831203134502031C9829992942
:10233000C1290C30C50265304502031CA029A12922
:10234000A329C501A3290130EE006E08C8070A16AB
:102350008A15BB260A168A11831203134708031D28
:10236000B229C1290130C702C708031DB829B929FC
:10237000C1290A168A1104200A168A11C129C12905
:10238000C1293C30831203134A02031CC829C929FE
:10239000D9293C30CA0265304A02031CD029D12910
:1023A000D329CA01D3290A128A15D1230A168A1100
:1023B000D9290830831203134802031CE029E129BC
:1023C0008C29C8010130EE006E08C607193046029C
:1023D000031CEB29EC29F029C601BB01BB0AF0293B
:1023E0000A168A15FE220A168A110A128A11152067
:1023F0000A168A110A128A15C2250A168A110A16A5
:102400008A15DC220A168A1183120313BB018C2958
:102410008C298C290A128A11122883120313C21CD8
:10242000122A132A152AFE2AFE2A05306F020318E3
:102430001A2A1B2A202A0130E0006008EF07202A10
:10244000E101F72A05306F02031C272A282AF02A07
:102450006108203E84008313000C0139E00061080C
:10246000203E84000008013960060319382A392A01
:10247000F02A61183C2A3D2A832A6108203E840004
:10248000801C432A442A832A610A203E8400001CBF
:102490004A2A4B2A672A610A203E84008010610A7A
:1024A000203E84008018582A5B2A610A203E84005E
:1024B000831300145D2A8313001083120313EF01AA
:1024C000610A0A168A15B3250A168A11FE2A831292
:1024D00003136108203E840083138018732A762A30
:1024E0006108203E840083130014782A83130010AF
:1024F00083120313EF0161080A168A15B3250A1621
:102500008A11FE2AFE2A611C862A872AD22A61089D
:10251000203E8400801C8D2A8E2AD22A6108FF3E2C
:10252000203E8400001C952A962AB62A6108FF3EA8
:10253000203E840080106108FF3E203E8400801809
:10254000A62AA92A6108FF3E203E840083130014B6
:10255000AB2A8313001083120313EF016108FF3EBF
:102560000A168A15B3250A168A11FE2A8312031346
:102570006108203E840083138018C22AC52A61089E
:10258000203E840083130014C72A83130010831293
:102590000313EF0161080A168A15B3250A168A117A
:1025A000FE2AFE2A831203136108203E840083134F
:1025B0008018DE2AE12A6108203E8400831300147B
:1025C000E32A8313001083120313EF0161080A1634
:1025D0008A15B3250A168A11FE2AFE2AFE2AF02A37
:1025E000013083120313E0006008E107F72A510865
:1025F0006102031CFC2AFD2A222AFE2A08008312FB
:102600000313CE01C801C501C901B401B501831688
:102610000313D601D70183120313DB0116305B02CB
:10262000031C132B142B162B332B332B5B08A03ED0
:102630008400831300105B08A03E8400E130800515
:102640005B08A03E840080125B08A03E840000135B
:102650000130DA005A08DB0716305B02031C312B0D
:10266000322B162B332BDB0104305B02031C392B7E
:102670003A2B3C2B6E2B6E2B5B08DA005A072C3E54
:10268000840083130008F839013880005B08DA0001
:102690005A072C3E8400873080055B08DA005A0711
:1026A0002C3E8400801303145B0D2C3E840000102C
:1026B00003145B0D2C3E8400801003145B0D2C3E34
:1026C0008400E33080050130DA005A08DB0704306B
:1026D0005B02031C6C2B6D2B3C2B6E2BDB010C3037
:1026E0005B02031C742B752B772B912B912B5B08B2
:1026F000B63E8400F030831380055B08B63E84004C
:1027000000125B08B63E84001F3080050130DA00FD
:102710005A08DB070C305B02031C8F2B902B772BA6
:10272000912BDB010C305B02031C972B982B9A2B0F
:10273000B32BB32B5B08203E8400831300145B088B
:10274000203E840080105B08DB3E840083178001FC
:102750000130DA005A08DB070C305B02031CB12B96
:10276000B22B9A2BB32BDB0104305B02031CB92B79
:10277000BA2BBC2BF12BF12B5B08DA0001300310D4
:10278000DA0DFF3E031DBF2B03105A0DD83E840007
:10279000831380015B08DA0001300310DA0DFF3E7D
:1027A000031DCD2B03105A0D023ED83E840080013C
:1027B0005B08DA0001300310DA0DFF3E031DDB2B4E
:1027C00003105A0D033ED83E840080010130DA0028
:1027D0005A08DB0704305B02031CEF2BF02BBC2BE9
:1027E000F12BC201BC01BD01BE01BF01C001C1018D
:1027F0000230DA005A08D000CB01CB0AD201D20A4B
:10280000CC01CC0AD301D30A0230DA005A08CD0039
:102810000230DA005A08D100D401D40A0800831229
:102820000313DA00DB01ED2C061C172C182C312DBC
:10283000DB01DB0A312D312D83160317881D212C76
:10284000222C312D83120313DB01DB0A312D312DB4
:1028500083160317081D2D2C2E2C312D83120313E4
:10286000DB01DB0A312D312D83160317881C392C2F
:102870003A2C312D83120313DB01DB0A312D312D6C
:1028800083160317081C452C462C312D8312031385
:10289000DB01DB0A312D312D83160317891E512CE4
:1028A000522C312D83120313DB01DB0A312D312D24
:1028B00083160317091E5D2C5E2C312D8312031322
:1028C000DB01DB0A312D312D83160317891D692C9D
:1028D0006A2C312D83120313DB01DB0A312D312DDC
:1028E00083160317091D752C762C312D83120313C3
:1028F000DB01DB0A312D312D83160317891C812C56
:10290000822C312D83120313DB01DB0A312D312D93
:1029100083160317091C8D2C8E2C312D8312031363
:10292000DB01DB0A312D312D881F972C982C312D9E
:10293000DB01DB0A312D312D081F9F2CA02C312DFE
:10294000DB01DB0A312D312D881EA72CA82C312D5F
:10295000DB01DB0A312D312D081EAF2CB02C312DBF
:10296000DB01DB0A312D312D871EB72CB82C312D20
:10297000DB01DB0A312D312D071EBF2CC02C312D80
:10298000DB01DB0A312D312D081CC72CC82C312D61
:10299000DB01DB0A312D312D871DCF2CD02C312DC1
:1029A000DB01DB0A312D312D071DD72CD82C312D21
:1029B000DB01DB0A312D312D871CDF2CE02C312D82
:1029C000DB01DB0A312D312D071CE72CE82C312DE2
:1029D000DB01DB0A312D312D312D5A08003A031964
:1029E000142C013A03191C2C033A0319282C013A20
:1029F0000319342C073A0319402C013A03194C2CC3
:102A0000033A0319582C013A0319642C0F3A03199D
:102A1000702C013A03197C2C033A0319882C013AD3
:102A20000319942C073A03199C2C013A0319A42C7E
:102A3000033A0319AC2C013A0319B42C1F3A0319B9
:102A4000BC2C013A0319C42C033A0319CC2C013ACB
:102A50000319D42C073A0319DC2C013A0319E42C8E
:102A6000312D83120313DB08031D372D382D3B2D29
:102A7000DB01DB0A3D2DDB013D2D5B083F2D08000E
:102A80008316031391010330831203178700831603
:102A900003138F010C30831203139D005C309B00E5
:102AA0003030DA005A089D04F9308316031392007F
:102AB000831203138C10831603138C1004308312BB
:102AC0000313920083308316031381008230831234
:102AD000031381000B118B16163083120317890024
:102AE000C03083120313DA005A08831603138704D5
:102AF000263093009401831203139401363094001E
:102B00008C11831603138C15061483160317851571
:102B100005158514051487160716871507158714DC
:102B200007148316031388170817881608168716C4
:102B3000071608148715071587140714F730831232
:102B40000313DA005A08831603138805FD30831235
:102B50000313DA005A08831603138605FB30831229
:102B60000313DA005A08831603138605FB30831219
:102B70000313DA005A088316031389057F30831282
:102B80000313DA005A08831603178505BF30831232
:102B90000313DA005A08831603178505DF30831202
:102BA0000313DA005A08831603178505EF308312E2
:102BB0000313DA005A08831603178505DF308312E2
:102BC0000313DA005A08831603138505EF308312C6
:102BD0000313DA005A08831603138505F7308312AE
:102BE0000313DA005A08831603138505FB3083129A
:102BF0000313DA005A08831603138505FD30831288
:102C00000313DA005A08831603138505FE30831276
:102C10000313DA005A088316031385050815FD30DF
:102C200083120313DA005A08831603138805F7305A
:102C300083120313DA005A08831603138605EF3054
:102C400083120313DA005A08831603138605DF3054
:102C500083120313DA005A08831603138605FD3026
:102C600083120313DA005A08831603138905EF3021
:102C700083120313DA005A08831603138905DF3021
:102C800083120313DA005A088316031389057F3071
:102C900083120313DA005A08831603138905BF3021
:102CA00083120313DA005A08831603138905FE30D2
:102CB00083120313DA005A08831603138905FE30C2
:102CC00083120313DA005A08C0053C0885003D084A
:102CD00086003E0887003F088800400889004108B8
:102CE0008316031788006400080083160313140872
:102CF000F1007108FC003C30F100710883120313ED
:102D0000CF00FC1A842E852EB32E7C19882E892E96
:102D1000B32E7C1C8C2E8D2EB32EFC1D902E912E4E
:102D2000B32E64008312031343161430F1007108AC
:102D3000B7000A168A15CF220A168A11F100710807
:102D400083120317A00083120313B801FD01FD0ACB
:102D5000D801D901141FAD2EAE2EFF2FD915D914CD
:102D60001413FF2FFF2FFC1EB62EB72E8A2F7C19AF
:102D7000BA2EBB2E8A2F7C1CBE2EBF2E8A2F7D081A
:102D8000143A031DC42EC52ECC2E5915D914133058
:102D9000F1007108FD00CC2E141FCF2ED02ED42EA2
:102DA000D915D9141413D42E0A168A15CF220A164F
:102DB0008A11F1007D08203E84007108831780008D
:102DC0007D08203E84000008F1007108831203137F
:102DD000B8077D08013A031DEE2EEF2E342F0E2F7B
:102DE0000E2F0A30F1007108B700222F0A30F100CF
:102DF0007108B700222F1230F1007108B700222F9E
:102E00000A30F1007108B700222F0330F100710879
:102E1000B700222F5915D914222F222F7D08203ECA
:102E200084000008013A0319F12E033A0319F62E23
:102E3000013A0319FB2E073A0319002F013A03192F
:102E4000052F0A2F7D08203E84000008F10071083C
:102E5000D800D91315303702031C2F2F302F852FA0
:102E60005915D914852F852F7D0837020318392F5E
:102E70003A2F3D2F5915D914852F7D083706031D8C
:102E8000422F432F852F3808031D472F4A2F5914EF
:102E9000D914852F591083160317BA08031D512F13
:102EA000522F7C2FF201F20AF301722F7308143AA9
:102EB000031D5B2F5C2F5F2F0130F3025F2F720821
:102EC000203E84000008F1007308BA3E84007108B7
:102ED00080000130F1007108F2070130F100710843
:102EE000F307722F72087D020318772F782F562F61
:102EF00083120313D910852F83120313D914852F3E
:102F0000852F852F852F852F852F0130F1007108A2
:102F1000FD07FF2FFC1A8D2F8E2FA62F7C1D912FC2
:102F2000922FA62F7C18952F962FA62FFC1D992F38
:102F30009A2FA62FB9015808F1007108BA00580855
:102F40000A168A15F2220A168A11FF2FFC1EA92FD3
:102F5000AA2FEB2F7C1DAD2FAE2FEB2F7C18B12F9E
:102F6000B22FEB2FE02FE02F59080A168A15F22214
:102F70000A168A11831203135908F1007108BA075F
:102F80000130F1007108B907FF2FBA090130F100D3
:102F90007108BA073A080A168A15F2220A168A1127
:102FA0000130F100710883120313B907FF2FD917FD
:102FB00055300A168A15F2220A168A11FF2FFF2FA2
:102FC000831203133908003A0319B42F013A031985
:102FD000C52FD72FFF2FFC1EEE2FEF2FFF2F7C19B1
:102FE000F22FF32FFF2F7C18F62FF72FFF2F43120E
:102FF0006400FF2FFF2FFF2FFF2FFF2FFF2F080051
:10300000FF3FFF3FFF3FFF3FFF3FFF3FFF3FFF3FD0
:10301000FF3FFF3FFF3FFF3FFF3FFF3FFF3FFF3FC0
:10302000FF3FFF3FFF3FFF3FFF3FFF3FFF3FFF3FB0
:10303000FF3FFF3FFF3FFF3FFF3FFF3FFF3FFF3FA0
:10359000FF3FFF3FFF3FFF3FFF3FFF3FFF3F8312E4
:1035A00003131308D32A080064008001840A040668
:1035B000031900340406D52A0A168A1565250A1649
:1035C0008A150A168A110D220A168A150800FD01AD
:1035D00083120313B901B601BA01B80183160317A8
:1035E000BA010800F00083120313941370089300CB
:1035F000941BFB2AFC2AF32A141608000A168A11C7
:1036000027200A168A150A128A1570200A168A15AA
:103610000A128A111F270A168A150800831203133B
:10362000DB00DC01192B0630DA005A08DC001E2B07
:103630001E2B5B08003A0319132B1E2B5C08202B52
:10364000080083120313DD00DC01262B5D1C292BEF
:103650002A2B2F2B5A08DB005B08DC072F2B0310CB
:10366000DA0D0310DD0CDD08031D372B382B262B5C
:10367000392B5C083B2B080083120313DE005E0825
:10368000DC00DD010310DC0DDD0D5C08143EDF0005
:103690005D080318013E003EE000FE30DF0501300A
:1036A000E0050030DF040630E0046008DB01DB07E2
:1036B0005F08DA01DA075C2B080083120313DE01CE
:1036C000DF01622B5A1C652B662B6C2B5C08DE0716
:1036D0000318DF0A5D08DF0701300310DC0DDD0D84
:1036E000FF3E031D6D2B01300310DB0CDA0CFF3E97
:1036F000031D742B5B085A04031D7F2B802B622B48
:10370000812B5F08DB01DB075E08DA01DA07882B13
:103710000800FC01FD018313203084005A300A1692
:103720008A15D4220A168A158317A0308400E73040
:103730000A168A15D4220A168A158313A03084002B
:10374000E8300A168A15D4220A168A158317203003
:10375000840034300A168A15D4220A168A150A12F1
:103760008A1103200A168A15EF0083010A168A11AE
:1037700052290D3083120313E3000030E400630884
:103780000A128A11DB270A168A1583120313E10035
:103790006108E2000130E3070318E40A0030E4079F
:1037A0006208013A0319D52BD62BED2BDE016308F5
:1037B0000A168A1526240A168A1501308312031365
:1037C000E3070318E40A0030E407DE0163080A1681
:1037D0008A1526240A168A15ED2B08008312031376
:1037E000E30104306302031CF62BF72BF92B252C85
:1037F000252C6308E10001300310E10DFF3E031D9D
:10380000FC2B0310610D023ED83E84008313000898
:103810000A168A153C230A168A15831203136308B5
:10382000E2006207C23E84005A0883138000840AC3
:103830005B0880000130E1006108E30704306302A7
:10384000031C232C242CF92B252C08008312031392
:10385000E0002A2C831603178C182F2C302C2A2CCE
:10386000312C831203136008831203178D00831217
:1038700003135E08831203178C003F308312031377
:10388000DF005F08831603178C05831203130310F0
:103890008B1F4B2C4C2C4D2C03148B1383160317AE
:1038A0000C1555308D00AA308D008C140C1183122C
:1038B0000313031C5C2C5D2C602C8B17602C602C7C
:1038C00008000B1D642C652C7E2C8B1E682C692C2B
:1038D0007E2CCE01CE0A0130F7007708C5070130F3
:1038E000F7007708CA070A168A1503260A168A15EA
:1038F00082308312031381020B117E2C8C1D812CCC
:10390000822C902C8C11831603138C1D882C892CEF
:10391000902C0A168A1175260A168A15902C902C5E
:103920007B0883120313FF007A088A007908840059
:10393000780E8300FE0E7E0E090083120313DD0055
:103940005D08840083130008803A1B3E031CA92CE9
:10395000AA2CB02C6430DB005D0884005B0880007A
:103960005D088400801FB52CB62CBA2C5D0884003D
:103970008001BA2C5D08023E84000008DB005D086F
:10398000840000085B060319C62CC72CD82C5D08E0
:1039900084000008DB005D08023E84000003FF3A5B
:1039A0005B07DC005D08033E84005C088000D82CC7
:1039B0000800F200FB2C7008031DDF2CE32C83129F
:1039C00003134014092DFE30F10071088312031314
:1039D000C005092D092D092D092D092D092D092DA8
:1039E000092D092D092D092D092D092D092D092D27
:1039F000092D092D092D7208003A0319DB2C013A13
:103A00000319092D033A0319092D013A0319092D48
:103A1000092D831203133C0885003D0886003E08EB
:103A200087003F0888004008890041088316031773
:103A30008800080083120313DB00DC01482D0230EC
:103A4000DA005A08DC00622D0330DA005A08DC0084
:103A5000622D0430DA005A08DC00622D0530DA00ED
:103A60005A08DC00622D0830DA005A08DC00622DAA
:103A70000930DA005A08DC00622D1230DA005A08E8
:103A8000DC00622D1330DA005A08DC00622D622D52
:103A90005B08003A03191F2D013A0319242D033A3C
:103AA0000319292D013A03192E2D073A0319332D35
:103AB000013A0319382D033A03193D2D013A031930
:103AC000422D622D5C08642D080083120313E3016C
:103AD000AB2D630ADE000130DF000030E000732D03
:103AE0000310DF0DE00DDE0B702D5F08E1006008B4
:103AF000E20061083405DE0062083505DF005F087A
:103B00005E04031D842D852D952D4219882D892D48
:103B1000952D6308DE005E08DA00DB0100300A1232
:103B20008A15FD210A168A15A42D83120313630832
:103B3000DE005E08DA00DB01DB0A00300A128A15BB
:103B4000FD210A168A15A42D013083120313DE000D
:103B50005E08E307AB2D52086302031CB02DB12DA4
:103B6000692DB22D080083120313DF005F08203E89
:103B7000840083130018BD2DBE2DDF2DDA01DB017B
:103B800001300A128A15FD210A168A155C3083124B
:103B900003139B003030DE005E089D041430DE000D
:103BA0005E08C7005F08DE005E08DA00DB01DB0AA2
:103BB00002300A128A15FD210A168A15022E831276
:103BC0000313DA01DA0ADB0101300A128A15FD213A
:103BD0000A168A15831203139B01CF30DE005E089C
:103BE0009D051430DE005E08C7005F08DE005E0839
:103BF000DA00DB01DB0A02300A128A15FD210A16FF
:103C00008A15022E08008312031353085702031C5F
:103C10000A2E0B2E0D2ED7010D2E5708F300730719
:103C2000C23E840083130008840A00040319192E7D
:103C30001A2E562E5708F3007307C23E8400000860
:103C4000F400840A0008F500741C272E282E312E5B
:103C5000F001F00A57080A168A15D9240A168A159F
:103C60003B2EF0018312031357080A168A15D92434
:103C70000A168A153B2E831203135708F3007307A5
:103C8000C23E840083130008F400840A0008F50093
:103C90000310F50CF40C5708F6007607C23E8400BA
:103CA00074088000840A750880005B2E0130F300E0
:103CB0007308D7075B2E080083120313DD00DC01B5
:103CC00054085D020318652E662E6D2E06305D02C7
:103CD000031C6B2E6C2EAD2E6D2E0130BA2EBA2E1B
:103CE000AD2E5D08CA3E840083138008031D792E23
:103CF0007A2E812E7830DB005D08CA3E84005B0896
:103D000080005D08CA3E84000008DB005D08D03EEC
:103D100084005B088000B82E5D08D03E84008313C9
:103D20008001B82E5D08D03E8400831380080319FB
:103D30009A2E9B2EA82E3B08013A031DA02EA12EE1
:103D4000B82E5D08D03E840001308002B82EB82E17
:103D5000DC01DC0AB82EB82EB82E5A08003A031936
:103D6000712E013A03198C2E033A0319922EB82EA4
:103D70005C08BA2E080083120313DE01132F5E08BD
:103D80000A168A110F240A168A1583120313DC00FF
:103D90005C08DD005E08A03E840083130008013942
:103DA0005D060319D42ED52EE22E5E08A03E8400B7
:103DB0005D080010031D00145E08A03E8400E13081
:103DC00080050C2F5E08A03E8400000C0F39DC003B
:103DD00004305C020318ED2EEE2EFC2E5E08A03E91
:103DE0008400000C0F39DC00DC0ADC0D00085C06E6
:103DF000E1395C0680000C2F5E08A03E84000018AC
:103E0000052F082F5E08A03E8400831380160A2F1A
:103E1000831380120C2F0C2F013083120313DC004C
:103E20005C08DE07132F50085E02031C182F192FA1
:103E3000BF2E1A2F080083120313E500E401520875
:103E400065020318242F252F2C2F0D306502031C2B
:103E50002A2F2B2F2F2F2C2F64088C2F8C2FE0082C
:103E6000031D332F342F3E2F6508E1006107A03E6C
:103E7000840083178001840A80018A2F6508E1008D
:103E80006107A03E840083170008840A0004031918
:103E90004A2F4B2F682F6508E1006107A03E840080
:103EA00001308002840F0030031C800380028403F1
:103EB0006508E1006107A03E84000008840A000450
:103EC000031D632F642F8A2FE401E40A8A2F8A2FAF
:103ED0006508CE3E84000008E100E2016108DA00D6
:103EE0006208DB003C30DC000030DD000A168A1579
:103EF0005D230A168A15831203136508E30063071E
:103F0000A03E84005A0883178000840A5B08800062
:103F10008A2F8A2F64088C2F08001630831203130F
:103F2000DA005A08D0000D30DA005A08CB000D3004
:103F3000DA005A08D200CC01CC0AD301D30A0830E7
:103F4000DA005A08CD000830DA005A08D1005108CA
:103F5000DA0003105A0CDB005B08D4001730500263
:103F6000031CB32FB42FB82F1630DA005A08D00034
:103F70000E304B02031CBD2FBE2FC22F0D30DA00B6
:103F80005A08CB000E305202031CC72FC82FCC2F6B
:103F90000D30DA005A08D20005304C02031CD12F34
:103FA000D22FD62F0430DA005A08CC000530530245
:103FB000031CDB2FDC2FE02F0430DA005A08D3007B
:103FC0000D304D02031CE52FE62FEA2F0C30DA00EE
:103FD0005A08CD000D305102031CEF2FF02FF42FA3
:103FE0000C30DA005A08D10007305402031CF92FB4
:103FF000FA2FFF2F0630DA005A08D400FF2F0800EE
:02400E00F23F7F
:10420000FF00FF00FF00FF00FF00FF00FF00FF00B6
:10421000FF00FF00FF00FF00FF0001005500AA00A3
:10422000000000000000000002000000000000008C
:10423000000000000000FF00FF000000FF00FF0082
:10424000FF00FF00FF00FF00FF00FF00FF00FF0076
:10425000FF00FF0078007800780078007800780090
:10426000FF00FF0000000000000000000000000050
:104270000000000000000000000000000000FF003F
:10428000FF00FF001D00FF00FF00FF00FF00FF0018
:10429000FF00FF00FF00FF00FF00FF00FF00FF0026
:1042A000FF00FF00FF00FF00FF00FF00FF00FF0016
:1042B000FF00FF00FF00FF00FF00FF00FF00FF0006
:1042C000FF00FF00FF00FF00FF00FF00FF00FF00F6
:1042D000FF00FF00FF00FF00FF00FF00FF00FF00E6
:1042E000FF00FF00FF00FF00FF00FF00FF00FF00D6
:1042F000FF00FF00FF00FF00FF00FF00FF00FF00C6
:10430000FF00FF00FF00FF00FF00FF00FF00FF00B5
:10431000FF00FF00FF00FF00FF00FF00FF00FF00A5
:10432000FF00FF00FF00FF00FF00FF00FF00FF0095
:10433000FF00FF00FF00FF00FF00FF00FF00FF0085
:10434000FF00FF00FF00FF00FF00FF00FF00FF0075
:10435000FF00FF00FF00FF00FF00FF00FF00FF0065
:10436000FF00FF00FF00FF00FF00FF00FF00FF0055
:10437000FF00FF00FF00FF00FF00FF00FF00FF0045
:10438000FF00FF00FF00FF00FF00FF00FF00FF0035
:10439000FF00FF00FF00FF00FF00FF00FF00FF0025
:1043A000FF00FF00FF00FF00FF00FF00FF00FF0015
:1043B000FF00FF00FF00FF00FF00FF00FF00FF0005
:1043C000FF00FF00FF00FF00FF00FF00FF00FF00F5
:1043D000FF00FF00FF00FF00FF00FF00FF00FF00E5
:1043E000FF00FF00FF00FF00FF00FF00FF00FF00D5
:1043F000FF00FF00FF00FF00FF00FF00FF00FF00C5
:08400000FF3FFF3FFF3FFF3FC0
:00000001FF
